:020000040800F2
:1000000070C30020199C000835030008370300085E
:100010003B0300083F030008430300080000000002
:10002000000000000000000000000000470300087E
:1000300049030008000000004B0300084D030008BE
:100040002F9C00082F9C00082F9C00082F9C000864
:100050002F9C00082F9C00082F9C00082F9C000854
:100060002F9C00082F9C00082F9C00082F9C000844
:100070002F9C00082F9C00082F9C00082F9C000834
:100080002F9C00082F9C00082F9C00082F9C000824
:100090002F9C00082F9C00082F9C00082F9C000814
:1000A0002F9C00082F9C00082F9C00082F9C000804
:1000B0002F9C00082F9C00082F9C00082F9C0008F4
:1000C0002F9C00082F9C00082F9C00082F9C0008E4
:1000D0002F9C00082F9C00082F9C00082F9C0008D4
:1000E0002F9C00082F9C00082F9C00080000000097
:1000F0000000000000000000000000000000000000
:1001000000000000000000002F9C00082F9C000849
:100110002F9C00082F9C00082F9C00082F9C000893
:100120002F9C00082F9C00082F9C00082F9C000883
:100130002F9C0008550300082F9C00082F9C0008E6
:100140002F9C00082F9C00082F9C00082F9C000863
:1001500000F002F800F03AF80AA090E8000C82449F
:100160008344AAF10107DA4501D100F02FF8AFF27C
:10017000090EBAE80F0013F0010F18BFFB1A43F085
:1001800001031847609E0000809E0000103A24BFC3
:1001900078C878C1FAD8520724BF30C830C144BFEC
:1001A00004680C607047000000230024002500262E
:1001B000103A28BF78C1FBD8520728BF30C148BFCA
:1001C0000B6070471FB51FBD10B510BD09F04EFE86
:1001D0001146FFF7F7FF00F00FF809F06CFE03B4CB
:1001E000FFF7F2FF03BC09F073FE000010B51148E1
:1001F000006800F054F810BD00F0BBF900F01EF8E4
:1002000000F0B6FA01E0FFF7F1FFFCE709490968E1
:100210000144094A116000BF07490968054A12688C
:100220009142F9D87047034800680A3001490860D4
:1002300070470000000000200400002000B589B0D5
:1002400032A103C9CDE9040103F0CCFF04F068F941
:10025000002008900790069040F6B830FFF7D6FFD0
:1002600004A800F0BFFF2B482B49002206ABCDE9C4
:100270000021029007AA08A9284804F009FA274893
:1002800004F03CFA254803F008FE244804F09BFAE9
:1002900009B000BD10B5214801F0CDF810BD01B581
:1002A0001F4900980968401AFA2804D31C4900988D
:1002B000086005F033FC1B4900980968401A41F2B8
:1002C0008831884204D317490098086000F09BFAEF
:1002D000154900980968401AB0F5FA7F04D312490D
:1002E0000098086003F0FDFA104900980968401A68
:1002F0004EF66021884204D30C490098086003F050
:1003000068F908BD0A480068704700000000000056
:10031000000100001F11000863140008EC00002019
:10032000080000200C000020100000201400002015
:1003300000000020704700BFFEE700BFFEE700BFDF
:10034000FEE700BFFEE770477047704710B5FFF744
:100350006AFF10BD10B501E0FFF79CFF02F056F8F0
:100360000028F9D1402002F0BAFA4FF4803002F0B0
:10037000B6FA10BD10B5002807DA0A07140E9A4A1B
:1003800000F00F031B1FD45403E00A07130E974A13
:10039000135410BD002109E0002201E0531C9AB261
:1003A00040F275439A42F9DB4B1C99B28142F3DB70
:1003B000704700B5AFB0012001F07FFA4FF4004064
:1003C00001F051FB012001F057FB00BF3D2001F07F
:1003D000D5FA0028FAD00B2001F0EAFC01F006FD66
:1003E00002F055FA00BF02F059FA0128FBD0684626
:1003F00001F096FE01200090002007904FF400705D
:100400000A9000200B900E9011901390149015906C
:1004100020904FF000702190001123900020259033
:10042000269004202890C005299040122A9080012F
:100430002B9040122C9040002E900021684601F035
:100440004FFD01216A4802F061FA2FB000BD08B5E6
:100450000420ADF8000003208DF8020018208DF86C
:1004600003006946634801F001F90220ADF800007D
:1004700003208DF8020018208DF8030069465E48BD
:1004800001F0F4F84FF46050ADF8000003208DF84F
:10049000020018208DF803006946584801F0E6F87C
:1004A0000B20ADF8000003208DF8020004208DF829
:1004B000030069464F4801F0D9F84FF48060ADF869
:1004C000000003208DF8020004208DF80300694627
:1004D0004A4801F0CBF80820ADF8000003208DF861
:1004E000020004208DF803006946434801F0BEF87D
:1004F0003020ADF8000003208DF8020004208DF8B4
:10050000030069463C4801F0B1F80820ADF800004E
:1005100003208DF8020010208DF80300694635484D
:1005200001F0A4F80821334801F04FF94FF4FA70B4
:10053000FFF730FF08212F4801F045F908BD08B545
:1005400000214FF0006000F0FAFF4FF4A06000F0CF
:10055000BFFF3D208DF8000002208DF80100002033
:100560008DF8020001208DF80300684600F0B5FF09
:1005700008BD10B586B009F018FB0121480401F050
:10058000DDFB01214FF4E03001F0BEFB01217D20B5
:1005900001F0C7FBFFF7D3FFFFF759FFFFF709FF94
:1005A00001A801F0DDFA64210198B0FBF1F4B4F187
:1005B000807F00D311E024F07F40401E4FF0E02107
:1005C00048610F214FF0FF30FFF7D4FE00204FF0BD
:1005D000E02188610720086100BF0121881EFFF724
:1005E000C9FE06B010BD000018ED00E000E400E018
:1005F000400001000008014000100140000C0140D3
:100600002DE9FF5F824615469B465446002D7CD05F
:100610002989019805F0BEF93CB9284604F026F96D
:100620006FF00D0004B0BDE8F09F4FF000092E46BA
:1006300021E0D6F80480002716E018F807000D28FE
:1006400003D018F807000A2801D1012000E000209B
:1006500081462068202806DA18F807102268501C06
:100660002060201D81547F1C7089B84202DDB9F1E1
:10067000000FE2D03668002EDBD1B9F1000F3FD079
:100680002068801E211D085C0D2804D12068401EB2
:10069000085C0A2825D02068401E211D085C0D2812
:1006A00004D02068401E085C0A2807D12068401C3E
:1006B000202803DC2068401C206009E02068801CA2
:1006C000202803DC2068801C206001E020202060BE
:1006D0000D222068801E211D0A540A222068401E17
:1006E0000A54012306222CA1019807F0F4F820886F
:1006F00082B20123211D019807F0EDF8002020604F
:10070000284604F0B3F80AE0FFE7BBF1000F06D17A
:10071000204603F08CFD019805F002F982E70020E5
:1007200080E770B504460E462546284603F07FFD57
:1007300070BD2DE9F04106460C46174601212420E4
:1007400003F0D5FE05462946204605F0E2FC144993
:10075000204605F0F2FC1349204605F0DCFC01239D
:100760001B2211A1204607F0B6F80020BDE8F08159
:1007700010B505F0C9FC044617221249204605F0C1
:100780009EFAFF21204605F0E7FA04460E4920466E
:1007900005F0DDFC10BD000048656C6C6F200000AA
:1007A000230700080106000848656C6C6F2E20576F
:1007B00068617420697320796F7572206E616D6550
:1007C0003F0D0A00649F00083307000810B5044677
:1007D00004EB8400F74951F8200060B104EB840178
:1007E000F44A52F8210004F041F8002004EB84019F
:1007F000F04A42F82100002004EB8401ED4A02EBAC
:100800008101887410BD70B500243DE004EB8400C4
:10081000E84901EB8000857C25B304EB840001EB03
:100820008000C07C401C04EB8401E24A02EB8101A1
:10083000C87404EB8400114601EB8000C07CF028F2
:100840000DDA04EB840001EB8000807C01280AD1E2
:1008500004EB840001EB8000C07C022803DB20460F
:10086000FFF7B4FF0EE004EB8400D24901EB8000F7
:10087000807C032806D1022004EB8401CD4A02EBE0
:1008800081018874601CC4B20A2CBFDB70BD2DE9E5
:10089000FC5F05460F464FF00A08C1460A260024B1
:1008A000A34600200190B246009000BF62E004EB36
:1008B0008400C04A02EB8000817C0A2E02D109B973
:1008C00066B255E0002953D000BF012903D00229A8
:1008D00001DA00BF00BF00BF5DB104EB8402B54B7D
:1008E00003EB820228685268904202D160B2BDE8F0
:1008F000FC9F012928D104EB8400AE4A52F8200065
:1009000088B104EB840002EB8000C27C0098824234
:100910002EDB4FFA84FA04EB8400A64A02EB800037
:10092000C07C009024E004EB8400A24A02EB80002B
:10093000C07C58451CDB4FFA84F804EB840002EBC2
:10094000800090F813B013E0022911DB04EB84005F
:10095000984A02EB8000C27C0198824208DB4FFA81
:1009600084F904EB8400934A02EB8000C07C019080
:10097000601CC4B20A2C9ADB07F0020020B90A2ED0
:1009800005D107F0010010B94FF0FF30AFE70A2E94
:1009900001DAF4B226E0B9F10A0F0BDA09F0FF042C
:1009A00000BF04EB8400834951F8200008B100BF68
:1009B00000BF0EE0B8F10A0F02DA08F0FF0408E009
:1009C000BAF10A0F02DA0AF0FF0402E04FF0FF303A
:1009D0008DE700BF0A2C01DB00BF00BF00BF20462F
:1009E000FFF7F4FE00BF0A2C01DB00BF00BF00BF11
:1009F00000BF04EB84006F4901EB8000807C08B1EC
:100A000000BF00BF00BF35B104EB8401694A02EBAF
:100A1000810128684860002004EB8401654A02EBEC
:100A20008101C87460B262E72DE9F04104460E46C8
:100A300017469846756800BF94F82600062801D02E
:100A400000BF00BF00BFD8F800002860B8F804005D
:100A5000A8803868C5F80600B88868810820A88191
:100A600031462046A2699047BDE8F0812DE9F04764
:100A700006460D461746984600BF96F826000628FB
:100A800001D000BF00BF00BF5DB1286848B131464A
:100A9000286808F007FB20B9287800F0F000E0286B
:100AA00003D16FF00D00BDE8F08741462846FFF7FF
:100AB000EEFE0446002C01DA2046F4E7022004EBA7
:100AC00084013C4A02EB8101887404EB84001146E6
:100AD00001EB8000866004EB840001EB8000396844
:100AE000C160B9880182002004EB840102EB81011E
:100AF000C87404EB8400114651F8200098B104EB4F
:100B0000840051F82090002004EB840142F8210079
:100B10003B4606F1270249463046FFF785FF484627
:100B200003F0A4FE00BF0020BDE770B50546002419
:100B300012E004EB84001F4901EB8000867C4EB17B
:100B400004EB840001EB80008068A84202D12046BB
:100B5000FFF73CFE601CC4B20A2CEADB70BD2DE935
:100B6000F04180460F4615461E4600BF05B10EB93E
:100B700000BF00BF00BF02213846FFF788FE0446D1
:100B8000002C19DB04EB84000A4901EB8000807C17
:100B9000022811DB04EB840001EB80000C3028609C
:100BA00004EB840001EB8000001D30602046BDE8AE
:100BB000F0810000200100204FF0FF30F7E72DE921
:100BC000FC4705468846164600BF1DB900BF00BF5A
:100BD000BDE8FC8700BF70892A2803DA304603F09D
:100BE00045FEF5E7776807F10E042088B0F5807FB1
:100BF00008D12079062805D16079042802D16088BF
:100C0000082803D0304603F031FEE1E7D4F80E00A7
:100C10000190A0690090281D08B1686810B94FF0D4
:100C2000000907E000986968884201D1012000E0CE
:100C300000208146B9F1000F01D0012000E0022020
:100C4000034604F1080201A92846FFF70FFFE088D8
:100C5000B0F5807F03D0B0F5007F37D131E0B9F136
:100C6000000F2CD0022002F05DF9E080D4F80E00D5
:100C7000A0616868C4F80E0000BF95F82600062839
:100C800001D000BF00BF00BFA068C4F81200A08957
:100C9000E082A0683860A089B880D8F80000A06021
:100CA000B8F80400A081D8F80000C7F80600B8F82A
:100CB0000400788131462846AA69904700E000BFC9
:100CC00005E001A9284603F016FA00E000BF00BFC6
:100CD000304603F0CBFD00BF7AE72DE9F84F074619
:100CE000884691469A46DDF828B00020009000BF63
:100CF0000FB900BF00BF00BF00222A21032003F06C
:100D000012FE05461DB94FF0FF30BDE8F88F00BF59
:100D100068892A2801DA00BF00BF00BF6E6806F1AB
:100D20000E040D9802F0FEF8E08000BF97F8260050
:100D3000062801D000BF00BF00BFDAF80000A060A5
:100D4000BAF80400A0810B980168C4F812108088DA
:100D5000E082D9F800003060B9F80400B080D8F81B
:100D60000000C6F80600B8F804007081DBF8000047
:100D7000C4F80E000C980068A0614FF480702080C9
:100D80000820608006202071042060714FF4C1604B
:100D9000B08129463846BA6990470090284603F04A
:100DA00065FD00250098B0E77FB504460D4601219A
:100DB000FA4A201D04F127038DE825000391F84A23
:100DC00019462046FFF789FF04B070BD70B505468F
:100DD0000E46144600BF04EB8400F24901EB80008C
:100DE000807C022801DA00BF00BF00BF04EB840052
:100DF000EC4901EB8000807C022817D104EB8400D1
:100E000001EB8000C07CE42810DB04EB84000A4680
:100E100002EB8000011D2846FFF7C6FF30B9032012
:100E200004EB8401DF4A02EB8101887404EB840047
:100E3000DC4901EB800000F10C0305F1270231468B
:100E40002846FFF7F1FD70BD2DE9F05F80460F46A3
:100E5000164608F127094FF0FF3A4146386808F076
:100E600021F938B9387800F0F000E02802D00FB14D
:100E7000386818B96FF00D00BDE8F09F01213846C1
:100E8000FFF705FD0446002C01DA2046F4E704EBE9
:100E90008400C44901EB8000807C30B9012004EB60
:100EA0008401C04A02EB8101887400BF04EB840016
:100EB000BC4901EB8000807C012808D004EB840051
:100EC00001EB8000807C022801DA00BF00BF00BF78
:100ED00004EB8400B34901EB8000807C012800D042
:100EE0003EB939464046FFF75FFF82460EB950468D
:100EF000C2E700BF0EB900BF00BF00BF04EB840013
:100F0000A84901EB8000807C02280FDBA6490C7009
:100F100004EB8400A34901EB800000F10C034A4676
:100F200031464046FFF780FD824650E004EB8400E6
:100F30009C4901EB8000807C012848D14FF0000BD8
:100F4000354610E000BF68892989884203D12868A6
:100F500008B100BF00BF00BF287B012802D04FF0BE
:100F6000010B02E02D68002DECD100BFBBF1000F9A
:100F700010D029890022032003F0D5FC05466DB16D
:100F80003146284603F015FF40B1284603F06EFCB9
:100F9000002503E03546284603F0A9FEA5B104EB81
:100FA0008400804951F8200030B104EB84017D4A6F
:100FB00052F8210003F05AFC04EB8400794941F80F
:100FC00020504FF0000A01E04FF0FF3A00BF5046BA
:100FD00052E72DE9FC4704460F461546A94600BFD7
:100FE0000CB900BF00BF00BF00BF0FB900BF00BFFA
:100FF00000BF00BF0DB900BF00BF00BF0E213846C3
:1010000003F026FE18B16FF00100BDE8FC87214611
:10101000286808F047F810B1DFF8848177E0287875
:1010200000F0F000E02815D101208DF8000000202C
:101030008DF801005E208DF80200687800F07F00D6
:101040008DF80300A8788DF80400E8788DF8050085
:10105000E8465BE02868A1680840D4E90112114025
:10106000884210D0288880B24FF6A96188420AD001
:1010700004F10C0020B1E06810B104F10C0902E0A9
:101080006FF00300C1E74848007800EB8000454955
:1010900001EB8000807C022812DB4349097801EBD8
:1010A0008101404A02EB8101D9F800004968884279
:1010B00006D13D48027839462046FFF787FEA4E76F
:1010C00000261BE006EB8600364901EB8000807CA1
:1010D000022811DB06EB8601324A02EB8101D9F8C6
:1010E00000004968884207D12F490E70F2B2394694
:1010F0002046FFF76BFE88E7701C46B20A2EE1DB44
:101100003A4649462046FFF79FFE7EE700BF43462A
:1011100004F1270239462046FFF786FC75E72DE9E2
:10112000F04104460E464FF00E0860890E2800DCA0
:1011300053E06568AF89287800F00100B0B12878E5
:10114000012809D1687888B9A8785E280ED1607B1B
:1011500040F01000607309E006221149284608F0AB
:1011600077FD18B9607B40F008006073082F03D04A
:10117000B7F5C16F2CD11EE096F82D0000F02000CD
:1011800000B92AE0C8F1000001B2204603F060FD7A
:1011900060B100BF00BF00BF00BF1EE0E49E0008BA
:1011A000DE9E0008200100201E000020314620465F
:1011B00007F00CFE0DE096F82D0000F0200000B9BD
:1011C0000BE0224606F127013046FFF7F8FC00E06D
:1011D00003E000BF0020BDE8F081204603F046FB9D
:1011E0000020F8E710B504462078AF490870607811
:1011F0004870A0788870E078C870207908716079AC
:1012000048712146002001F0A4F910BD70B50446D4
:10121000062084F82600A448007884F82700A24815
:10122000417828200155A0488178292001559E4801
:10123000C1782A2001559C4801792B2001559A48F4
:1012400041792C20015540F2DC50A084322084F8F2
:101250002D0002229549964801F0E4F904229549AF
:10126000954801F08AFA002506E0934901EB051044
:10127000012101F0E1FA6D1C042DF6DB002507E0E9
:101280008B4901EB05104FF4400101F034FA6D1C5D
:10129000022DF5DB00F0EBFF70BD014687480068CA
:1012A000006800F0004008B100207047C1F30C0056
:1012B000824A1268506081480068006840F04050DF
:1012C0007E4A126810607D480068006840F0004067
:1012D0007A4A126810607A48406900F0040020B130
:1012E0000420774A50610020506074480068C0684C
:1012F000724A10600120D8E7704800688068704723
:101300002DE9F04180460E460025FFF7F5FF074620
:10131000344607E062897819616808F0E4FC608966
:1013200005442468002CF5D1A8B2FFF7B6FF0020D1
:10133000BDE8F0811EB500210022009201920292C8
:10134000604A1268126802F0004282B100220092E4
:101350005B4A526902F0800222B18022584B5A61E6
:1013600000229A609DE81C0080E81C001EBD554AC2
:101370001268128802F40042B2B9524A1268128806
:1013800002F4807282B14F4A1268128802F400722D
:1013900052B14C4A12681268C2F30D42111F494AF9
:1013A00012689268019200E000210091454A12689B
:1013B0000292444A1268D268424B1A609DE81C00AF
:1013C00080E81C0000BFD1E72DE9F04387B08146DB
:1013D0000026002501A8FFF7ADFF01A807C804AB50
:1013E00007C3049887B2DDF81480032239461046FB
:1013F00003F099FA054665B12C4608E0628908EBCE
:101400000601606808F06FFC608906442468002CBF
:10141000F4D14FF00040069908602948406900F077
:10142000800020B18020264948610020886028463D
:1014300007B0BDE8F08370B504462046FFF7C4FF4F
:10144000064616B94FF0FF3070BD2146304622697E
:10145000904705461DB1304603F008FA002628469D
:10146000F2E770B5044600BF0CB900BF00BF00BF73
:10147000082002F0AFFF054615B94FF0FF3070BDF0
:10148000E561732084F82E0074212F2001550E4849
:1014900060610E48A06104F1270028602046FFF734
:1014A000B5FE0020EBE7000028000020081A00200D
:1014B0002802002048020020E80100204800002007
:1014C000009002404C000020D30F000801130008D8
:1014D00031490143314A1160704770B50021002342
:1014E0000F22C47804B32D4C246804F4E064C4F5DE
:1014F000E064210AC1F10403CA40447804FA03F10C
:101500008478144021430901254C0678A1550478BC
:1015100004F01F050124AC4005786D11AD0005F104
:10152000E025C5F8004109E0047804F01F05012416
:10153000AC401C4D0678761145F8264070BD1A4A1D
:101540000A400243154B1B1F1A60704739B1134AFA
:10155000121D12680243114B1B1D1A6006E00F4A50
:10156000121D126882430D4B1B1D1A607047042820
:1015700008D14FF0E021096941F004014FF0E02269
:10158000116107E04FF0E021096921F004014FF0FB
:10159000E0221161704700000000FA050CED00E048
:1015A00000E400E080E100E080FFFF1F10B504468A
:1015B000C448844208D10121042000F0D9FB002155
:1015C000042000F0D5FB46E0BF48844208D1012149
:1015D000082000F0CDFB0021082000F0C9FB3AE014
:1015E000BA48844208D10121102000F0C1FB00213B
:1015F000102000F0BDFB2EE0B548844208D1012147
:10160000202000F0B5FB0021202000F0B1FB22E0FB
:10161000B048844208D10121402000F0A9FB0021FC
:10162000402000F0A5FB16E0AB48844208D1012120
:10163000802000F09DFB0021802000F099FB0AE053
:10164000A648844207D10121801500F091FB0021BA
:10165000A01500F08DFB10BD10B50121084600F06B
:1016600087FB0021012000F083FB10BD2DE9F04134
:10167000024600250026002000230024002791F8C0
:1016800003C00CF00F0591F803C00CF0100CBCF176
:10169000000F03D091F802C04CEA050591F800C094
:1016A000BCF1000F31D0146800202BE04FF0010C8A
:1016B0000CFA00F3B1F800C00CEA03069E4220D1F8
:1016C00083004FF00F0C0CFA03F7BC4305FA03FC40
:1016D0004CEA040491F803C0BCF1280F06D14FF086
:1016E000010C0CFA00FCC2F814C00AE091F803C027
:1016F000BCF1480F05D14FF0010C0CFA00FCC2F808
:1017000010C0401C0828D1D31460B1F800C0BCF14F
:10171000FF0F34DD546800202EE000F1080C4FF07C
:10172000010808FA0CF3B1F800C00CEA03069E4267
:1017300021D183004FF00F0C0CFA03F7BC4305FADC
:1017400003FC4CEA040491F803C0BCF1280F05D156
:1017500000F1080C08FA0CF8C2F8148091F803C0E4
:10176000BCF1480F07D100F1080C4FF0010808FA4E
:101770000CF8C2F81080401C0828CED35460BDE895
:10178000F0814FF6FF710180022181700421C17048
:1017900070470246002093680B400BB1012000E027
:1017A000002070470146886880B2704702460020DA
:1017B000D3680B400BB1012000E0002070470146C8
:1017C000C86880B2704701617047416170470AB1D3
:1017D000016100E041617047C16070474FF48032A1
:1017E0000A4382618161826182698269704702462F
:1017F00000203B4B18684FF68073184040EA0210F7
:101800000843374B186070473649C8617047F0B5D8
:101810000A460023002400210025314E7168C0F3E0
:10182000034583B200F44016B6F5401F08D121F0FD
:1018300070612B4E766826F07066294F7E6012E04C
:1018400000F48016B6F5801F06D1032606FA05F4CB
:10185000A14341F0706106E0460D360103FA06F639
:10186000B14341F0706122B1460D360103FA06F62C
:1018700031431B4E7160F0BD30B500228B071C0F49
:101880000F2303FA04F2164B08338C1053F824305C
:101890009343134C08348D1044F8253023468C10A4
:1018A00053F824308C07240F00FA04F423430C4C23
:1018B00008348D1044F8253030BD0A49DC31086009
:1018C0007047000000080140000C0140001001407A
:1018D0000014014000180140001C0140002001409C
:1018E0000000014000002042FB48006840F0010079
:1018F000F949086008464068F8490840F6494860D8
:1019000008460068F6490840F34908600846006840
:1019100020F4802008600846406820F4FE004860FB
:101920000846006820F0A05008604FF47F008860EF
:101930000020C8627047E849096821F48031E64A0E
:1019400011601146096821F480211160B0F5803FD3
:1019500003D0B0F5802F0ED106E0DF49096841F4CD
:101960008031DD4A116007E0DB49096841F4A021BC
:10197000D94A116000E000BF00BF704710B50146B2
:101980000022002300204A11012A02D1D24C2368F0
:1019900006E0022A02D1D04C236A01E0CE4C636AF1
:1019A00001F01F02012494401C400CB1012000E012
:1019B000002010BD38B5002000900024002500BF95
:1019C0003120FFF7DBFF05460098401C009000988F
:1019D000B0F5A06F01D0002DF2D03120FFF7CEFF7F
:1019E00008B1012400E00024204638BD0146002053
:1019F000B94A106820F0F80040EAC1001060704752
:101A0000B8490860704702460020B34B586820F47C
:101A1000741042EA01031843AF4B58607047B14954
:101A20000866704702460020AB4BD86AAE4B1840A0
:101A300042EA01031843A84BD862704701460020D0
:101A4000A54AD06A20F0F0000843D06270470146F2
:101A50000020A14AD06A20F470600843D062704729
:101A6000A04988667047014600209B4AD06A20F44E
:101A700070400843D06270479A4908677047014632
:101A80000020954A506820F00300084350607047DA
:101A90009148406800F00C007047014600208E4AD3
:101AA000506820F0F0000843506070470146002065
:101AB000894A506820F4E06008435060704701464E
:101AC0000020854A506820F4605040EAC100506010
:101AD000704729B1804A527A02437F4B5A7204E020
:101AE0007D4A527A82437C4B5A7270477D49D83185
:101AF0000860704701460020774A506820F4404053
:101B00000843506070477949086070477749091D5C
:101B1000086070470021704A203211706E4A82F8C6
:101B20002010012802D004280AD104E001216A4AC9
:101B30002032117005E00521674A2032117000E063
:101B400000BF00BF70476A49086070476249096A70
:101B50000143614A11627047654944390860704722
:101B60002DE9F04100210022002500230026002459
:101B700000278C46DFF86081D8F8048008F00C015B
:101B800021B1042907D0082959D109E0DFF864817F
:101B9000C0F8008058E0DFF86081C0F8008053E0B2
:101BA000DFF83481D8F8048008F47012DFF8288157
:101BB000D8F8048008F48035920C0D2A01D0921CCC
:101BC00000E0062235B9DFF8348102FB08F8C0F8DE
:101BD000008033E0DFF80081D8F82C8008F48036EC
:101BE000DFF8F480D8F82C8008F00F0808F1010421
:101BF00046B9DFF80481B8FBF4F808FB02F8C0F836
:101C000000801BE0DFF8D080D8F82C80C8F30318E0
:101C100008F10107DFF8C080D8F82C80C8F303284A
:101C200008F1020CDFF8D080B8FBF7F808FB0CF8DD
:101C3000B8FBF4F808FB02F8C0F8008004E0DFF815
:101C4000B480C0F8008000BF00BFDFF88C80D8F8F7
:101C5000048008F0F0010909DFF8A48018F80130C9
:101C6000D0F8008028FA03F8C0F80480DFF8688014
:101C7000D8F8048008F4E061090ADFF8848018F8D5
:101C80000130D0F8048028FA03F8C0F80880DFF8A3
:101C90004880D8F8048008F46051C90ADFF86080F1
:101CA00018F80130D0F8048028FA03F8C0F80C8046
:101CB000DFF82480D8F8048008F44041890BDFF86D
:101CC000448018F80130D0F80C80B8FBF3F8C0F865
:101CD0001080BDE8F0810000001002400000FFF01D
:101CE000FFFFF6FE00004242F0FFFEFFC405424245
:101CF0008004424200127A0040787D0100093D00D4
:101D0000340000204400002029B1354A52690243C2
:101D1000334B5A6104E0324A52698243304B5A6174
:101D2000704729B12E4A926902432D4B9A6104E013
:101D30002B4A926982432A4B9A61704729B1284AFB
:101D4000D2690243264BDA6104E0254AD269824314
:101D5000234BDA61704729B1214A926A0243204B32
:101D60009A6204E01E4A926A82431D4B9A6270474F
:101D700029B11B4AD2680243194BDA6004E0184AC1
:101D8000D2688243164BDA60704729B1144A12694F
:101D90000243134B1A6104E0114A12698243104B4B
:101DA0001A6170470F49086070470F49C86470474F
:101DB0000B49C87170470A48406A40F08070084972
:101DC0004862704701460020054A92680A400AB1FD
:101DD000012000E000207047014988727047000030
:101DE00000100240400442420000424210B501216E
:101DF0008803FFF7B0FF00214FF48040FFF7ABFFEF
:101E000010BD01B581B0002000900198009002E063
:101E10000098401E009000980028F9D10CBD38B5FC
:101E200003460C46002100200090F948016901F0AA
:101E30001C014FF4784000EAC32001434FF4F860DE
:101E400000EA8410014341F0020141F00101F04831
:101E50004261016100BF0098401C0090EC4801699C
:101E600001F0010018B1EB4D0098A842F3D3E94D01
:101E70000098A84201D1002038BD0120FCE718B528
:101E800002460B46002100200090E148016901F064
:101E90001C014FF4784000EAC22001434FF4F8607F
:101EA00000EA8310014321F0020141F00101D8480A
:101EB000016100BF0098401C0090D548016901F005
:101EC000010018B1D34C0098A042F3D3D14C009834
:101ED000A04201D1002018BDCD48406980B2FAE788
:101EE0002DE9F04188B004460F464FF00008002568
:101EF00000200790C84E0190C548056925F01C05D3
:101F000002A8FFF72DFE039EC448864205D3C448AD
:101F1000864202D245F0080509E0C148864205D351
:101F2000BD48864202D245F00C0500E000BFB8482B
:101F300005614FF4004200213846FFF770FF18B9E1
:101F4000002008B0BDE8F081B648FFF75AFF2068CE
:101F500000284ED000BF0198401C01900121384656
:101F6000FFF78DFF00F0040018B9AA4901988842D4
:101F7000F1D3A8490198884201D10020E1E700206F
:101F800001904FF4805200213846FFF748FF08B90E
:101F90000020D6E700BF0198401C0190012138467F
:101FA000FFF76DFF00F0200018B99A4901988842A8
:101FB000F1D398490198884201D10020C1E700205F
:101FC00001901F213846FFF75AFF804608F01000A5
:101FD00018B14FF40060206201E00020206208F098
:101FE000040010B10020606116E04FF48040606191
:101FF00012E0206AC0F3CF006169C1F34F0140EAEB
:10200000010200213846FFF70AFF08B9002098E7CF
:102010006FF07F40FFF7F5FE7D4805688248054078
:10202000D4E901010843E168084321690843616973
:102030000843A1690843E1690843216A0843616ACA
:102040000843A16A0843E16A0843216B0843616BB6
:10205000084305436E480560D4E90E010843216C2E
:102060000843616C0843A16C0843E16C0843216D8F
:102070000843616D084366494860A06D8860E06D63
:10208000C860084685694FF641700540B4F8601095
:10209000606E40EA0140A16E0843E16E0843216F83
:1020A0000843616F0843054359488561D4E91E011F
:1020B00008435749C8615D4885695D480540D4E9D2
:1020C00020010843D4F888100843D4F88C10084342
:1020D000D4F890100843D4F894100843D4F898101A
:1020E0000843D4F89C100843D4F8A01008430543D3
:1020F0004E488561D4E929010843D4F8AC1008435F
:10210000D4F8B0100843D4F8B41040EA8100D4F8F1
:10211000B810084340F4000044490860012010E76B
:102120000021016041608160C160016141618161A4
:10213000C161016241628162C16201634163816385
:10214000C163402101642021416400218164C16494
:10215000016541658165C165016680214166002197
:102160008166C166016741678167C1674FF0806121
:10217000C0F880104910C0F884104910C0F88810C9
:10218000C910C0F88C100021C0F89010C0F894104D
:10219000C0F89810C0F89C10C0F8A0104FF0007163
:1021A000C0F8A4100021C0F8A8104FF40031C0F806
:1021B000AC104912C0F8B0100021C0F8B410C0F83B
:1021C000B810704730B11949896941F00201174AC6
:1021D000916105E01549896921F00201134A916175
:1021E000704730B11149896941F400510F4A91613A
:1021F00005E00E49896921F400510C4A916170474C
:10220000C0B10349096841F00401014A116017E0B7
:1022100000800240FFFF040000879303002D31017E
:10222000C00E1602FFFF0F000F8120FF009002403A
:10223000233FDEF8F749096821F00401F54A1160EF
:102240007047F548806940F48010F3498861704711
:1022500030B1F049096841F00801EE4A116005E02B
:10226000EC49096821F00801EA4A1160704700B59D
:102270000120FFF7EDFFFFF7E4FF0120FFF7C0FFAC
:102280000120FFF7AEFF0120FFF79CFF00BD10B556
:1022900003460A460021E1480068006800F000405B
:1022A00008B1002010BD002105E0585CDB4C24681B
:1022B000A4686054491C9142F7D3C2F30C00D74C78
:1022C00024686060D5480068006840F04050D34CF6
:1022D00024682060D1480068006840F00040CF4C7E
:1022E00024682060CC48406900F0040020B104203C
:1022F000C94C606100206060C8480068006800F454
:10230000801028B1C5480068C068C44C206014E043
:10231000C2480068006800F4001020B1BE4800699F
:10232000BE4C206009E0BC480068C0F38404BB4890
:10233000006810302044B94C20600120B2E710B58D
:10234000024600210023B6480068006800F0004003
:1023500008B1002010BDB2480068008800F40040B9
:10236000E0B9AF480068008800F48070B0B1AC48B4
:102370000068008800F4007080B1A9480068006817
:10238000C0F30D40031F002105E0A54800688068E8
:10239000405C5054491C9942F7D300E000234FF0B1
:1023A00000409F4C246820609B48406900F08000FA
:1023B00020B18020984C60610020A060984800689F
:1023C000808800F4804028B195480068C068944C2B
:1023D000206014E092480068808800F4004020B13A
:1023E0008D48C0688E4C206009E08B480068C0F3BF
:1023F00084048B48006810302044894C20601846C3
:10240000A8E701460868C0F30D40704700B50022F8
:1024100083480068006800F00040B0B98048006858
:10242000008800F4004080B97D480068008800F40E
:10243000807050B17A480068008800F4007020B1C4
:1024400077480068FFF7DDFF0246104600BD4FF0F9
:10245000004073490968086071480068808800F48A
:10246000804028B16E480068C0686D49086014E07B
:102470006B480068808800F4004020B16648C0685E
:102480006749086009E064480068C0F38401644853
:1024900000681030084462490860704770B506460D
:1024A0000D46002400213046FFF7E9FC044615B133
:1024B00044F4804402E04BF6FF70044022460021C1
:1024C0003046FFF7ACFC08B1012070BD0020FCE7EE
:1024D00000205049896901F0010109B1012000E0A3
:1024E000002070474B48806940F0010049498861ED
:1024F000704730B14749896941F00101454A91610E
:1025000005E04449896921F00101424A916170471F
:10251000014600203F4A926B0A400AB1012000E0C8
:1025200000207047014600203A4A926B0A400AB1E7
:10253000012000E00020704729B1364AD26B824367
:10254000344BDA6304E0334AD26B0243314BDA6333
:10255000704710B50B794C7943EA04222D4B0344A4
:102560001A64CB781B068C7843EA04434C7843EA20
:1025700004230C7843EA0402264B03445A6410BD3A
:102580000246244B1344186C030A4B710871214B0B
:102590001344586C030ECB70030C8B70030A4B7002
:1025A0000870704741B11B4A0244126C42F000426D
:1025B000184B03441A6407E0164A0244126C22F0D6
:1025C0000042144B03441A647047082908D0114A8A
:1025D0000244126C42F080420E4B03441A6407E03E
:1025E0000C4A0244126C22F080420A4B03441A64E3
:1025F0007047084A0244126C22F07C52054B034497
:102600001A64044A0244126C0A43024B03441A64DB
:102610007047000000800240009002404800002007
:102620004C00002030B50C4613460021F64D2860C2
:1026300000BF15E000EB01124FF480151560C1EBEF
:10264000411505EB811504EB051595605D1E8D4266
:1026500004D900EB01151035D56000E0D060491CAD
:102660009942E7D3E94D286130BD70B504460D4667
:102670000020E54E346000BF16E004EB0011C0EB13
:10268000401606EB801605EB06168E60C0EB401672
:1026900006EB801602EB0616CE605E1E864202D165
:1026A0004FF400160E60401C9842E6D3D74E3461BA
:1026B00070BD0246002013680B400BB1012000E002
:1026C0000020704701460878C0F3C30070470168D6
:1026D00041F000410160704721B1026842F0804240
:1026E000026003E0026822F08042026070470268E4
:1026F0000A430260704702680A430260704721B1D2
:10270000026822F00062026003E0026842F00062A8
:102710000260704721B1026842F40012026003E0D7
:10272000026822F400120260704721B1026842F48C
:102730008012026003E0026822F480120260704797
:1027400021B1026822F08062026003E0026842F078
:1027500080620260704721B1026842F0007202603C
:1027600003E0026822F000720260704710B541EA8F
:10277000024443682343436010BD30B50C46134602
:102780000021A34D286000BF18E000EB01124FF0BC
:102790000045156044F2F0555560C1EB411505EB5D
:1027A000811504EB051595605D1E8D4204D900EB83
:1027B00001151035D56000E0D060491C9942E4D382
:1027C000924DE86030BD70B504460D460021904E34
:1027D000346000BF1DE004EB01104FF000460660BE
:1027E0004FF4BE664660C1EB411606EB811605EB61
:1027F00006168660C1EB411606EB811602EB061643
:10280000C6605E1E8E4203D1466846F400464660AE
:10281000491C9942DFD37D4EF46070BD0246002012
:1028200013680B400BB1012000E0002070470168E5
:1028300041F000410160704721B1426822F000423E
:10284000426003E0426842F000424260704721B1BA
:10285000426842F40042426003E0426822F40042CF
:102860004260704721B1426842F48042426003E016
:10287000426822F4804242607047024619B15068B3
:10288000C0F30C4070479088C0F30C00FAE75F4833
:10289000006840F001005D490860704700205B4916
:1028A000096801F0010109B1012000E00020704732
:1028B00001460020554A52690A400AB1012000E051
:1028C00000207047514948617047014600204F4A37
:1028D00052690A400AB1012000E0002070474B49CC
:1028E000486170474948406900F001007047474817
:1028F000406900F04000704700204449896901F4B4
:10290000801109B1012000E00020704729B13F4A41
:10291000D26902433D4BDA6104E03C4AD26982430A
:102920003A4BDA61704701460020384A126A0A4081
:102930000AB1012000E0002070473448006AC0F36B
:102940004A4070473148006A80B270472F48806C17
:1029500070472E48C06C70472C48006D70472B485C
:10296000406D704700202949486070470020274982
:10297000886070472748C06A40F000402549C86217
:1029800070470146002000BF04E051F82020214B91
:102990009A62401C0828F8D3704730B11D49C96AB3
:1029A00041F400711B4AD16205E01A49C96A21F459
:1029B0000071184AD162704701460020154AD26A58
:1029C0000A400AB1012000E00020704730B11149EF
:1029D000C96A41F004010F4AD16205E00D49C96A94
:1029E00021F004010B4AD162704730B10949C96A2C
:1029F00041F00201074AD16205E00649C96A21F0A7
:102A00000201044AD1627047480000200090024051
:102A10004C0000200080024030B1F849C96A41F002
:102A20000101F64AD16205E0F449C96A21F00101C9
:102A3000F24AD162704738B1F149096841F00801A2
:102A4000EE4AC2F8001106E0ED49096821F00801DC
:102A5000EA4AC2F80011704738B1E949096841F003
:102A60000401E64AC2F8001106E0E549096821F0D0
:102A70000401E24AC2F80011704738B1E049096820
:102A800021F00201DD4AC2F8001106E0DC490968C4
:102A900041F00201D94AC2F800117047D8480068D5
:102AA00040F00100D549C1F80001704700F08052A4
:102AB00092B120F0805039B1D14A0C321268824371
:102AC000CE4BC3F80C2117E0CD4A0C3212680243FA
:102AD000CA4BC3F80C210FE039B1C94A1032126851
:102AE0008243C64BC3F8102106E0C54A1032126873
:102AF0000243C24BC3F8102170470146002001F089
:102B000080526AB1BE4A121D12680A4032B1BC4AF4
:102B10000C3212680A400AB101200EE000200CE0DD
:102B2000B74A083212680A4032B1B54A0C3212680C
:102B30000A400AB1012000E0002070470146AF487A
:102B400008587047AF48006840F02000AD49086061
:102B50007047AC48006840F01000AA490860704710
:102B6000A848006840F00800A64908607047A548DA
:102B7000006840F00400A3490860704730B1A149E3
:102B8000096841F002019F4A116005E09D4909680A
:102B900021F002019B4A1160704730B199490968E0
:102BA00041F00101974A116005E09649096821F05A
:102BB0000101944A1160704701460020914A126851
:102BC0000A400AB1012000E0002070478D49091D2C
:102BD0000860704710B58B4B1033196040EA020350
:102BE000884C1434236010BD864918310860704742
:102BF000844A1C321060121D1160704701467F48E4
:102C000008587047F0B504460D4600207E4E3460EB
:102C10007E4E356000BF1DE004EB00114FF00476DE
:102C20000E60C0EB401606EB801602EB06168E60B7
:102C30005E1E864204D904EB00161036CE6000E01A
:102C4000CC6005EB00178E68BE6005EB0017CE6800
:102C5000FE60401C9842DFD3461E05EB0616356029
:102C60006B4E3461F0BDF0B504460D460020694E50
:102C70003460694E356000BF20E004EB00114FF076
:102C800000460E6044F2F0564E60C0EB401606EB74
:102C9000801602EB06168E605E1E864204D904EB97
:102CA00000161036CE6000E0CC6005EB00178E6891
:102CB000BE6005EB0017CE68FE60401C9842DCD376
:102CC000461E05EB06163560514EF460F0BD70B53A
:102CD00005460B46002100244B480068006800F0C0
:102CE000004008B1002070BD002105E0685C474E3F
:102CF0003668B6687054491C9942F7D3C3F30C0088
:102D0000414E3668706040480068006840F04050AE
:102D10003D4E366830603C480068006840F0004036
:102D2000394E366830603A48406900F0040020B1FE
:102D30000420374E70610020706000BF641C324870
:102D40000068006800F4003018B94FF6FF70844244
:102D5000F4D33248844201D10020C4E72A480068F5
:102D6000006820F40030284E36683060264800683D
:102D7000806801C224480068C0681060224800686A
:102D8000006800F48010A0B120480068C0681E4EA2
:102D900030601E480068006828B11C480068006860
:102DA0001A4E306028E0194800681030174E306025
:102DB00022E015480068006800F4001040B1144893
:102DC0000069114E306012480069104E306013E007
:102DD0000F480068C0F384060B4800681030304488
:102DE000094E30600A480068C0F38406074800684E
:102DF00010303044054E3060012074E700800240FE
:102E0000008102400087024048000020500000205E
:102E1000009002404C00002054000020FFFF0400FE
:102E200030B50346002200243B480068006800F0EB
:102E3000004008B1002030BD37480068008800F429
:102E40000040E0B934480068008800F48070B0B1F8
:102E500031480068008800F4007080B12E48006896
:102E60000068C0F30D40041F002205E02B480068F5
:102E70008068805C9854521CA242F7D300E0002482
:102E80002748406900F0800020B18020244D68610F
:102E90000020A86020480068806801C11E480068C2
:102EA000C06808601C480068006840F000401A4D87
:102EB0002D68286018480068808800F48040A0B120
:102EC00016480068C068144D2860144800680068FF
:102ED00028B1124800680068104D28601AE00F48B9
:102EE000006810300D4D286014E00B4800688088A1
:102EF00000F4004020B10A48C068074D286009E08E
:102F000007480068C0F3840503480068103028446F
:102F1000014D286020468EE74C0000205400002020
:102F20000090024001460806000C40EA112070475C
:102F300000B502461046FFF7F5FF00BD0146080642
:102F400001F47F4240EA022001F47F0240EA1220AD
:102F500040EA1160704700B503461846FFF7EEFFE0
:102F600000BD000010B5044600BF14B900BF00BF8B
:102F700010BD00BF00BF206908B900BF00BF00BF7F
:102F800000BF606908B900BF00BF00BF206910B171
:102F9000206901F06BFC00202061606100BFE7E761
:102FA00000BF10B900BF00BF704700BF00BF41693C
:102FB00009B900BF00BF00BF00BF018B442901D386
:102FC00000BF00BF00BFFF22038B591C0183416972
:102FD000F031CA5406E00022038B591C0183416979
:102FE000F031CA54018B442903D3017E01F003015F
:102FF00011B1018B4429EED300BFD5E700BF028B8E
:10300000442A01D300BF00BF00BF038B5A1C0283B8
:103010004269F032D154704710B500BF038B9B1C3E
:103020001344442B01D900BF00BF00BF048B631CB5
:1030300003834369F0331955048B631C038343698D
:10304000F0331A5510BD10B500BF028B921C442AF4
:1030500001D900BF00BF00BF0B0A048B621C0283B2
:103060004269F0321355048B621C02834269F032CC
:10307000115510BD2DE9F04106460C46174600BF1C
:103080002EB900BF00BF6FF00D00BDE8F08100BF9A
:1030900000BF24B900BF00BF6FF00500F5E700BF17
:1030A00000BF206908B100BF00BF00BF00BF60695A
:1030B00008B100BF00BF00BF00224FF49A71104654
:1030C00001F031FC2061206910B94FF0FF30DCE7DE
:1030D00000BF20694089B0F59A7F01D200BF00BFD0
:1030E00000BF607B20B9FE480068401CFC490860B6
:1030F000FB480068206020694068606101206169C8
:1031000008706169487096F826006169887000202F
:103110006169C8702068FFF711FF6169486000208D
:1031200061690881616948816169C860082F09D0B7
:10313000042F07D0032F08D1207B052802D0207B45
:10314000042802D170686169C86000206169086163
:10315000616948616169886100250DE096F8260083
:10316000A84203DD06F12700405D00E00020616910
:103170001C314855681C85B2102DEFD3002505E0A1
:10318000002160692C304155681C85B2402DF7D371
:10319000002505E0002160696C304155681C85B24E
:1031A000802DF7D3CF486169C1F8EC00002020835F
:1031B000002504E06069F0304555681C85B2442D57
:1031C000F8D3012235212046FFF726FF3946204655
:1031D000FFF714FF002058E7027B8A4203D00173F7
:1031E0000022427342837047F8B505462C6A0026D8
:1031F0000020606206212046FFF7EEFF01222146F3
:103200002846FFF737FF0646002E30D1022239212B
:103210002046FFF701FFA98C2046FFF714FF042288
:1032200037212046FFF7F8FE01212046FFF7E6FE92
:1032300003212046FFF7E2FE1C212046FFF7DEFEB9
:1032400006212046FFF7DAFE2046FFF7A9FE228B73
:10325000F03291B2206901F0A3FC00954323A24A09
:103260002169606805F065FA2046FFF77BFE607B08
:10327000401C6073607B062803DA617B0120884074
:1032800000E03C2000EB4001C1EBC0104FF6FF71A5
:1032900001EAC00707F2F3104FF4FA7190FBF1F066
:1032A00060833046F8BD70B50446256A204601F0BB
:1032B00028FA8E49204601F0A0F98C49204601F0F9
:1032C00090F98A49204601F092F90C212846FFF72F
:1032D00083FF2046FFF788FF70BD2DE9F0410546CA
:1032E0002C6A08212046FFF777FF002204F1240111
:1032F0002846FDF7A9FD0746607B401C60734FF42C
:10330000FA7606F2F310314690FBF1F06083BDE8E7
:10331000F08110B500BF028B121D442A01D900BFF5
:1033200000BF00BF0B0E048B621C02834269F032A7
:103330001355C1F30743048B621C02834269F032C8
:103340001355C1F30723048B621C02834269F032D8
:103350001355048B621C02834269F032115510BD73
:103360002DE9F84305462C6A01212046FFF734FF7A
:10337000032221462846FFF77DFE0646002E4AD14D
:10338000022239212046FFF747FEA98C2046FFF78D
:103390005AFE042232212046FFF73EFE606AFFF704
:1033A000DAFD804641462046FFF7B3FF042236216E
:1033B0002046FFF731FE206AFFF7CDFD80464146EB
:1033C0002046FFF7A6FF042237212046FFF724FE00
:1033D00001212046FFF712FE03212046FFF70EFED3
:1033E0001C212046FFF70AFE06212046FFF706FEB5
:1033F0002046FFF7D5FD228BF03291B2206901F013
:10340000CFFB00954323384A2169606805F091F9A4
:103410002046FFF7A7FD607B401C6073607B062899
:1034200003DA617B0120884000E03C2000EB400192
:10343000C1EBC0104FF6FF7101EAC00707F2F310AD
:103440004FF4FA7190FBF1F060833046BDE8F883E9
:1034500070B505462C6A2648807850B125498868A1
:10346000FFF76CFD2062A068006960622846FFF7E4
:1034700077FF70BDF8B505462C6A05212046FFF799
:10348000ABFE032221462846FFF7F4FD0646E6B9C7
:10349000022239212046FFF7BFFDA98C2046FFF705
:1034A000D2FD2046FFF77CFD228BF03291B22069DD
:1034B00001F076FB0095432304F120022169606846
:1034C00005F037F92046FFF74DFD607B401C607327
:1034D000607B0A2810DA607B4FF4FA6148430DE004
:1034E0005800002063825363689F0008649F0008AF
:1034F00010260020E825002044F6206087B207F25D
:10350000F3104FF4FA7190FBF1F060833046F8BD90
:1035100070B505462C6A207B012805D0207B0A283F
:1035200002D0207B052802D12846FFF7A3FF70BDFB
:10353000F8B505462C6A04212046FFF74DFE03220C
:1035400021462846FFF796FD0646DEB902223921BC
:103550002046FFF761FDA98C2046FFF774FD204649
:10356000FFF71EFD228BF03291B2206901F018FBAB
:1035700000954323F94A2169606805F0DAF820468E
:10358000FFF7F0FC607B401C6073607B0A2804DA64
:10359000607B4FF47A71484301E042F2107087B2C9
:1035A00007F2F3104FF4FA7190FBF1F060833046AC
:1035B000F8BD70B505462C6A207B012805D0207B1C
:1035C0000A2802D0207B052802D12846FFF7B0FF49
:1035D00070BD10B5E248046817E0206AA0B1206A07
:1035E000C18B481E226AD083012903D12046FFF7F0
:1035F000E0FF09E0206A818B481E226A908301293E
:1036000002D12046FFF784FF2468002CE5D110BDCD
:103610002DE9F84305462C6A03212046FFF7DCFD1F
:10362000032221462846FFF725FD06464EBB02220F
:1036300039212046FFF7F0FC4FF410712046FFF7C8
:1036400002FD042232212046FFF7E6FC606AFFF704
:1036500082FC804641462046FFF75BFE2046FFF78E
:103660009FFC228BF03291B2206901F099FA00950B
:103670004323BA4A2169606805F05BF82046FFF7EA
:1036800071FC607B401C6073607B0A2804DA607BFD
:103690004FF47A71484301E042F2107087B207F2AA
:1036A000F3104FF4FA7190FBF1F060833046BDE8FF
:1036B000F883F8B505462C6A00212046FFF78CFDFB
:1036C000002020626062A062E062A0636063206309
:1036D000072221462846FFF7CDFC06469EB9204624
:1036E000FFF75EFC228BF03291B2206901F058FAAC
:1036F0000095432304F120022169606805F019F860
:103700002046FFF72FFC607B401C6073607B0A281B
:1037100004DA607B4FF47A71484301E042F21070A2
:1037200087B207F2F3104FF4FA7190FBF1F0608367
:10373000284600F0E6FF8B49284600F05EFF8949E5
:10374000284600F04EFF8749284600F050FF3046DB
:10375000F8BD7CB5064600BF16B900BF00BF7CBDF2
:1037600000BF346A00BF14B900BF00BFF7E700BF55
:10377000606B401C70B1606B1E303C21B0FBF1F5FA
:10378000B5F5803F01D34FF6FF75A583A08B08B92F
:103790000120A083A06B401C70B1A06B1E303C21A7
:1037A000B0FBF1F5B5F5803F01D34FF6FF75E5832A
:1037B000E08B08B90120E083A08BE18B884204DB19
:1037C000E08B002801DD0020A083A07B10B1A06A5F
:1037D000019010E094F824007F2802DCFF21019181
:1037E00008E0C02803DB6FF07F41019102E04FF653
:1037F000FF71019100BFE06A0090684608B100982F
:1038000038B9606A019908400090009840F08070D3
:10381000009004F12401304600F0EFFE01A930468B
:1038200000F0E5FE6946304600F0DBFE304600F071
:10383000CAFF0A212046FFF7CFFC00BF8FE770B513
:1038400005462C6A207B0C2802D0207B062803D159
:103850002846FFF7C9FC43E0207B01280DD1607B9F
:10386000052803DC2846FFF77BFD39E02846FFF7F3
:1038700020FF2846FFF7B8FC32E0207B08280AD159
:10388000607B012803DC2846FFF727FD28E0284657
:10389000FFF75FFF24E0207B052803D12846FFF7D0
:1038A000E9FD1DE0207B04280DD1607B082803DCA6
:1038B0002846FFF73DFE13E02846FFF7FAFE2846AC
:1038C000FFF792FC0CE0207B032809D1607B0228E3
:1038D00003DA2846FFF79CFE02E02846FFF784FC47
:1038E00070BD10B51E48046818E0206AA8B1206AAF
:1038F000408B012805DD206A408B401E216A4883E9
:103900000BE0206A408B012807D1206A408B401EC3
:10391000216A48832046FFF792FF2468002CE4D1F7
:1039200010BD70B505462C6A0020A062E0620E480A
:10393000C07810B10D48C06820630B48007918B1F9
:103940000A480069606302E0206B40086063064833
:10395000407968B105484069A0630BE0689F0008A2
:1039600068000020649F000810260020E825002041
:10397000206BA063A06800696062F948807938B163
:10398000F8498869FFF7DAFAA0620120A07301E024
:103990000020A073F248C07920B1F249C869FFF74E
:1039A000CDFAE06270BD70B504460D4600BF0CB99B
:1039B00000BF00BF00BF00BF0DB900BF00BF00BF08
:1039C00000BF206A08B100BF00BF00BF3C212846ED
:1039D00006F0F0F9256270BD10B5044600BF0CB9C1
:1039E00000BF00BF00BF206A20B1206A00F01FFCAA
:1039F0000020206210BD70B5054600BF15B900BF9C
:103A000000BF70BD00BF2C6A95F82D0020F00800A3
:103A100085F82D0084B1606820B1606804F059FF1A
:103A20000020606000BFA06808B100BF00BF00BFF9
:103A300000212046FFF7D0FB00BFE2E72DE9F34F5E
:103A400089B089460020069005900A21C44806F0F6
:103A5000B1F9B9F80A002C2804DA6FF001000BB0B4
:103A6000BDE8F08FD9F80410099881604FF0F00B91
:103A7000B9F80800079000BF4C460AE06089ABEB3C
:103A800000001FFA80FB61890798401A80B20790F6
:103A9000246814B160895845F0DD14B96FF0010055
:103AA000DDE75F46DDF81CA0606808903CE10898FF
:103AB000C05D049000264FF0FF38B81C80B2039020
:103AC0006189781C814203DD791C0898455C07E018
:103AD000206818B120684068007800E000200546A2
:103AE0002E460498342860D00BDC032824D003DC55
:103AF00080B1012871D113E006282AD03328F9D1EA
:103B000047E035285DD036286AD03A2874D03B2863
:103B1000F0D17DE0002005460646781E87B285E09C
:103B200000BF042D04D000BF00BF6FF0050096E772
:103B300000BF4FF0060879E0042600BFB54204DA62
:103B400000BF00BF6FF0050089E700BF4FF0070816
:103B50006CE000BFE91705EB91718910A5EB8101BD
:103B600021B100BF00BF6FF0050078E700BF082D4E
:103B700001DA284600E00820064600BFB54204DA14
:103B800000BF00BF6FF0050069E700BF4FF00808F5
:103B90004CE000BF042D04D000BF00BF6FF0050053
:103BA0005DE700BF4FF0030840E000BF012D04D0E7
:103BB00000BF00BF6FF0050051E700BF4FF00008E5
:103BC00034E000BF012D04D000BF00BF6FF005003E
:103BD00045E700BF4FF0010828E025E000E00BE0DA
:103BE00000BF042D04D000BF00BF6FF0050036E712
:103BF00000BF4FF0020819E000BF042D04D000BF41
:103C000000BF6FF005002AE700BF4FF004080DE089
:103C100000BF042D04D000BF00BF6FF005001EE7F9
:103C200000BF4FF0050801E0002600BF00BFA81C40
:103C3000384487B2002E5CDD0020029000BF00BF38
:103C4000B8F1000F02DBB8F10A0F01DB00BF00BFC3
:103C500000BF434810F80800A8BB042E01DA304624
:103C600000E00420019002A92046039B019A01F084
:103C700012F9042E20DD00BFF11706EB91718910B7
:103C8000A6EB810121B100BF00BF6FF00500E6E6A1
:103C900000BF0120324901F808000298FFF74EF9F1
:103CA000304941F82800301FC6B20398001D80B289
:103CB000039008F10108C2E7042E05D10298FFF72E
:103CC0004AF902900CE013E000BF012E04D000BFBF
:103CD00000BF6FF00500C2E600BF9DF8080002902B
:103CE00001201F4901F808001E49029841F82800E8
:103CF00000BF6089B84216DC6089381A87B26089D3
:103D0000AAEB00001FFA80FA57450BDABAF1000F50
:103D100008D0246800BF0CB900BF00BF00BF6068B6
:103D2000089000E008E000BF34B10898C05DFF28AB
:103D300002D05745FFF6BBAE00BF09480078C8B1B6
:103D4000084908680021064A1170012802D10121A2
:103D500006910EE0022807D10121059109E000003B
:103D600010260020E8250020032802D1012105911A
:103D7000069100BF069830B1002006904FF06C0B02
:103D8000EC20079078E6059830B1002005904FF0C0
:103D90002C0B6C2007906FE6002060E62DE9F05FA9
:103DA00081461546DDF828B04F463C6AD5F804A098
:103DB00000BFA06808B100BF00BF00BF68892C2801
:103DC00000DA63E09AF80000022800D05EE00026E6
:103DD0000AE007F12700815D0AF11C00805D814245
:103DE00000D053E0701CC6B297F82600B042F0DC59
:103DF000DAF80400FFF7AFF82168884200D045E008
:103E000029462046FFF71AFE00B13FE0C648407839
:103E100000B93BE0C54890F80480B8F1050F16D111
:103E2000207B012806D13846FFF77BFD3846FFF797
:103E300054FA2AE0207B032805D0207B042802D0F6
:103E4000207B052821D13846FFF783FC1DE0B8F11F
:103E5000060F0FD1207B032808D0207B012805D036
:103E6000207B042802D0207B052803D13846FFF7A9
:103E70001AFA0AE0B8F1020F07D1207B062804D114
:103E8000002060833846FFF7E3FA00BF0020A060FF
:103E9000284600F0EBFCBDE8F09F70B50546002613
:103EA00000BF25B900BF00BF6FF00D0070BD00BF9F
:103EB00055F8204F687B20F008006873687B203D30
:103EC00000F0200010B96FF00D00EFE7A88CB0F5FE
:103ED000107F02DA4FF0FF30E8E74CB93C2000F0E9
:103EE00079FA044614B94FF0FF30DFE72C6210E096
:103EF000606810B1606804F0ECFC00BF206908B194
:103F000000BF00BF00BF00BFA06808B100BF00BF76
:103F100000BF3C21204605F04DFF04F0F8FC606036
:103F2000606810B94FF0FF30C0E76068007A40F079
:103F300020006168087244227D49606804F0B7FB84
:103F400043227B49606804F081FC2A467949606815
:103F500004F0BCFC2846FFF747F906462EB1284678
:103F6000FFF749FD4FF0FF30A0E795F82D0040F036
:103F7000080085F82D00304698E770B590B00446EB
:103F8000002600BF1CB900BF00BF10B070BD00BF4D
:103F90003C2101A805F00EFF082101A8FFF71CF93C
:103FA000206A28B1206A406810B1206A456810E094
:103FB00004F0ADFC054605B9E7E702950298007AE2
:103FC00040F020000299087244225949029804F0F6
:103FD0006EFB082201A92046FFF74CF80646E6B919
:103FE0000222392101A8FFF717F8A18C01A8FFF7D9
:103FF0002AF801A8FEF7D4FFBDF81C20F03291B2D8
:10400000059800F0CDFD009443234B4A28460599BE
:1040100004F08FFB01A8FEF7A5FF029810B10298EB
:1040200004F057FC00BFB0E770B505462C6A04B930
:1040300070BD207B042809D003DC98B1032812D17D
:1040400007E0052803D00A280DD101E000BF00BF1A
:1040500000BF284600F055FB002060732846FFF79C
:10406000D7FA06E005E0002060732846FFF7BCF8A9
:1040700000BF00BF00BFDBE72DE9F84305462C6A0F
:1040800000260C212046FFF7A7F8042221462846E7
:10409000FEF7F0FF0646FEB9042232212046FEF765
:1040A000BBFF606AFEF757FF804641462046FFF798
:1040B00030F92046FEF774FF228BF03291B220696E
:1040C00000F06EFD009543231B4A2169606804F0EF
:1040D00030FB2046FEF746FF607B401C607342F2D7
:1040E000107707F2F3104FF4FA7190FBF1F0608350
:1040F0003046BDE8F88370B504460D4600BF14B9DC
:1041000000BF00BF70BD00BF206A58B1206A007BAD
:10411000082807D12868216A496A884202D12046C6
:10412000FFF7AAFF00BFEDE710260020E8250020DA
:10413000649F00089D3D0008689F000830B500BFDF
:10414000F34B1B68984201D200BF00BF00BF00BF05
:10415000F04B1B68984201D300BF00BF00BF00BFF7
:1041600003790BB100BF00BF00BF00BF0388B3F5E8
:10417000A04F01DD00BF00BF00BF0388E44C2468EE
:104180001919884215D00B799BB9E24B1B689942EB
:104190000FD0E14B1B688B4201D1DF4B18600B88BD
:1041A0000380DB4B1B88C31A0C88D94D2D682C4427
:1041B00063804388D64C24681A19824211D013793F
:1041C0007BB9D54B1B68834201D1D34B1A6003885E
:1041D0001380CF4B1B88D31A0488CD4D2D682C44F7
:1041E000638030BD00BF00BFCC4921F00301C84A45
:1041F0001160114608684FF4A04101800021418000
:1042000001711146096801F5A041C24A11600121FE
:10421000126811714FF4A041BE4A12681180BD4A64
:1042200012685180BA490968BB4A1160704770B57D
:10423000044604B970BD00BF04F0030008B100BF1C
:1042400000BF00BF00BFB2480068844203D3B1483A
:104250000068844201D300BF00BF00BFAC480068C3
:10426000844203D3AB480068844200D3E2E7A4F160
:10427000080500BF287908B900BF00BF00BF0020B3
:104280002871A5480068854201D2A34805602846E8
:10429000FFF754FF00BFCDE72DE9F04105460A4680
:1042A000D01C20F0030082B20C2A00DA0C22B2F5F6
:1042B000A04F02DD0020BDE8F08100BF94480068F7
:1042C000854203D393480068854201D300BF00BFF5
:1042D00000BF8F480068854203D38E48006885423E
:1042E00001D32846E7E7A5F1080489480088201A89
:1042F00086B22088801B083887B200BFBA4201DD31
:1043000000BF00BF00BFBA4201DD0020D3E7BA42C0
:1043100001D12846CFE72088DFF8F4C1DCF800C0DF
:1043200000EB0C01087980BB088806F1080C944466
:104330001FFA8CF3DFF8E0C1DCF800C08C4508D12F
:10434000DFF8CCC1DCF800C09C44DFF8CC81C8F8B1
:1043500000C0DFF8BCC1DCF800C00CEB03014FF07B
:10436000000C81F804C008804E802380B1F800C0A2
:10437000BCF5A04F08D0B1F800C0DFF89481D8F8A0
:104380000080C444ACF8023022E0FFE702F11400E0
:10439000B8421DD806F10800104483B25C4800689A
:1043A000C1185D480068814201D25B48016000206D
:1043B0000871208808804E8023800888B0F5A04FBF
:1043C00006D00888DFF848C1DCF800C060444380AC
:1043D000284670E7F0B502460AB90020F0BDD01CAF
:1043E00020F0030082B20C2A00DA0C22B2F5A04FB2
:1043F00001DD0020F2E748480088454E3688801BE2
:1044000083B26EE042480068C1180879002865D17F
:104410000E8803F10800301A90425FD30E8803F132
:104420000800361A02F11400864218D303F108007E
:10443000104485B23648006844190020207108886D
:10444000208063800D80012008712088B0F5A04F86
:1044500007D020882E4E36683044458001E0012088
:1044600008712D48006881421CD12B4E306803E052
:104470000688274F3F68F01906791EB1254E366829
:10448000B042F5D1244E306000BF3668214F3F68FE
:10449000BE4205D0204E366836790EB100BF00BF4F
:1044A00000BF00BF00BF01F108001044194E36687C
:1044B000B04201D900BF00BF00BF00BF01F0030040
:1044C00008B100BF00BF00BF00BF01F0030008B18A
:1044D00000BF00BF00BF01F108007FE70C48006883
:1044E000C35AC2F5A04098428CDC002076E770B534
:1044F00004460D4604FB05F188B2FFF76BFF064644
:1045000026B104FB05F1304605F032FC304670BDA3
:104510005C00002060000020640000201D260020B8
:1045200010B5002001E0431C98B20A28FBDB284BA1
:1045300023F00301002019E00023264C44F820302A
:1045400000220CE0234B53F820300B60214B43F842
:104550002010214B33F810301944531C9AB21F4BD2
:1045600033F810309342EDDC431C98B20A28E3DBA9
:1045700010BD024600BF0A2A03DB00BF00BF0020B7
:10458000704700BF134850F8221059B1114B08680A
:1045900043F8220000BF01F0030008B100BF00BFD4
:1045A00000BF00BF0846EBE701B9704700BF01F04C
:1045B00003030BB100BF00BF00BF0A46054B53F811
:1045C00020301360034B43F8202000BFEDE70000CC
:1045D0005B76002030760020EA9E0008FE9E0008F0
:1045E000704709B9002200E00A68C260704709B943
:1045F000002200E00A68826070472DE9F04107461A
:104600000C4654B320687968884201D1012000E04B
:10461000002010BB904806680BE03068796888423B
:1046200006D1D6F80C80304601F012FB464600E079
:10463000F668002EF1D1894805680CE055B128686C
:1046400040B128687968884204D10CB9002000E0A4
:1046500020682860ED68002DF0D10CB9002000E042
:1046600020687860BDE8F0812DE9F04106460F46EC
:1046700014461D4639463046FFF7BFFF21463046F7
:10468000FFF7B5FF29463046FFF7ABFFBDE8F081E5
:104690002DE9F04704460E4617469846DDE9095ACB
:1046A000DDF8209000BF0DB900BF00BF00BF0020A3
:1046B0006060A060E06084F82D002062C4F81C9067
:1046C0006748007884F8300065480078401C6449E9
:1046D0000870C4F810A043463A4631462046FFF71A
:1046E000C3FF2046A84710B10020BDE8F0875D4811
:1046F000006820605B4804602046F6E75A4908607D
:10470000704710B5044694F82D0000F0010060B128
:1047100014F82D0F20F00100207014F82D0900F07E
:10472000200010B12046FCF700FA10BD10B5044679
:1047300004B910BD94F82D0000F0010010B120461E
:10474000FFF7DFFF47480068A04203D145492068D2
:1047500008600FE04349086806E00168A14202D101
:104760002168016002E000680028F6D100BF00B9AE
:10477000DFE700BF3C480068A04202D10020FFF7FD
:10478000BDFF00BFD5E710B502460AB9002010BD35
:1047900090783038C3B23348016810E091F83000A7
:1047A00098420BD1107891F82E40A04206D154784F
:1047B0002F20405C844201D10846E8E709680029BF
:1047C000ECD10020E3E710B5044694F82D0000F08A
:1047D000010090B914F82D0F40F00100207014F87A
:1047E0002D0900F0100040B194F82D0000F02000D9
:1047F00018B1211D2046FCF7D7FA10BD10B50446AC
:1048000094F82D0000F01000C0B994F82D0040F08D
:10481000100084F82D00206A10B12046FFF704FC38
:1048200094F82D0000F0010040B194F82D0000F044
:10483000200018B1211D2046FCF7B6FA10BD90F8F3
:104840002D1001F0100129B190F82D1021F0100168
:1048500080F82D10704700008800002084000020A0
:1048600070000020680000206C0000202DE9F04757
:1048700004463CB900BF0CB900BF00BF00BF002018
:10488000BDE8F08700BF207B50B1207B012807D016
:10489000207B022804D0207B032801D000BF00BF6A
:1048A00000BF00263BE000BFE089002801DC00BF1C
:1048B00000BF00BFE089401E1FFA80F8A4F80E80F8
:1048C000B8F1000F29D12768257B607B00F002003A
:1048D00060B1A14600BFD9F8100008B900BF00BF01
:1048E00000BF2046D9F81010884712E0032D04D1EC
:1048F00021460920FFF758FE0BE0012D01D0022DC3
:1049000004D121460820FFF74FFE02E02046FFF7C2
:104910008EFC701CC6B23C4600E0002400BF002C98
:10492000C1D13046ACE72DE9F05F83460F46914692
:10493000BBF1000F09D0BBF1010F08D0BBF1020F92
:1049400007D0BBF1030F08D105E036260CE0222684
:104950000AE00E2608E0002606E000BF00BF00BF08
:1049600000BF0020BDE8F09F00BFB9F1000F76D076
:10497000B9F1010F74D0B9F1020F72D0B9F1030F80
:1049800070D10920FFF7F5FD04460CB90020E9E7D6
:1049900084F80C900020206006F110002044C01C18
:1049A00020F00300606000BF207900F0030008B130
:1049B00000BF00BF00BF2781F01C20F0030040F2C1
:1049C000DC51081AB84201DD384605E0F01C20F041
:1049D000030040F2DC51081A608100BF6189606801
:1049E000014404F2EC50814201D900BF00BF00BF76
:1049F00000BFF01C20F0030040F2DC51081A002830
:104A000001DC00BF00BF00BF0120E081A246608939
:104A1000A7EB000846E00920FFF7ABFD054625B9E6
:104A20002046FFF723FF00209CE785F80C9000202C
:104A300068732860CAF8005000BF4FF6FF708045C9
:104A400001DB00BF00BF00BFA5F808801FFA88F097
:104A500040F2DC51884206DA1FFA88F005E025E0D2
:104A600049E049E057E040F2DC50688105F1100070
:104A7000686000BF287900F0030008B100BF00BFE4
:104A800000BF00BF61896068014404F2EC508142BC
:104A900001D900BF00BF00BF0120E8816889A8EBF1
:104AA0000008AA46B8F1000FB5DC3AE006F11301A0
:104AB00021F00302F91C21F00301114488B2FFF731
:104AC00089FC04460CB900204CE704F11000304486
:104AD000C01C20F0030060602781678100202060F7
:104AE00084F80C9000BF207900F0030008B100BFEB
:104AF00000BF00BF15E000BF0820FFF73AFD0446E5
:104B00000CB900202EE700206060278167812060BB
:104B100084F80C9005E000BF00BF00BF00BF00207C
:104B200020E700BF0120E08100206073204619E7E4
:104B3000F0B505460C46DDE9056735B1012D06D017
:104B4000022D06D0032D08D105E036210BE02221ED
:104B500009E00E2107E0002105E000BF00BF00BF13
:104B600000BF0020F0BD00BFC81C20F0030020449F
:104B7000B84201DD0020F5E7002018602EB1C81C06
:104B800020F003003044586001E00020586002200B
:104B900058731C815C811A730120D8811846E1E7A3
:104BA0002DE9F04105460F4600BF0DB900BF00BF1B
:104BB00000BF00BF287B032809D0287B012806D02E
:104BC000287B20B1287B022801D000BF00BF00BF96
:104BD0002889B84201DCBDE8F0812889A7EB0008EC
:104BE0003E462C4613E06089301A86B200BF4FF66D
:104BF000FF70804501DB00BF00BF00BF208940443B
:104C00002081246800BF0CB900BF00BF00BF6089CD
:104C1000B042E8DB207B78B96089B0420CD0A08834
:104C2000001B304481B22046FFF736FB044600BF2C
:104C30000CB900BF00BF00BF668160892081206879
:104C400010B12068FFF712FE0020206000BFC2E70D
:104C500070B5024600BF0AB900BF00BF00BF01B176
:104C60000AB9002070BD00290ADA484284B200BFA8
:104C70005089A04203DA00BF00BF0120F2E700E044
:104C80008CB2137B55680BB1032B0AD15068401AC4
:104C9000506002F110005668864217D2556001201C
:104CA000E0E7022B01D0012B0AD1002906DA508956
:104CB000A04203DB5068401A506007E00120D1E7B2
:104CC00000BF00BF00BF00BF0120CBE750890844F0
:104CD00050811089084410810020C3E7014600205C
:104CE00002E0421CD0B209680029FAD1704710B125
:104CF000C189491CC181704710B5024600BF02B18D
:104D000011B900BF00BF10BD00BF104604E0038909
:104D10000C892344038100680368002BF7D100BF8E
:104D200003894489A34201D000BF00BF00BF00BF78
:104D300003680BB100BF00BF00BF03890C89234487
:104D40000381016000BFDEE730B505460C46214611
:104D50002846FFF7D1FF2046FFF7C9FF30BD70B5E9
:104D6000044601262568B5B100BF20896189401A33
:104D70002989884201D000BF00BF00BF2089618916
:104D8000401A288100202060608920812846FFF792
:104D90006DFD064600BF00BF20896189884201D0B1
:104DA00000BF00BF00BF002E01DD002070BD2846FF
:104DB000FCE72DE9F04105460C460026002700BF20
:104DC00025B11CB128892189884205DA00BF00BFBE
:104DD0006FF00D00BDE8F08100BF00BF6889801B47
:104DE0006189C91B884204DB6089C01B1FFA80F8F7
:104DF00003E06889801B1FFA80F86268D1196A682D
:104E00009019424604F06FFF06EB080086B207EBEC
:104E1000080087B200BF6889B04201DA00BF00BF56
:104E200000BF00BF6089B84201DA00BF00BF00BF09
:104E30006089B84201DC002724686889B0420AD141
:104E400000262D6800BF2DB924B100BF00BF6FF050
:104E50000D00BFE700BF64B160892189884208D195
:104E600000BF206820B100BF00BF6FF00500B1E7B0
:104E700000BF65B168892989884208D100BF2868C8
:104E800020B100BF00BF6FF00500A3E700BF002CFA
:104E9000A4D100209EE72DE9F05F804689461646A2
:104EA0001D464FF0000B00BFB8F1000F04D100BF4A
:104EB00000BF0020BDE8F09F00BF00BFB9F1000FA8
:104EC00003D100BF00BF0020F4E700BF4FF0000A8D
:104ED000B8F1000F02D0B9F1000F01D10020E9E7CD
:104EE000444620E035B16089A84203DC6089281A75
:104EF00085B217E06089401B87B2B74200DD3746B4
:104F00006268511909EB0A003A4604F0ECFE0BEB1B
:104F100007001FFA80FB0AEB07001FFA80FAF01B5C
:104F200086B2002524680EB1002CDBD15846C1E7BB
:104F30002DE9F04705460F46904646464FF0000AD9
:104F400000BF25B900BF00BF0020BDE8F08700BF4B
:104F500000BF1FB900BF00BF0020F6E700BF1DB1B2
:104F600017B12889404502DA6FF00D00EDE72C46B5
:104F700018E000BF0CB900BF00BF00BFB146608998
:104F8000484501DAB4F80A9007EB0A014A4660681E
:104F900004F0A9FEA6EB090086B20AEB09001FFA8D
:104FA00080FA2468002EE4D100BF0EB9C24501D0BA
:104FB00000BF00BF00BF0020C7E72DE9F041044655
:104FC0000F46206810B92046BDE8F08121890022F3
:104FD0003846FFF7A8FC05460DB92046F4E7214600
:104FE0002846FFF7E6FE064600BF0EB100BF00BF31
:104FF00000BF2046FFF73AFC2846E5E710B5034618
:105000000C462246194603E04889101A82B2096804
:1050100011B148899042F7DD29B14889904202DDFB
:105020004868805C10BD0020FCE72DE9F84F07467A
:10503000884691469A4646463C4603E06089301AC7
:1050400086B2246814B16089B042F7DDD4B16089BA
:10505000B04217DD002511E0701981B22046FFF73C
:10506000CDFF834619F8050000900098834503D0D2
:10507000681C80B2BDE8F88F681C85B25545EBDB33
:105080000020F7E74FF6FF70F4E72DE9F0470646FA
:10509000884615461F463089401B1FFA80FA308922
:1050A000E919884214DB3C4610E02B464246214673
:1050B0003046FFF7BAFF8146B9F1000F02D1204612
:1050C000BDE8F08704EB090084B200BF5445ECDD75
:1050D0004FF6FF70F4E770B506460C4634B1207801
:1050E00020B130894FF6FF71884202D14FF6FF7030
:1050F00070BD204604F0D8FD05464FF6FF7085428E
:1051000000D3F5E7AAB2002321463046FFF7BDFFE2
:10511000EEE700002DE9F04705468A460027D5F85E
:10512000048098F809900026644804681FE0207CF9
:1051300048451AD134B1206820B161492068096816
:10514000884212D1606980B15E4B2A462146D4E97B
:1051500005C0E04748B10025012736B1E068F0609E
:1051600056480068E060554804602646E4680FB978
:10517000002CDCD13846BDE8F087024609B9002092
:1051800000E00868106000207047024609B900205E
:1051900000E00868506000207047416182617047FC
:1051A0002DE9FE4F04460D46914614212846FFF78F
:1051B0004FFD88B1002211460120FFF7B4FB0646DF
:1051C0001EB94FF0FF30BDE8FE8F288990B1294607
:1051D0003046FFF7B9FD0DE02E466FF01301304663
:1051E000FFF736FD30B100BF00BF00BF00BF4FF07A
:1051F000FF30E8E7484603F0C3FD071E07D1AE4283
:1052000002D03046FFF732FB6FF00300DBE70CB152
:10521000206810B907F1040800E0A046207C617AFC
:10522000CDE901070091A37A4A464146304603F092
:105230009FFE8246AE4202D03046FFF717FB504633
:10524000C1E770B504460D46221D29462046FFF7EA
:10525000A7FF70BD70B5054618480068A84205D183
:1052600016480068C068154908600CE013480468D7
:1052700007E0E06820B1E068A84201D1E868E0609A
:10528000E468002CF5D129460020FFF78DF970BDA8
:1052900070B505460020FFF76CF904465CB11C218F
:1052A000204604F087FD2574FF20A07203480068A3
:1052B000E06002480460204670BD000074000020D9
:1052C000DC000020D8000020704710B5044644B12F
:1052D000606810B16068FFF7C9FA21460420FFF743
:1052E00063F910BD70B5044605E025682046FFF758
:1052F000ECFF2C4600BF002CF7D170BD10B5044662
:10530000207ED0B1207E0A2817D0207E012814D01C
:10531000606F20B1606FFFF7A9FA002060674FF05F
:10532000FF30A086E06EFFF7DDFF206FFFF7DAFFAA
:105330000020E0662067A4F86A0010BD2DE9FE4F4A
:1053400000200290FE480068401CFD490860FD48AE
:105350000078401CFB49087000BF0025FA4804682B
:1053600061E100BF207E08B900BF00BF00BF00BFE1
:10537000207E012801D100BF00BF00BF00BF207EFA
:105380000A2801D100BF00BF00BF94F82100ED49F9
:105390000978884201D1E46845E1EA48007884F858
:1053A00021000026B146207E022806D194F846004E
:1053B000062802D1701CC6B26BE094F846000C2897
:1053C00002D1701CC6B264E094F8910000281BDD85
:1053D00014F8900F401C207021786078903C401E9B
:1053E000DA4A105C814254DB002084F8900094F883
:1053F0009100072804D294F89100401C84F8910091
:10540000204602F0BBFE44E0B4F93400002803DB80
:10541000A08E401C00B2A086206FD0B3B4F9340037
:10542000B4F94410884234DB207E02280CD040348A
:105430006088B4F9001000EBE100A179C44A515C26
:10544000884000B2A080403C0020A086B4F84C0008
:10545000B4F86010884202DAB4F84C0001E0B4F805
:10546000600082464FEA6A00A4F84E00B4F84E008D
:10547000E18EB0EB410F06DAE08E4FF6FF7101EAE4
:105480004000A4F84E00E08EA4F84C00204602F044
:10549000CCFD207E06280BD1A07F00F0100038B193
:1054A000A749606A0968081A282801D9701CC6B281
:1054B000207A00F00800A8B3207E042802D0207EC5
:1054C00007282FD1A349D4F88C0008444FF4FA716F
:1054D000B0FBF1F09A4A616A1268511A884206D20A
:1054E000701CC6B209F1010000F0FF091AE094F83F
:1054F000920042F29F425043D4F88C1001EBC0005E
:105500004FF4FA71B0FBF1F08D4A616A1268511ADA
:10551000884207D2204602F00AFE94F89200401C0E
:1055200084F89200207E032807D18549606A0968C3
:10553000081A282801D9701CC6B2207E092807D174
:105540007F49606A0968081AF02801D9701CC6B240
:10555000F6B32046FFF7D2FE55B100BF7A48006887
:10556000844201D100BF00BF00BFE068E8600AE0EC
:1055700000BF75480068A04201D000BF00BF00BF57
:105580007149E0680860B9F1000F09D0A08B618B08
:10559000CDE90010231D2246A16A206D02F002FD14
:1055A000D4F88880D4F810B02746E4683946022041
:1055B000FEF7FAFF00206849087000BFB8F1000F3D
:1055C00003D06FF009015846C04700BF624800E0B1
:1055D00003E0007800B1C0E624E02546E468E87FF7
:1055E000401CE877E87F95F8201088421ADB0020FD
:1055F000E8775949087000BFD5F8840030B12946D2
:10560000D5F8842028699047029001E0002002909C
:1056100000BF5148007800B19FE6029810B92846B3
:1056200002F0D8FB00BF002C7FF49BAE00254B4856
:10563000046833E000BF207E0A2801D000BF00BF0D
:1056400000BF00263E49606A0968081AF02801D99F
:10565000701CC6B206B32046FFF750FE55B100BF1E
:105660003E480068844201D100BF00BF00BFE0682F
:10567000E8600AE000BF39480068A04201D000BFDE
:1056800000BF00BF3549E06808602746E468394636
:105690000220FEF789FF01E02546E468002CC9D10D
:1056A000BDE8FE8F70B505460C4600BF2868A042D5
:1056B00003D12868C068286017E029492868086075
:1056C0000EE027480068C068A04204D12449E06881
:1056D0000968C86008E022480068C068204908607E
:1056E0001F4800680028ECD100BF0020E06000BF28
:1056F0002046FFF703FE207E0A280DD0207E0128D9
:105700000AD0A07F00F0010030B1A07F40F002007D
:10571000A077204602F05EFB207E01280BD000BF60
:10572000E06E08B100BF00BF00BF00BF206F08B12E
:1057300000BF00BF00BF0020207600BF00BF70BDCB
:105740007C00002096000020880000204D9F00086B
:10575000409F0008B84C0A00940000208C000020F4
:10576000900000207CB504460E46002E61D0207EBD
:10577000042802D0207E07285BD1606F20B9A08D5D
:1057800040F66831884254D000BFA07F00F010007E
:1057900008B900BF00BF00BFA08B618BCDE900102E
:1057A000231D2246A16A206D02F0FCFB2046FFF774
:1057B000A5FD00BF00BFF7480068A04205D1F5482D
:1057C0000068C068F349086018E0F2480068F249D0
:1057D00008600EE0F0480068C068A04204D1EE49BD
:1057E000E0680968C86008E0EB480068C068EA49FA
:1057F0000860E94800680028ECD100BF0020E060A4
:1058000000BF0120E549087000BF207E04280AD1AE
:105810000A20207600BFE2480068E060E0480460AB
:1058200002F061FD03E021460220FEF7BDFE0020EC
:105830007CBD207E082868D2DFE800F004343F4FAA
:105840005767675F0025608B30B300BFD54800689D
:10585000A04205D1D3480068C068D249086018E06A
:10586000D0480068CC4908600EE0CB480068C068AA
:10587000A04204D1C849E0680968C86008E0C64889
:105880000068C068C4490860C34800680028ECD1BB
:1058900000BF0020E06000BF21460220FEF784FE2A
:1058A000002435E000252146BF48FFF7FBFE2146D6
:1058B0000320FEF779FE00242AE0002500BF2146E0
:1058C000B448FFF7EFFE0120B449087000BF21463D
:1058D0000220FEF769FE00241AE0204601F052FF84
:1058E00005460DB90520207612E0204601F04AFF5A
:1058F00005460DB9052020760AE0204601F042FF5A
:1059000005460DB90920207602E00025002400BFDD
:1059100000BF1CB115B9204602F05CFA284687E7A3
:1059200010B50446207E012803D0A07F40F010006F
:10593000A07701212046FFF715FF10BD10B50146E5
:105940008B8D886AC218C88E40F2B4540B6BA0428B
:1059500001DD204600E0C88E1844101A04D4888D5A
:10596000C885086B101A10BD0B6B886AC01A002816
:1059700002DD0020C8850BE08C6A0B6B181B00BF92
:10598000B0F5803F01D300BF00BF00BFC88500BF96
:105990000020E8E770B504460D4600BF207E0128D0
:1059A00001D100BF00BF00BF00BFA08D4FF6FF7147
:1059B000081AA84201DA00BF00BF00BFA08D28442A
:1059C000A085A08D40F66831884201DD0846A0859B
:1059D0002046FFF7B3FF064640F2DA20864208DB96
:1059E00000BFA07F40F00200A07700BF204602F079
:1059F000F1F970BD2DE9F04107460D4614461E46EB
:105A00003CB121892846FFF7C5FF2046FEF72EFF4F
:105A100005E026B92846FFF783FFBDE8F0810020A6
:105A2000FBE72DE9F0410446606F477B666F00207D
:105A3000606700BFE06F40B1002332462146D4F8D2
:105A40007CC02069E047054606E000233246214637
:105A50001846FFF7CFFF054600BFFDB907F020004D
:105A600018B3A08D40F66831884202D0A08D401C4A
:105A7000A08500BFE06F40B100231A462146D4F84C
:105A80007CC02069E047054600E0002500BF05F125
:105A90000A0050B96FF00900BDE8F08105F10A0075
:105AA00010B96FF00900F7E766670020F4E770B5FA
:105AB0003E480078401C3D49087000BF35480468E6
:105AC00029E094F8210039490978884223D03748E1
:105AD000007884F82100A07F00F0010060B100BFD1
