:020000040800F2
:10000000D00E0020450100089F1A0008AB19000817
:100010009D1A000807020008C12000080000000027
:10002000000000000000000000000000A31A00080B
:100030003F02000800000000A11A0008A51A0008ED
:100040005F0100085F0100085F0100085F01000810
:100050005F0100085F0100085F0100085F01000800
:100060005F0100085F0100085F0100085F010008F0
:100070005F0100085F0100085F0100085F010008E0
:10008000090200085F0100085F0100085F01000825
:100090005F0100085F0100085F0100085F010008C0
:1000A0005F0100085F0100085F0100085F010008B0
:1000B0005F0100085F010008A11B00085F01000844
:1000C0005F0100085F0100085F0100085F01000890
:1000D0005F0100085F0100085F0100085F01000880
:1000E0005F0100085F0100085F0100085F01000870
:1000F0005F0100085F0100085F0100085F01000860
:100100005F0100085F0100085F0100085F0100084F
:100110005F0100085F0100085F0100085F0100083F
:100120005F0100085F0100085F0100085F0100082F
:10013000DFF80CD000F02AF8004800477D220008C4
:10014000D00E00200648804706480047FEE7FEE73D
:10015000FEE7FEE7FEE7FEE7FEE7FEE7FEE7FEE777
:10016000071B000831010008D2B201E000F8012BA2
:10017000491EFBD270470022F6E710B513460A4627
:1001800004461946FFF7F0FF204610BD064C074D08
:1001900006E0E06840F0010394E807009847103457
:1001A000AC42F6D3FFF7C8FFF02200081023000886
:1001B00070B58C1810F8015B15F0070301D110F829
:1001C000013B2A1106D110F8012B03E010F8016B56
:1001D00001F8016B5B1EF9D12B0705D40023521ED9
:1001E0000DD401F8013BFAE710F8013BCB1A921C41
:1001F00003E013F8015B01F8015B521EF9D5A1423F
:10020000D8D3002070BDFEE7014800F0B3B800006D
:100210004C04002030B590F840500124AC40C56B30
:100220006C60046863604368102B036803D09960B6
:100230000068C26030BD9A600068C16030BD704720
:1002400072B6FEE72DE9F05F90F821100024022934
:1002500003D004218163012485E001680A6822F04B
:100260000E020A6001680A6822F001020A603F4E2D
:100270003E4FB215DFF8F4C0DFF8F090DFF8ECA0E5
:10028000DFF8E8B0DFF8E4E00168783F1301150219
:10029000ACF1640CA9F15009AAF13C0AABF1280BAE
:1002A000AEF1140E4FF48018B14227D9B9420ED0E6
:1002B000614512D049451DD0514518D0594518D037
:1002C000714501D1424615E0294EB14201D10122CA
:1002D00010E0274E1436B14201D110220AE0244E1C
:1002E0002836B14206D0224A3C32914201D11A4608
:1002F00000E02A461E49091F0A602BE0B94213D0CC
:10030000614517D0494522D051451DD059451DD0D2
:10031000714501D142461AE0B14202D14FF08072DC
:1003200015E0134EB14201D1012210E0104E1436F7
:10033000B14201D110220AE00D4E2836B14206D05A
:100340000B4A3C32914201D11A4600E02A46074945
:1003500080394A60012180F82110002180F82010A6
:10036000416B01B188472046BDE8F09F8000024004
:10037000080402402DE9F05FC16B0A6801680B6850
:10038000046C4FF0040808FA04F8844D844E854F3D
:10039000DFF814C2DFF81492DFF814A2DFF814B209
:1003A000DFF814E218EA020F65D05FEA437862D5FD
:1003B0000A68920603D40A6822F004020A60DFF891
:1003C000F0814FF48062016808F1140813011402EF
:1003D000414524D9A9420DD0B1420FD0B9421AD01B
:1003E000614515D0494515D0514501D1120312E0A0
:1003F000594501D104220EE0714501D140220AE0A5
:100400006D4D1435A94206D06B4A2832914201D174
:100410001A4600E022466749091F0A6029E0A942FE
:1004200013D0B14215D0B94220D061451BD0494507
:100430001BD0514502D14FF4800217E0414502D153
:100440004FF0806212E0594501D104220EE071455F
:1004500001D140220AE0584D1435A94206D0564A2F
:100460002832914201D11A4600E022464B49083910
:100470004A60C16A71E04FF0020808FA04F818EA0D
:10048000020F70D05FEA83786DD50A68920606D4B1
:100490000A6822F00A020A60012180F82110DFF8C0
:1004A00010814FF40072016808F11408130114025E
:1004B000414524D9A9420DD0B1420FD0B9421AD03A
:1004C000614515D0494515D0514501D1120312E0BF
:1004D000594501D102220EE0714501D120220AE0E6
:1004E000354D1435A94206D0334A2832914201D104
:1004F0001A4600E022462F49091F0A6029E0A94256
:1005000013D0B14215D0B94220D061451BD0494526
:100510001BD0514502D14FF4001217E0414502D1E2
:100520004FF0007212E0594501D102220EE07145F0
:1005300001D120220AE0204D1435A94206D01E4ADE
:100540002832914201D11A4600E022461349083967
:100550004A60002180F82010816A00291CD0BDE883
:10056000F05F0847FFE70825A540154214D01A0799
:1005700012D50A6822F00E020A6090F84020C36B80
:10058000012101FA02F25A60816380F821100021F2
:1005900080F82010016BE0E7BDE8F09F0800024002
:1005A0001C0002403000024044000240580002405B
:1005B0006C000240080402401C04024030B560B1E7
:1005C0001A4B026814219A4209D2194B1344B3FB07
:1005D000F1F18900016417490AE0012030BD134B95
:1005E0005B421344B3FBF1F1890001640F49083900
:1005F000C163022180F82110136843F6F0718B4328
:10060000F0E901142143D0E902452C432143046958
:100610002143446921438469214319431160002126
:100620004163012242770177084630BD0804024049
:10063000F8FFFDBF0000024070B5044690F82000AE
:10064000002501280CD0012084F8200094F82160B6
:100650000020012E06D084F820000225284670BD17
:10066000022070BD022684F82160A063206806681D
:1006700026F0010606602046FFF7CCFDE06A002860
:100680002068016802D041F00E0106E021F004016B
:1006900001602068016841F00A010160206801687A
:1006A00041F001010160D9E770B5044600F010F98E
:1006B0000546601C02D004480078044400F008F9A4
:1006C000401BA042FAD370BD000000202DE9F84F76
:1006D000DFF8C891002409F1040A0AF1040B23464B
:1006E0000F270BF1040ED1E00125A54006EA050213
:1006F000AA4276D1DFF8A8C14E68A6EB0C08664581
:100700002BD00DDC032E34D005DC36B3012E19D0EE
:10071000022E2FD11BE0112E16D0122E2AD119E055
:10072000B8F5881F19D006DCB8F5803F15D0B8F5AC
:10073000801F1FD111E0B8F5001F0ED0B8F5041FBF
:1007400018D10AE0CB6815E0CB681B1D12E0CB681E
:1007500008330FE0CB680C330CE08B682BB1012B16
:100760004FF0080303D0456104E0042302E0056173
:1007700000E00023FF2A01D8064601E000F104064C
:100780004FEA840501D9A5F12005D6F8008007FAC3
:1007900005FC28EA0C0803FA05F548EA0508C6F83E
:1007A00000804D68ED0070D53E4DAE6946F0010603
:1007B000AE61AD6924F0030605F0010500953A4DE0
:1007C00006EB050CDCF80850A607360F07FA06F80A
:1007D00025EA0805DFF8D480404503D14FF0000832
:1007E00025E052E0DFF8C880404502D14FF0010813
:1007F0001DE0DFF8C080404502D14FF0020816E04E
:10080000DFF8B480404502D14FF003080FE0DFF875
:10081000AC80404502D14FF0040808E0DFF8A0802A
:10082000404502D14FF0050801E04FF0060808FAF4
:1008300006F848EA0508CCF808804D68D9F8006049
:10084000ED034D4601D5164300E096432E604D68FA
:10085000DAF80060AD03554601D5164300E0964333
:100860002E604D68DBF80060ED025D4601D5164351
:1008700000E096432E604D68DEF80060AD027546DC
:1008800001D5164300E096432E60641C0A681646A4
:10089000E2407FF429AFBDE8F88F0000000401407A
:1008A000000011100010024000000140000801404B
:1008B000000C0140001001400014014000180140EC
:1008C000001C01400AB1016170470904FBE7000008
:1008D00001488068704700000000002002488168DD
:1008E000027811448160704700000020074810B56D
:1008F000016841F010010160032000F075F800204C
:1009000000F006F800F024F8002010BD002002409E
:1009100070B50D4D04464FF47A712878B1FBF0F0B4
:100920000A490968B1FBF0F000F0ECFA48B9102C64
:1009300007D200222146501E00F036F800206C60DD
:1009400070BD012070BD0000000000200C000020E0
:100950000C4808B5816941F001018161816901F0AC
:1009600001010091C16941F08051C161C06900F08D
:10097000805000900448416821F0E06141F000712E
:10098000416008BD0010024000000140002809DB62
:1009900000F01F02012191404009800000F1E02099
:1009A000C0F8001170470000F0B40E4B1B680C46F5
:1009B000C3F30223C3F10705042D00D90425191D33
:1009C000072901D2002300E0DB1E012606FA05F10B
:1009D000491E214099409E40761E16403143F0BC8E
:1009E00001F010BC0CED00E0064900F007020868B9
:1009F0004FF6FF03184040EA0220034A1043086004
:100A0000704700000CED00E00000FA052DE9F0470A
:100A10000F46050061D0434E306800F00700B84231
:100A200009D2306820F0070038433060306800F0A9
:100A30000700B84251D128683B4C810712D54007C6
:100A400003D5606840F4E06060602878000703D553
:100A5000606840F4605060606068A96820F0F00051
:100A6000084360602878C00728D06868012810D043
:100A70002168022810D0890700292EDA616821F048
:100A8000030101436160FFF723FF804641F288398B
:100A90000DE021688903EFE78901EDE7FFF718FF13
:100AA000A0EB0801494502D90320BDE8F087606842
:100AB000696800F00C00B0EB810FEFD1306800F0F6
:100AC0000700B8420BD9306820F007003843306087
:100AD000306800F00700B84201D00120E5E728782F
:100AE000400705D56068E96820F4E060084360606D
:100AF0002878000706D56068296920F4605040EA2C
:100B0000C100606000F038F86168084AC1F3031161
:100B1000515CC8400649086006480068FFF7F8FEC7
:100B20000020C2E70020024000100240D822000846
:100B30000C000020040000200448054900684968B2
:100B4000044AC1F30221515CC84070470C000020E8
:100B500000100240E822000804480549006849687E
:100B6000044AC1F3C221515CC84070470C00002008
:100B700000100240E822000812A185B00FC98DE8DC
:100B80000F0014A0144A006804905168134801F043
:100B90000C03042B10D0082B0ED1C1F38343C903DF
:100BA0001DF803000AD5516804AAC1F34041515C05
:100BB0000A4A5043B0FBF1F005B07047084948437A
:100BC000FAE7000002030405060708090A0B0C0DEA
:100BD0000E0F1010010200000010024000127A00F7
:100BE00000093D002DE9F84F040070D02078C04D79
:100BF000C00749D06868C0F38100012807D0686841
:100C0000C0F38100022809D16868C00306D52868AE
:100C1000800339D560680028E7D035E06068B0F51A
:100C2000803F0BD010B1B0F5A02F11D0286820F470
:100C300080302860286820F4802002E0286840F492
:100C400080302860606890B1FFF742FE06460AE0F7
:100C5000286840F480202860F0E700BFFFF738FEE6
:100C6000801B642873D828688003F7D50CE0FFF751
:100C70002FFE064605E000BFFFF72AFE801B642812
:100C8000F0D828688003F7D420789A4E80074FF078
:100C900001094FF0000839D5686810F00C0F07D033
:100CA0006868C0F38100022809D16868C00306D4CF
:100CB0002868800714D52069012808D110E0206930
:100CC000B0B1C6F80090FFF703FE074605E00AE161
:100CD000FFF7FEFDC01B0228C4D828688007F7D59F
:100CE0002868616920F0F80040EAC10028600DE042
:100CF000C6F80080FFF7ECFD074604E0FFF7E8FDCB
:100D0000C01B022823D828688007F7D42078000762
:100D10002CD57948A169D9B1C0F80090FFF7D8FD6A
:100D2000074604E0FFF7D4FDC01B02280FD8686A0D
:100D30008007F7D571484FF4FA510068B0FBF1F025
:100D4000009000BF0098411E0091FAD20EE080E0B2
:100D5000C0F80080FFF7BCFD074604E0FFF7B8FDD0
:100D6000C01B022875D8686A8007F7D4207840072E
:100D700060D5E8690027C00008D4E86940F08050D9
:100D8000E861E869012700F0805000905C48016844
:100D9000C90513D40168834641F480710160FFF7EF
:100DA00097FD824606E000BFFFF792FDA0EB0A0028
:100DB00064284ED8DBF80000C005F5D5E0680128AE
:100DC0000AD008B1052813D0286A20F00100286253
:100DD000286A20F0040002E0286A40F0010028623E
:100DE000E06841F2883B98B1FFF772FD82460BE064
:100DF000286A40F004002862EEE700BFFFF768FDB4
:100E0000A0EB0A0159455AD8286A8007F6D50CE0AC
:100E1000FFF75EFD824605E0FFF75AFDA0EB0A01F1
:100E200059454CD8286A8007F6D41FB1E86920F0EC
:100E30008050E861E06988B36968C1F381010229E3
:100E400044D00228C6F8608004D0FFF741FD044674
:100E500038E034E0FFF73CFD074604E0FFF738FDDB
:100E6000C01B02282BD828688001F7D4206AB0F56F
:100E7000803F05D16868A16820F4003008436860AD
:100E8000D4E908010843696821F4741108436860D3
:100E9000C6F86090FFF71CFD044606E025E000BFA1
:100EA000FFF716FD001B022809D828688001F7D536
:100EB0001BE000BFFFF70CFD001B022802D9032036
:100EC000BDE8F88F28688001F4D40EE00128F7D03F
:100ED0006868226A00F48031914204D1616A00F4AA
:100EE0007010884201D00120EAE70020E8E7000006
:100EF0000010024000004242800442420C000020E8
:100F00000070004010B5401EB0F1807F01D3012079
:100F100010BD4FF0E02460610F21601701F072F9FD
:100F20000020A06107202061002010BD00B585B021
:100F3000002002900A48816941F0080181618069BE
:100F4000694600F0080004904FF4607000900220A1
:100F50000190032003900348FFF7B8FB05B000BDE4
:100F600000100240000C01407047704770B590F8C7
:100F70003C20012A2CD0012480F83C40022280F839
:100F80003D2003685A689D6822F070060A68324363
:100F90005A60104B02689A420ED00F4B9A420BD007
:100FA000B2F1804F08D00D4B9A4205D00C4B9A42BB
:100FB00002D00C4B9A4204D1496825F080031943B2
:100FC000916080F83D40002180F83C10084670BDDB
:100FD000022070BD002C014000340140000400409C
:100FE00000080040000C004010B5040003D094F845
:100FF0003D0010B107E0012010BD002084F83C0046
:10100000204600F01FF8022084F83D00211D2068D2
:1010100000F008FE012084F8460084F83E0084F8C1
:101020003F0084F8400084F8410084F8420084F8CE
:10103000430084F8440084F8450084F83D00002013
:1010400010BD0000094808B5C16941F00401C16143
:10105000C069002200F00400009011461E20FFF736
:10106000A3FCBDE808401E20FFF790BC0010024022
:1010700090F83D10012901D001207047022180F82D
:101080003D100168CA6842F00102CA6000680E495A
:1010900088420ED00D4988420BD0B0F1804F08D065
:1010A0000B49884205D00B49884202D00A49884240
:1010B00004D1816801F00701062903D0016841F0DD
:1010C0000101016000207047002C01400034014004
:1010D0000004004000080040000C004070B50446C9
:1010E00090F83C00012817D0012584F83C500220DC
:1010F00084F83D002068826822F0770222F47F4263
:1011000082600868502830D00DDC20284DD005DCE6
:1011100098B310283BD148E0022070BD302844D05D
:10112000402834D139E0602828D0702806D0B0F5A6
:10113000805F2CD0B0F5005F29D10AE0CB68D1E9FF
:101140000121206800F036FE2068816841F07701B7
:1011500009E0CB68D1E90121206800F02BFE20686E
:10116000816841F48041816011E0CA684968206863
:1011700000F0F4FE5021206807E016E0CA684968D4
:10118000206800F0FCFE6021206800F01DFE84F85D
:101190003D50002084F83C0070BDCA684968206852
:1011A00000F0DCFE40212068EFE72268014610468F
:1011B000EBE77047704770B50446006801694FF06F
:1011C0000005C943890715D4C168C943890711D4EB
:1011D000E91E016101202077206880698007204690
:1011E00002D0FFF7E7FF04E000F098F8204600F097
:1011F00059F9257720680169C943490717D4C1689F
:10120000C943490713D46FF004010161022020771C
:101210002068806910F4407F204602D0FFF7CAFFA3
:1012200004E000F07BF8204600F03CF925772068C8
:101230000169C943090716D4C168C943090712D413
:101240006FF008010161042020772068C0698007E1
:10125000204602D0FFF7AEFF04E000F05FF8204622
:1012600000F020F9257720680169C943C90617D421
:10127000C168C943C90613D46FF010010161082089
:1012800020772068C06910F4407F204602D0FFF725
:1012900091FF04E000F042F8204600F003F92577C2
:1012A00020680169C943C90708D1C168C943C90792
:1012B00004D1891E0161204600F08CFA2068016982
:1012C000C943090609D4C168C943090605D46FF0AA
:1012D000800101612046FFF747FE20680169C9438C
:1012E000490609D4C168C943490605D46FF04001D5
:1012F0000161204600F096FA20680169C943890619
:101300000BD4C168C943890607D46FF0200101617D
:101310002046BDE87040FFF728BE70BD704770B52D
:10132000044690F83C000D4601280AD0012084F8BC
:101330003C0042B1042A18D0082A2AD00C2A4DD1E8
:1013400039E0022070BD206800F046FD2068816908
:1013500041F0080181612068816921F00401816107
:10136000206881692A69114311E0206800F064FD5A
:101370002068816941F4006181612068816921F4FC
:1013800080618161206881692A6941EA0221816165
:1013900024E0206800F086FD2068C16941F0080162
:1013A000C1612068C16921F00401C1612068C1697F
:1013B0002A69114311E0206800F0A8FD2068C16986
:1013C00041F40061C1612068C16921F48061C1619B
:1013D0002068C1692A6941EA0221C161002084F8BC
:1013E0003C0070BD10B5040003D094F83D0010B16E
:1013F00007E0012010BD002084F83C00204600F0EA
:101400001FF8022084F83D00211D206800F00AFC2E
:10141000012084F8460084F83E0084F83F0084F8F8
:10142000400084F8410084F8420084F8430084F8C6
:10143000440084F8450084F83D00002010BD000001
:1014400038B5054600681349884221D11248C16960
:1014500041F00201C161C069114C00F0020000902E
:101460000E4820601020606000208021C4E9020145
:10147000490021618900C4E90510C800E0612046E7
:10148000FFF79CF808B1FEF7DBFE6C62AC636562A7
:1014900038BD000000040040001002406C00024013
:1014A0004C04002000680449884203D1002103480D
:1014B00000F030B970470000000400400404002030
:1014C0007047000010B50446022249B104290ED02D
:1014D000082913D094F84100012816D0012010BD2E
:1014E00094F83E000128F9D184F83E200FE094F8EA
:1014F0003F000128F2D184F83F2008E094F8400032
:101500000128EBD184F8402001E084F84120012239
:10151000206800F0CDFB13492068134A884201D0AF
:10152000904203D1436C43F40043436420688842F3
:101530000DD090420BD0B0F1804F08D00B498842BB
:1015400005D00B49884202D00A49884204D18168FB
:1015500001F00701062903D0016841F00101016093
:10156000002010BD002C0140003401400004004068
:1015700000080040000C00402DE9F04117460D0026
:1015800004460CD0042D11D0082D16D094F841003B
:10159000022819D094F84100012818D0A2E094F84C
:1015A0003E00022810D094F83E00F5E794F83F0082
:1015B000022809D094F83F00EEE794F84000022892
:1015C00002D094F84000E7E70220BDE8F0810FB9AF
:1015D000002B5BD14749484E484A022045B1042DB3
:1015E00016D0082D24D084F841000C2D3AD16CE09F
:1015F00084F83E00606A8162606A3946C662606A49
:1016000002632268606A3432FFF716F8F0BB1FE00D
:1016100084F83F00A06A8162A06A3946C662A06A67
:1016200002632268A06A3832FFF706F870BB14E044
:1016300084F84000E06A8162E06A3946C662E06A86
:1016400002632268E06A3C32FEF7F6FFF0B937E049
:101650002068C16841F4007103E02068C16841F46A
:101660008061C16001222946206800F021FB2449E5
:101670002068244A884201D0904203D1436C43F44D
:1016800000434364206888420FD000E02AE0904283
:101690000BD0B0F1804F08D01B49884205D01B49C0
:1016A000884202D01A49884204D1816801F00701BA
:1016B000062903D0016841F001010160002084E7A0
:1016C0002068C16841F40061CBE7206B8162206B28
:1016D0003946C662206B02632268206B4032FEF7F7
:1016E000ABFF08B1012070E72068C16841F4805168
:1016F000B7E70000CB1C0008291D0008611D000889
:10170000002C01400034014000040040000800406B
:10171000000C004070B5044600680D0006D0042D92
:101720000AD0082D3DD00C2D0DD140E0C16821F428
:101730000071C160606A04E0C16821F48061C16029
:10174000A06AFEF77FFD00222946206800F0B0FA6B
:101750001E4B41F2111120688A10984202D01C4B96
:10176000984209D1036A0B4206D1036A134203D19E
:10177000436C23F4004343642068036A0B4206D1A0
:10178000016A114203D1016821F0010101600120C9
:101790009DB1042D14D0082D15D084F841000020EF
:1017A00070BDC16821F40061C160E06AC9E7C16829
:1017B00021F48051C160206BC3E784F83E00EEE75E
:1017C00084F83F00EBE784F84000E8E7002C014094
:1017D0000034014070B51148114B00F10802C18876
:1017E000491C8CB2C48081881E6832F81150B563E0
:1017F0001E6832F81150F5631B6832F811201A6424
:101800000288944208D9491C89B281804388002209
:10181000994200D38280C28070BD00001000002079
:10182000BC030020704770B5040004D094F83D005C
:10183000002510B106E0012070BD84F83C50204620
:1018400000F022F8242084F83D002068C16821F4CB
:101850000051C160204600F0A5FB2068016921F419
:10186000904101612068416921F02A0141612068AD
:10187000C16841F40051C1602564202084F83D0016
:1018800084F83E00002070BD30B585B0002400947F
:1018900001940294039400681449884224D11448A6
:1018A000C16941F40021C161C16901F400210491C1
:1018B000816941F01001816180690E4D00F01000D6
:1018C00004904FF480600090022001900320039068
:1018D00069462846FEF7FAFEE814CDE90004694699
:1018E00028460294FEF7F2FE05B030BD004C0040E1
:1018F00000100240001001402DE9F843044690F822
:101900003D001F4616460D4620284CD1C5B1BEB13C
:1019100094F83C00012846D0012084F83C004FF0A8
:101920000008C4F84080212084F83D00FEF7D0FF75
:10193000A6848146E684A068B0F5805F03D004E009
:101940000120BDE8F883206928B12E465FF000052C
:1019500084F83C800EE00026FAE78021204600F063
:101960007DFBA0B9AEB116F8010B21684860E08C90
:10197000401EE084E08C4B464FF0000200970028A8
:10198000EBD14FF04001204600F068FB30B103205E
:10199000D7E735F8020BC0F30800E6E7202084F80B
:1019A0003D000020CDE70220CBE7FEE70C210148F7
:1019B000FFF788BDBC03002008210148FFF782BD66
:1019C000BC03002004210148FFF77CBDBC030020BC
:1019D000094808B5416941F00101416140690022AF
:1019E00000F00100009011461020FEF7DDFFBDE879
:1019F00008401020FEF7CABF0010024010B586B0A4
:101A0000002002901548816941F0040181618169DB
:101A100001F004010491816941F010018161816943
:101A200001F010010491816941F008018161806930
:101A30000B4C00F008000490202000900120019041
:101A40000320039069462046FEF740FE0022202135
:101A50002046FEF737FF06B010BD00000010024020
:101A6000000801400C4810B50A4901604FF4E1310B
:101A70004160002181600C22C160C0E904128161D3
:101A8000C161FFF7D0FE002803D0BDE81040FEF78B
:101A9000D7BB10BD004C004078030020FEE7FEE7F6
:101AA00070477047FEF71ABF30B58FB028216846DF
:101AB000FEF761FB14210AA8FEF75DFB0121080473
:101AC000CDE900100024029402250491CDE90750CD
:101AD0004FF4E01009906846FFF784F808B172B639
:101AE000FEE70F20CDE90A054FF48060CDE90C40F8
:101AF00002210AA80E94FEF789FF002801D072B6D1
:101B0000FEE70FB030BD704710B58EB000240794CB
:101B1000089409940A940B941C2168460C94FEF7CF
:101B20002AFB1C481A49C0E900145921C0E90241A6
:101B3000802104618161FFF74BFF1648FFF752FCDB
:101B400008B1FEF77DFB0B940BA912480C94FFF72C
:101B50000DFA6020CDE900040294002269460D4888
:101B60000494FFF7DCFB0C48816941F004018161BA
:101B7000806907A900F004000D9040200790022022
:101B8000089003200A900548FEF7A0FD0EB010BD96
:101B9000000400400404002000100240000801403E
:101BA0000148FFF708BB0000BC03002010B51C482B
:101BB0008EB01A49016081210024C0E9011440F26D
:101BC000E731C0E90314FFF70FFA4FF48050079094
:101BD00007A91348FFF782FA0B940BA910480C943D
:101BE000FFF7C4F97020CDE900040294042269468D
:101BF0000B480494FFF793FB082269460848FFF757
:101C00008EFB0C2269460648FFF789FB0448FFF764
:101C10008DF90348FFF72CFA0EB010BD0008004004
:101C2000BC030020F0B502681C4B1D4D1D4E1E4F1D
:101C30001E4C4FF0804C984209D0A04207D060451E
:101C400005D0A84203D0B04201D0B84204D122F05E
:101C5000700E4A6842EA0E02984209D0A04207D0AC
:101C6000604505D0A84203D0B04201D0B84203D1AC
:101C700022F44075CA682A434D6922F080022A4343
:101C800002608A68C2620A688262984201D0A042F9
:101C900001D10969016301214161F0BD002C0140BE
:101CA0000004004000080040000C004000340140E7
:101CB00010B501F01F030121046A99408C430462AE
:101CC000016A9A401143016210BD10B5446A0121B6
:101CD000626A824205D121778069F8B984F83E10A2
:101CE0001CE0A26A824206D1022222778069A8B94A
:101CF00084F83F1012E0E26A824206D10422227781
:101D0000806958B984F8401008E0226B824205D1FE
:101D100008222277806908B984F841102046FFF72D
:101D2000C1FB0020207710BD10B5446A616A814272
:101D300001D101200DE0A16A814201D1022008E019
:101D4000E16A814201D1042003E0216B814201D18B
:101D5000082020772046FFF7B3FB0020207710BD36
:101D600010B5446A0121626A824203D1217784F866
:101D70003E1019E0A26A824204D10220207784F842
:101D80003F1011E0E26A824204D10420207784F8F7
:101D9000401009E0226B824204D10820207784F8A9
:101DA000411001E084F83D102046FFF702FA0020C0
:101DB000207710BD10B5846842EA032224F47F44E2
:101DC0000A432243826010BD826822F070020A43F7
:101DD00042F0070181607047F0B5026A22F001020B
:101DE0000262036A42688469124E24F073050C682B
:101DF0002C4323F002058B682B430D4DA84201D0E4
:101E0000B04205D123F00807CB683B4323F004031D
:101E1000A84201D0B04205D14D6922F44072154369
:101E20008A692A4342608461496841630362F0BD64
:101E3000002C014000340140F0B5026A22F010028B
:101E40000262026A436884690D6824F4E64444EA45
:101E500005248D6822F0200242EA05120F4D104E33
:101E6000A84201D0B04206D1CF6822F0800242EAF7
:101E7000071222F04002A84201D0B04207D14D69BA
:101E800023F4406343EA85038D6943EA8503436095
:101E90008461496881630262F0BD0000002C01404A
:101EA00000340140F0B5026A22F480720262026AD4
:101EB0004368C46922F4007224F073050C68124E62
:101EC0002C438D6842EA05220E4DA84201D0B04253
:101ED00006D1CF6822F4006242EA072222F480622F
:101EE000A84201D0B04207D14D6923F4405343EAE0
:101EF00005138D6943EA05134360C4614968C163F2
:101F00000262F0BD002C01400034014030B5026A8D
:101F100022F480520262046A4268C3690D6823F4A5
:101F2000E64343EA05238D6824F4005444EA05346B
:101F3000084DA84202D0084DA84204D14D6922F4B0
:101F4000804242EA85124260C361496801640462CA
:101F500030BD0000002C01400034014010B5036A80
:101F6000046A24F001040462846924F0F00444EA61
:101F7000021423F00A020A438461026210BD10B504
:101F8000036A23F0100303628369046A23F4704335
:101F900043EA023224F0A00343EA011182610162A4
:101FA00010BD000070B5044600680169E26821F4C4
:101FB0004051114301612169A068084361690843E8
:101FC0002168CA6841F20C639A430243CA602068E0
:101FD0004169A26921F44071114341611E492068A1
:101FE000884202D1FEF7B8FD01E0FEF7A5FD00EB47
:101FF000C00101EB0012606864218000B2FBF0F3C5
:10200000B3FBF1F36FF018067343B2FBF0F5B2FBCC
:10201000F0F605EB8305322303EB0515B5FBF1F56F
:10202000B6FBF1F605F0F00505EB0615B2FBF0F690
:10203000B2FBF0F0B0FBF1F06FF01802504306EB8A
:10204000800003EB0010B0FBF1F0216800F00F00FE
:102050002844886070BD0000003801402DE9F0413F
:10206000984617460E460446069D1DE0681C1BD088
:102070002DB1FEF72DFCA0EB0800A84214D9206872
:10208000C16821F4D071C1602068416921F001016B
:102090004161202084F83D0084F83E00002084F84F
:1020A0003C000320BDE8F0812068006836EA0000AB
:1020B00004D00020B842D9D00020F3E70120F9E78E
:1020C000FEE7000070B50546012220211B48FEF7FF
:1020D000F9FB29461A4800F039F8194E0024F61C7D
:1020E00004EB44003044294600F030F84620FEF767
:1020F000DBFA641CE4B2352CF2D3114E0024A23674
:1021000004EB44003044294600F020F84620FEF756
:10211000CBFA641CE4B2352CF2D30A4E002400BF83
:1021200004EB44003044294600F010F84620FEF746
:10213000BBFA641CE4B2352CF2D370BD0008014038
:10214000F400002035020020FFF7DEBCF0B401EB04
:1021500041022B2303EBC20293B20022244C31E054
:1021600000254678AE40360601D5322600E0192615
:1021700024F81260521C6D1CEDB292B2082DF0D3FF
:1021800000250678AE40360601D5322600E0192635
:1021900024F81260521C6D1CEDB292B2082DF0D3DF
:1021A00000258678AE40360601D5322600E0192695
:1021B00024F81260521C6D1CEDB292B2082DF0D3BF
:1021C000491E89B20029CBD1192024F81200521CD3
:1021D00090B203E024F81010401C80B29842F9D36A
:1021E000F0BC034A0021A2F18C00FFF7C5B9000042
:1021F00090040020014A024900F023B8652200083B
:10220000740300200907090E002804DB00F1E02018
:1022100080F80014704700F00F0000F1E02080F813
:10222000141D704702E008C8121F08C1002AFAD125
:1022300070477047002001E001C1121F002AFBD146
:1022400070472DE9F04116460F460446002503E08D
:102250003946B047641C6D1C20780028F8D1284608
:10226000BDE8F08113B54FF6FF73012269460248BD
:10227000FFF742FB00981CBD78030020FEF736FBF9
:10228000FFF712FCFFF7EEFBFFF7B8FBFFF78EFC42
:10229000FFF75AFFFFF78AFBFFF78EFBFFF792FB72
:1022A00003A0FFF7A7FF2F20FFF70CFFFBE70000BD
:1022B0002A2A20546573742066696E6973686564A0
:1022C000207375636365737366756C6C792E202A51
:1022D0002A200A0D0000000000000000000000009D
:1022E00001020304060708090000000001020304BC
:1022F000102300080000002078030000B00100084F
:102300004424000878030020580B00003422000801
:10231000320182101324F4120D526E5A01025A0235
:10232000021A03021A04021A050212061207120800
:102330001209120A1A0B30120F121112131216126E
:1023400019121C122012241229122F1235123D12BA
:1023500045124F1259126612741283129512AA1264
:10236000C112DB12FA38141C0143016F01A101DA1A
:10237000011B026502B902180385591E8503180363
:10238000B9121C1B02DA1E1A6F261C1C01FA321A23
:10239000C13A1A95421A744A1A59521A455A1A35AC
:1023A000621A296A1A20721A197A1A13821A0F8A63
:1023B0001A0B921A099A1A07A229A829B029B869F2
:1023C000C469D4612205220A220F22142219221E76
:1023D00022232228222D22322237223C2241224649
:1023E000224B22502255225A225F22642269226EF9
:1023F00022732278227D3A8206190C1912191819B3
:10240000031924192A19301936193C194219481987
:102410004E1954195A19601966196C1972197819DC
:102420007E1984198A19901996094DA03A7A06499D
:10243000030992A0227D3A82060948A01929099A27
:042440000341000054
:0400000508000131BD
:00000001FF
