:020000040800F2
:10000000000001204D3A0008793300087F330008D2
:10001000853300088B33000891330008000000008E
:1000200000000000000000000000000097330008FE
:10003000A533000800000000B3330008C1330008F6
:100040009D3A00089D3A00089D3A00089D3A000834
:100050009D3A00089D3A00089D3A00089D3A000824
:100060009D3A00089D3A00089D3A00089D3A000814
:100070009D3A00089D3A00089D3A00089D3A000804
:100080009D3A00089D3A00089D3A00089D3A0008F4
:100090009D3A00089D3A00089D3A00089D3A0008E4
:1000A0009D3A00089D3A00089D3A00089D3A0008D4
:1000B0009D3A000800000000000000009D3A000882
:1000C0009D3A00089D3A00089D3A00089D3A0008B4
:1000D0009D3A00089D3A00089D3A00089D3A0008A4
:1000E0009D3A00089D3A0008000000000000000052
:1000F0000000000000000000000000000000000000
:10010000000000009D3A0008000000009D3A000831
:1001100000000000000000009D3A00089D3A000821
:100120009D3A00089D3A00089D3A00089D3A000853
:100130009D3A0008000000000000000000000000E0
:100140009D3A00089D3A00089D3A00080000000012
:100150009D3A00089D3A00089D3A00089D3A000823
:100160009D3A00089D3A00089D3A000800000000F2
:100170009D3A00089D3A00080000000000000000C1
:0C0180009D3A00089D3A00089D3A0008D6
:1001900010B5054C237833B9044B13B10448AFF3C1
:1001A00000800123237010BDA80100200000000082
:1001B000148C000808B5034B1BB103490348AFF387
:1001C000008008BD00000000AC010020148C000875
:1001D00001F0FF01102A2BDB10F0070F08D010F8F8
:1001E000013B013A8B422DD010F0070F42B3F6D1FC
:1001F000F0B441EA012141EA014122F007047FF015
:1002000000070023F0E80256083C85EA010586EA6B
:10021000010685FA47F5A3FA87F586FA47F6A5FAA7
:1002200087F68EB9EED1F0BC01F0FF0102F00702B3
:1002300032B110F8013B013A83EA010313B1F8D15E
:100240000020704701387047002D06BF354603383F
:10025000073815F0010F07D1013015F4807F02BF78
:10026000013015F4C03F0130F0BC0138704700BFC9
:1002700053B94AB9002908BF00281CBF4FF0FF310D
:100280004FF0FF3000F06EB9ADF1080C6DE904CE0F
:1002900000F006F8DDF804E0DDE9022304B0704761
:1002A0002DE9F047089D04468C46002B40F08380E2
:1002B0008A42174647D9B2FA82F242B1C2F120000F
:1002C00024FA00F09140974040EA010C94404FEA34
:1002D0001748230CBCFBF8F61FFA87FE08FB16C173
:1002E00043EA014306FB0EF1994209D9FB1806F1D6
:1002F000FF3080F01981994240F21681023E3B4462
:100300005B1AA4B2B3FBF8F008FB103344EA0344D1
:1003100000FB0EFEA64509D93C1900F1FF3380F021
:100320000581A64540F2028102383C4440EA06407D
:10033000A4EB0E0400261DB1D4400023C5E9004300
:100340003146BDE8F08702B9FFDEB2FA82F2002A38
:1003500050D1CB1B4FEA174E1FFA87F80126B3FB8B
:10036000FEFC210C0EFB1C3341EA034108FB0CF39D
:100370008B4207D979180CF1FF3002D28B4200F280
:10038000E9808446C91AA3B2B1FBFEF00EFB10113E
:1003900043EA014408FB00F8A04507D93C1900F1E5
:1003A000FF3302D2A04500F2D9801846A4EB08041E
:1003B00040EA0C40BFE78B4209D9002D00F0B18024
:1003C0000026C5E9000130463146BDE8F087B3FAA2
:1003D00083F6002E4AD18B4202D3824200F2B880CB
:1003E000841A61EB030101208C46002DA8D0C5E9D9
:1003F000004CA5E7C2F1200320FA03F6974001FA6A
:1004000002F04FEA174ED9403043030CB1FBFEF621
:100410001FFA87F80EFB161143EA014306FB08F1A9
:10042000994204FA02F409D9FB1806F1FF3C80F066
:100430008D80994240F28A80023E3B445B1A81B231
:10044000B3FBFEF00EFB103341EA034100FB08F35F
:100450008B4207D9791800F1FF3C73D28B4271D9D6
:1004600002383944CB1A40EA064678E7C6F1200C38
:1004700003FA06F422FA0CF31C4320FA0CF701FAF3
:1004800006F34FEA144E21FA0CF11F433B0CB1FB6B
:10049000FEF91FFA84F80EFB191143EA014109FB2A
:1004A00008FA8A4502FA06F200FA06F308D961183A
:1004B00009F1FF3048D28A4546D9A9F10209214401
:1004C000A1EB0A01BFB2B1FBFEF00EFB101147EA2F
:1004D000014700FB08F8B84507D9E71900F1FF31DB
:1004E0002ED2B8452CD90238274440EA0940A7EB60
:1004F0000807A0FB02894F45C64649461AD317D0C4
:100500005DB1B3EB0E0267EB010707FA0CFCF2409A
:100510004CEA0202F740C5E9002700263146BDE853
:10052000F0872E4628460BE70646E9E61846FDE624
:100530004345E5D2B8EB020E69EB04010138DFE771
:100540000846D2E760468DE78146B9E7664675E71B
:1005500030464AE7ACF1020C394413E702383C4418
:1005600024E700BF704700BF80B582B000AF002312
:10057000FB71032000F042F9002000F00DF8034663
:10058000002B02D00123FB7101E002F0D1FEFB79C8
:1005900018460837BD4680BD80B584B000AF78608E
:1005A0000023FB73174B1B78002B23D0164B1A68C4
:1005B000144B1B7819464FF47A73B3FBF1F3B2FB7B
:1005C000F3F3184600F041F90346002B0FD17B6886
:1005D0000F2B09D8002279684FF0FF3000F019F98D
:1005E0000A4A7B68136007E00123FB7304E00123E0
:1005F000FB7301E00123FB73FB7B18461037BD46FC
:1006000080BD00BF04000020080000200000002082
:1006100080B400AF064B1B781A46064B1B68134488
:10062000044A136000BFBD465DF8047B704700BFFD
:10063000040000206C02002080B400AF034B1B6854
:100640001846BD465DF8047B704700BF6C02002071
:1006500080B584B000AF7860FFF7EEFFB8607B68CC
:10066000FB60FB68B3F1FF3F05D00A4B1B781A46CD
:10067000FB681344FB6000BFFFF7DEFF0246BB6868
:10068000D31AFA689A42F7D800BF00BF1037BD46A8
:1006900080BD00BF0400002080B485B000AF78604A
:1006A0007B6803F00703FB600C4BDB68BB60BA6838
:1006B0004FF6FF031340BB60FB681A02BB6813438D
:1006C00043F0BF6343F40033BB60044ABB68D360AC
:1006D00000BF1437BD465DF8047B704700ED00E0B5
:1006E00080B400AF044BDB681B0A03F00703184615
:1006F000BD465DF8047B704700ED00E080B483B038
:1007000000AF03463960FB7197F90730002B0ADB15
:100710003B68DAB20C4997F907301201D2B20B44A8
:1007200083F800230AE03B68DAB20849FB7903F05A
:100730000F03043B1201D2B20B441A7600BF0C37F0
:10074000BD465DF8047B704700E100E000ED00E08D
:1007500080B489B000AFF860B9607A60FB6803F0DC
:100760000703FB61FB69C3F10703042B28BF0423C4
:10077000BB61FB690433062B02D9FB69033B00E034
:1007800000237B614FF0FF32BB6902FA03F3DA43C7
:10079000BB681A407B699A404FF0FF317B6901FAD0
:1007A00003F3D9437B680B40134318462437BD46F7
:1007B0005DF8047B7047000080B582B000AF7860C0
:1007C0007B68013BB3F1807F01D301230FE00A4A2C
:1007D0007B68013B53600F214FF0FF30FFF78EFF26
:1007E000054B00229A60044B07221A60002318462A
:1007F0000837BD4680BD00BF10E000E080B582B084
:1008000000AF78607868FFF747FF00BF0837BD4644
:1008100080BD80B586B000AF0346B9607A60FB73D7
:1008200000237B61FFF75CFF78617A68B9687869BB
:10083000FFF78EFF024697F90F3011461846FFF773
:100840005DFF00BF1837BD4680BD80B582B000AFE8
:1008500078607868FFF7B0FF034618460837BD4652
:1008600080BD000080B487B000AF7860396000239D
:100870007B6154E13B681A6801217B6901FA03F34B
:100880001340FB60FB68002B00F046813B685B680F
:10089000012B0BD03B685B68022B07D03B685B6881
:1008A000112B03D03B685B68122B30D17B689B68AF
:1008B0003B617B695B00032202FA03F3DB433A6985
:1008C00013403B613B68DA687B695B0002FA03F323
:1008D0003A6913433B617B683A699A607B685B685D
:1008E0003B6101227B6902FA03F3DB433A6913405F
:1008F0003B613B685B681B0903F001027B6902FAFC
:1009000003F33A6913433B617B683A695A607B6839
:10091000DB683B617B695B00032202FA03F3DB4384
:100920003A6913403B613B689A687B695B0002FA55
:1009300003F33A6913433B617B683A69DA603B68C9
:100940005B68022B03D03B685B68122B23D17B6969
:10095000DA087B68083253F822303B617B6903F088
:1009600007039B000F2202FA03F3DB433A691340AB
:100970003B613B681A697B6903F007039B0002FA3D
:1009800003F33A6913433B617B69DA087B680832F9
:10099000396943F822107B681B683B617B695B0007
:1009A000032202FA03F3DB433A6913403B613B68DD
:1009B0005B6803F003027B695B0002FA03F33A69A8
:1009C00013433B617B683A691A603B685B6803F0DC
:1009D0008053002B00F0A080584B1B6E574A43F009
:1009E00001031366554B1B6E03F00103BB60BB682C
:1009F000534A7B699B08023352F823303B617B6981
:100A000003F003039B000F2202FA03F3DB433A696E
:100A100013403B617B68B3F1904F19D07B68494A22
:100A2000934213D07B68484A93420DD07B68474A73
:100A3000934207D07B68464A934201D1042308E0E1
:100A4000072306E0032304E0022302E0012300E081
:100A500000237A6902F00302920093403A6913433B
:100A60003B6137497B699B0802333A6941F823208F
:100A7000384B1B683B61FB68DB433A6913403B61C1
:100A80003B685B6803F48033002B03D03A69FB6852
:100A900013433B612F4A3B6913602E4B5B683B61FC
:100AA000FB68DB433A6913403B613B685B6803F4D6
:100AB0000033002B03D03A69FB6813433B61254A9E
:100AC0003B695360234B9B683B61FB68DB433A699E
:100AD00013403B613B685B6803F48013002B03D039
:100AE0003A69FB6813433B611A4A3B699360194BAF
:100AF000DB683B61FB68DB433A6913403B613B6861
:100B00005B6803F40013002B03D03A69FB681343BE
:100B10003B61104A3B69D3607B6901337B613B6871
:100B20001A687B6922FA03F3002B7FF4A3AE00BF9F
:100B300000BF1C37BD465DF8047B704700100240C3
:100B4000000001400004004800080048000C004874
:100B5000001000480004014080B485B000AF786008
:100B60000B467B807B681A697B881340002B02D080
:100B70000123FB7301E00023FB73FB7B1846143752
:100B8000BD465DF8047B704780B483B000AF7860E9
:100B90000B467B8013467B707B78002B03D07A88D2
:100BA0007B689A6102E07A887B689A6200BF0C37A2
:100BB000BD465DF8047B704780B400AF044B1B68F2
:100BC00003F4C0631846BD465DF8047B704700BF60
:100BD0000070004080B485B000AF78607B68B3F5EA
:100BE000007F30D1234B1B6803F4C063B3F5007F53
:100BF00038D0204B1B6823F4C0631E4A43F40073B3
:100C000013601D4B1B68322202FB03F31B4AA2FB3D
:100C100003239B0C0133FB6002E0FB68013BFB609C
:100C2000144B5B6903F48063B3F5806F02D1FB68FA
:100C3000002BF2D10F4B5B6903F48063B3F5806F37
:100C400010D103230FE00B4B1B6803F4C063B3F513
:100C5000806F07D0074B1B6823F4C063054A43F439
:100C600080631360002318461437BD465DF8047B8B
:100C7000704700BF007000400800002083DE1B4367
:100C800080B588B000AF78607B68002B02D101236B
:100C900000F011BCA04B9B6803F00C03BB619E4BA2
:100CA000DB6803F003037B617B681B6803F01003C0
:100CB000002B00F0E480BB69002B07D0BB690C2B34
:100CC00040F08B807B69012B40F08780924B1B6842
:100CD00003F00203002B05D07B689B69002B01D138
:100CE0000123E8E37B681A6A8B4B1B6803F0080357
:100CF000002B04D0884B1B6803F0F00305E0864B03
:100D0000D3F894301B0903F0F003934223D27B689D
:100D10001B6A184600F07AFD0346002B01D0012320
:100D2000C9E37D4B1B687C4A43F0080313607A4B90
:100D30001B6823F0F0027B681B6A774913430B6042
:100D4000754B5B6823F47F427B68DB691B02724949
:100D500013434B6025E0704B1B686F4A43F0080358
:100D600013606D4B1B6823F0F0027B681B6A6A49B5
:100D700013430B60684B5B6823F47F427B68DB693D
:100D80001B02654913434B60BB69002B09D17B688B
:100D90001B6A184600F03AFD0346002B01D00123E0
:100DA00089E300F06FFC02465B4B9B681B0903F074
:100DB0000F035A49CB5C03F01F0322FA03F3584A8E
:100DC0001360584B1B681846FFF7E6FB0346FB739E
:100DD000FB7B002B52D0FB7B6DE37B689B69002B78
:100DE00032D04D4B1B684C4A43F001031360FFF7B0
:100DF00023FC386108E0FFF71FFC02463B69D31A69
:100E0000022B01D9032356E3434B1B6803F0020373
:100E1000002BF0D0404B1B683F4A43F0080313609F
:100E20003D4B1B6823F0F0027B681B6A3A49134371
:100E30000B60394B5B6823F47F427B68DB691B02E4
:100E4000354913434B601AE0334B1B68324A23F099
:100E500001031360FFF7F0FB386108E0FFF7ECFBDC
:100E600002463B69D31A022B01D9032323E32A4B01
:100E70001B6803F00203002BF0D100E000BF7B6889
:100E80001B6803F00103002B73D0BB69082B05D04E
:100E9000BB690C2B0ED17B69032B0BD11E4B1B683E
:100EA00003F40033002B63D07B685B68002B5FD1B9
:100EB000012300E37B685B68B3F5803F06D1164BE6
:100EC0001B68154A43F4803313601DE07B685B6840
:100ED000B3F5A02F0CD1104B1B680F4A43F48023AD
:100EE00013600D4B1B680C4A43F4803313600BE016
:100EF000094B1B68084A23F480331360064B1B68B8
:100F0000054A23F4802313607B685B68002B1BD0A9
:100F1000FFF792FB386110E00010024080A3000848
:100F20000800002000000020FFF786FB02463B6916
:100F3000D31A642B01D90323BDE2AF4B1B6803F422
:100F40000033002BF0D014E0FFF776FB386108E0A7
:100F5000FFF772FB02463B69D31A642B01D90323C6
:100F6000A9E2A54B1B6803F40033002BF0D100E08D
:100F700000BF7B681B6803F00203002B60D0BB69D5
:100F8000042B05D0BB690C2B19D17B69022B16D120
:100F9000994B1B6803F48063002B05D07B68DB68EA
:100FA000002B01D1012386E2934B5B6823F0F852BA
:100FB0007B681B691B06904913434B6040E07B68CC
:100FC000DB68002B23D08C4B1B688B4A43F4807367
:100FD0001360FFF731FB386108E0FFF72DFB024695
:100FE0003B69D31A022B01D9032364E2824B1B68AD
:100FF00003F48063002BF0D07F4B5B6823F0F85242
:101000007B681B691B067C4913434B6018E07A4BD5
:101010001B68794A23F480731360FFF70DFB386176
:1010200008E0FFF709FB02463B69D31A022B01D9FE
:10103000032340E2704B1B6803F48063002BF0D164
:101040007B681B6803F00803002B3CD07B685B695E
:10105000002B1CD0684BD3F89430674A43F001034F
:10106000C2F89430FFF7E8FA386108E0FFF7E4FAD5
:1010700002463B69D31A022B01D903231BE25E4BC4
:10108000D3F8943003F00203002BEFD01BE05A4B4F
:10109000D3F89430584A23F00103C2F89430FFF794
:1010A000CBFA386108E0FFF7C7FA02463B69D31A6A
:1010B000022B01D90323FEE14F4BD3F8943003F008
:1010C0000203002BEFD17B681B6803F00403002BA5
:1010D00000F0A6800023FB77474B9B6D03F0805305
:1010E000002B0DD1444B9B6D434A43F080539365D5
:1010F000414B9B6D03F08053BB60BB680123FB77C2
:101100003E4B1B6803F48073002B18D13B4B1B68CC
:101110003A4A43F480731360FFF78EFA386108E0AF
:10112000FFF78AFA02463B69D31A022B01D903233F
:10113000C1E1324B1B6803F48073002BF0D07B6855
:101140009B68012B08D12C4BD3F890302A4A43F0EE
:101150000103C2F8903024E07B689B68052B10D116
:10116000254BD3F89030244A43F00403C2F8903062
:10117000214BD3F89030204A43F00103C2F890305D
:101180000FE01D4BD3F890301B4A23F00103C2F847
:101190009030194BD3F89030174A23F00403C2F86B
:1011A00090307B689B68002B16D0FFF745FA3861BA
:1011B0000AE0FFF741FA02463B69D31A41F288324E
:1011C000934201D9032376E10B4BD3F8903003F01F
:1011D0000203002BEDD01AE0FFF72EFA38610FE082
:1011E000FFF72AFA02463B69D31A41F2883293424A
:1011F00006D903235FE100BF0010024000700040E9
:10120000AA4BD3F8903003F00203002BE8D1FB7F08
:10121000012B05D1A54B9B6DA44A23F08053936508
:101220007B681B6803F02003002B3CD07B685B6A63
:10123000002B1CD09D4BD3F898309C4A43F00103FF
:10124000C2F89830FFF7F8F9386108E0FFF7F4F9D1
:1012500002463B69D31A022B01D903232BE1934B9E
:10126000D3F8983003F00203002BEFD01BE08F4B34
:10127000D3F898308D4A23F00103C2F89830FFF775
:10128000DBF9386108E0FFF7D7F902463B69D31A6A
:10129000022B01D903230EE1844BD3F8983003F0DD
:1012A0000203002BEFD17B689B6A002B00F00281C8
:1012B0007B689B6A022B40F0C5807C4BDB687B61BE
:1012C0007B6903F003027B68DB6A9A422CD17B695D
:1012D00003F070027B681B6B013B1B019A4223D118
:1012E0007B6903F4FE427B685B6B1B029A421BD155
:1012F0007B6903F078427B689B6BDB069A4213D1D3
:101300007B6903F4C0027B68DB6B5B08013B5B0518
:101310009A4209D17B6903F0C0627B681B6C5B0851
:10132000013B5B069A4267D0BB690C2B62D05F4BD6
:101330001B6803F08063002B01D00123BBE05B4BF3
:101340001B685A4A23F080731360FFF775F9386100
:1013500008E0FFF771F902463B69D31A022B01D965
:101360000323A8E0514B1B6803F00073002BF0D15E
:101370004E4BDA684E4B13407A68D16A7A68126B2A
:10138000013A120111437A68526B120211437A68D2
:10139000D26B5208013A520511437A68126C520816
:1013A000013A520611437A68926BD2060A433F49CA
:1013B0001343CB603D4B1B683C4A43F08073136082
:1013C0003A4BDB68394A43F08073D360FFF734F956
:1013D000386108E0FFF730F902463B69D31A022B67
:1013E00001D9032367E0314B1B6803F00073002B26
:1013F000F0D05FE001235EE02C4B1B6803F000732C
:10140000002B57D1294B1B68284A43F08073136087
:10141000264BDB68254A43F08073D360FFF70CF955
:10142000386108E0FFF708F902463B69D31A022B3E
:1014300001D903233FE01D4B1B6803F00073002B11
:10144000F0D037E0BB690C2B2DD0184B1B68174A26
:1014500023F080731360154B1B6803F00063002BAF
:1014600005D1124BDB68114A23F00303D3600F4B05
:10147000DB680E4A23F0887323F48033D360FFF7D0
:10148000DBF8386108E0FFF7D7F802463B69D31A6A
:10149000022B01D903230EE0044B1B6803F00073F9
:1014A000002BF0D106E0012305E000BF0010024050
:1014B0008C809D01002318462037BD4680BD00BFAB
:1014C00080B584B000AF786039607B68002B01D1B3
:1014D0000123C8E0664B1B6803F007033A689A4291
:1014E00010D9634B1B6823F0070261493B68134323
:1014F0000B605F4B1B6803F007033A689A4201D008
:101500000123B0E07B681B6803F00103002B4CD083
:101510007B685B68032B07D1564B1B6803F0007395
:10152000002B21D101239EE07B685B68022B07D151
:10153000504B1B6803F40033002B15D1012392E0BC
:101540007B685B68002B07D14A4B1B6803F00203E2
:10155000002B09D1012386E0464B1B6803F480630E
:10156000002B01D101237EE0424B9B6823F0030254
:101570007B685B683F4913438B60FFF75DF8F86059
:101580000AE0FFF759F80246FB68D31A41F28832A5
:10159000934201D9032366E0364B9B6803F00C02AB
:1015A0007B685B689B009A42EBD17B681B6803F009
:1015B0000203002B08D02F4B9B6823F0F0027B68BE
:1015C0009B682C4913438B60294B1B6803F007036E
:1015D0003A689A4210D2264B1B6823F0070224492E
:1015E0003B6813430B60224B1B6803F007033A6808
:1015F0009A4201D0012336E07B681B6803F00403A4
:10160000002B08D01B4B9B6823F4E0627B68DB68EF
:10161000184913438B607B681B6803F00803002B99
:1016200009D0144B9B6823F460527B681B69DB0074
:10163000104913438B6000F025F802460D4B9B6860
:101640001B0903F00F030C49CB5C03F01F0322FAC4
:1016500003F30A4A13600A4B1B681846FEF79CFF07
:101660000346FB72FB7A18461037BD4680BD00BFAB
:10167000002002400010024080A300080800002063
:101680000000002080B489B000AF0023FB6100237C
:10169000BB613E4B9B6803F00C033B613B4BDB683B
:1016A00003F00303FB603B69002B05D03B690C2B67
:1016B00021D1FB68012B1ED1344B1B6803F00803BA
:1016C000002B07D1314BD3F894301B0A03F00F03E2
:1016D000FB6105E02D4B1B681B0903F00F03FB6149
:1016E0002B4AFB6952F82330FB613B69002B0DD17B
:1016F000FB69BB610AE03B69042B02D1254BBB614E
:1017000004E03B69082B01D1234BBB613B690C2BE7
:1017100034D11E4BDB6803F00303BB60BB68022BB4
:1017200003D0BB68032B03D005E01A4B7B6105E0B7
:10173000194B7B6102E0FB697B6100BF134BDB68E7
:101740001B0903F0070301337B60104BDB681B0AA6
:1017500003F07F037A6902FB03F27B68B2FBF3F3C9
:101760007B610A4BDB685B0E03F0030301335B0014
:101770003B607A693B68B2FBF3F3BB61BB69184617
:101780002437BD465DF8047B704700BF001002405F
:1017900098A300080024F40000127A0080B400AF7F
:1017A000034B1B681846BD465DF8047B704700BFBD
:1017B0000800002080B500AFFFF7F0FF0246064B9F
:1017C0009B681B0A03F007030449CB5C03F01F036B
:1017D00022FA03F3184680BD0010024090A30008CF
:1017E00080B500AFFFF7DAFF0246064B9B68DB0AC5
:1017F00003F007030449CB5C03F01F0322FA03F351
:10180000184680BD0010024090A3000880B586B045
:1018100000AF786000233B612A4B9B6D03F080533F
:10182000002B03D0FFF7C8F9786114E0254B9B6DBE
:10183000244A43F080539365224B9B6D03F0805301
:10184000FB60FB68FFF7B8F978611E4B9B6D1D4A82
:1018500023F0805393657B69B3F5007F0BD17B68E0
:10186000802B19D97B68A02B02D902233B6113E09E
:1018700001233B6110E07B68802B02D903233B618D
:101880000AE07B68802B02D102233B6104E07B6885
:10189000702B01D101233B610B4B1B6823F0070226
:1018A00009493B6913430B60074B1B6803F00703AF
:1018B0003A699A4201D0012300E000231846183704
:1018C000BD4680BD001002400020024080B586B0B9
:1018D00000AF78600023FB740023BB747B681B6837
:1018E00003F40063002B31D07B685B6CB3F5400FD1
:1018F0001AD0B3F5400F14D8002B09D0B3F5000F60
:101900000FD15D4BDB685C4A43F48033D3600CE05D
:101910007B6804330021184600F0F0F90346FB749D
:1019200003E00123FB7400E000BFFB7C002B0BD124
:10193000514BD3F8883023F440027B685B6C4E49EE
:101940001343C1F8883001E0FB7CBB747B681B68E3
:1019500003F40033002B00F09E8000237B74464B81
:101960009B6D03F08053002B01D1012300E0002385
:10197000002B0DD0404B9B6D3F4A43F08053936545
:101980003D4B9B6D03F08053BB60BB6801237B74B0
:101990003A4B1B68394A43F480731360FEF74CFEE0
:1019A000F86009E0FEF748FE0246FB68D31A022BF6
:1019B00002D90323FB7405E0304B1B6803F48073EA
:1019C000002BEFD0FB7C002B5AD12B4BD3F890305F
:1019D00003F440737B617B69002B1ED07B689B6D99
:1019E0007A699A4219D0244BD3F8903023F440738B
:1019F0007B61214BD3F890301F4A43F48033C2F807
:101A000090301D4BD3F890301B4A23F48033C2F83A
:101A10009030194A7B69C2F890307B6903F001036A
:101A2000002B16D0FEF708FEF8600BE0FEF704FE70
:101A30000246FB68D31A41F28832934202D903234B
:101A4000FB7406E00C4BD3F8903003F00203002B3C
:101A5000ECD0FB7C002B0BD1074BD3F8903023F458
:101A600040727B689B6D04491343C1F8903009E0D4
:101A7000FB7CBB7406E000BF001002400070004019
:101A8000FB7CBB747B7C012B05D19B4B9B6D9A4AE5
:101A900023F0805393657B681B6803F00103002BE0
:101AA0000AD0954BD3F8883023F003027B681B6A79
:101AB00091491343C1F888307B681B6803F0020327
:101AC000002B0AD08C4BD3F8883023F00C027B68B3
:101AD0005B6A89491343C1F888307B681B6803F04F
:101AE0000403002B0AD0844BD3F8883023F0300253
:101AF0007B689B6A80491343C1F888307B681B6808
:101B000003F02003002B0AD07B4BD3F8883023F45A
:101B100040627B68DB6A78491343C1F888307B6890
:101B20001B6803F40073002B0AD0734BD3F8883082
:101B300023F440227B68DB6B6F491343C1F8883084
:101B40007B681B6803F48063002B0AD06A4BD3F8D0
:101B5000883023F440127B681B6C67491343C1F83B
:101B600088307B681B6803F04003002B0AD0624B6F
:101B7000D3F8883023F440527B681B6B5E491343D3
:101B8000C1F888307B681B6803F08003002B0AD003
:101B9000594BD3F8883023F440427B685B6B56493D
:101BA0001343C1F888307B681B6803F48073002BF3
:101BB0000AD0514BD3F8883023F440327B689B6BBA
:101BC0004D491343C1F888307B681B6803F4002338
:101BD000002B28D0484BD3F8883023F040627B6834
:101BE0009B6C45491343C1F888307B689B6CB3F10B
:101BF000006F06D1404BDB683F4A43F48013D3604B
:101C000011E07B689B6CB3F1806F0CD17B6804336F
:101C10000121184600F072F80346FB74FB7C002B90
:101C200001D0FB7CBB747B681B6803F48023002B12
:101C300028D0314BD3F8883023F040627B68DB6CCE
:101C40002D491343C1F888307B68DB6CB3F1006F1A
:101C500006D1294BDB68284A43F48013D36011E096
:101C60007B68DB6CB3F1806F0CD17B68043301219E
:101C7000184600F043F80346FB74FB7C002B01D0B0
:101C8000FB7CBB747B681B6803F48043002B1CD077
:101C9000194BD3F8883023F040527B681B6D1649EE
:101CA0001343C1F888307B681B6DB3F1805F0CD1A2
:101CB0007B6804330221184600F020F80346FB74C9
:101CC000FB7C002B01D0FB7CBB747B681B6803F49E
:101CD0000043002B0AD0084BD3F8883023F0804211
:101CE0007B685B6D04491343C1F88830BB7C1846A0
:101CF0001837BD4680BD00BF0010024080B584B0DB
:101D000000AF786039600023FB73744BDB6803F02D
:101D10000303002B18D0714BDB6803F003027B68D0
:101D20001B689A420DD17B681B68002B09D06B4B56
:101D3000DB681B0903F007035A1C7B685B689A4247
:101D400047D00123FB7344E07B681B68032B18D04A
:101D5000032B25D8012B02D0022B09D020E05F4BAA
:101D60001B6803F00203002B1DD10123FB731AE053
:101D70005A4B1B6803F48063002B16D10123FB73BD
:101D800013E0564B1B6803F40033002B0FD1534B69
:101D90001B6803F48023002B09D10123FB7306E0A9
:101DA0000123FB7304E000BF02E000BF00E000BFBE
:101DB000FB7B002B0DD1494BDB6823F073027B6862
:101DC00019687B685B68013B1B010B434349134364
:101DD000CB60FB7B002B7CD1404B1B683F4A23F040
:101DE00080631360FEF728FCB86009E0FEF724FC6E
:101DF0000246BB68D31A022B02D90323FB7305E00A
:101E0000364B1B6803F00063002BEFD1FB7B002BEC
:101E10005FD13B68002B10D1304B1B6923F0784316
:101E200023F4FE437A68926811027A68D268D20677
:101E30000A432A4913430B6127E03B68012B12D167
:101E4000264B1B6923F4C00323F4FE437A6892688F
:101E500011027A6812695208013A52050A431F4971
:101E600013430B6111E01D4B1B6923F0C06323F486
:101E7000FE437A68926811027A6852695208013A00
:101E800052060A43154913430B61144B1B68134A4E
:101E900043F080631360FEF7CFFBB86009E0FEF704
:101EA000CBFB0246BB68D31A022B02D90323FB7378
:101EB00005E00A4B1B6803F00063002BEFD0FB7BAF
:101EC000002B06D1054B1A697B689B6903491343B4
:101ED0000B61FB7B18461037BD4680BD00100240E9
:101EE00080B584B000AF78607B68002B01D10123FE
:101EF00095E07B685B6A002B08D17B685B68B3F573
:101F0000827F09D07B680022DA6105E07B680022CD
:101F10001A617B6800225A617B6800229A627B68A2
:101F200093F85D30DBB2002B06D17B68002283F88A
:101F30005C20786801F0B8F97B68022283F85D20A4
:101F40007B681B681A687B681B6822F040021A6075
:101F50007B68DB68B3F5E06F02D90023FB6002E029
:101F60004FF48053FB607B68DB68B3F5706F07D07C
:101F70007B68DB68B3F5E06F02D07B6800229A6271
:101F80007B685B6803F482727B689B6803F404439C
:101F90001A437B681B6903F002031A437B685B6981
:101FA00003F001031A437B689B6903F400731A432F
:101FB0007B68DB6903F038031A437B681B6A03F014
:101FC000800342EA03017B689B6A03F400527B684A
:101FD0001B680A431A607B689B691B0C03F00402B0
:101FE0007B685B6A03F010031A437B685B6B03F04A
:101FF00008031A437B68DB6803F4706342EA030159
:10200000FB6803F480527B681B680A435A607B6854
:1020100000221A667B68012283F85D20002318469F
:102020001037BD4680BD80B58AB000AFF860B9609A
:102030007A607B8001237B62002387F82330FB6872
:1020400093F85C30012B01D10223FBE1FB680122F4
:1020500083F85C20FEF7F0FAF861FB6893F85D30D6
:10206000FB76FB685B687B617B887B827B883B823D
:10207000FB7E012B0ED07B69B3F5827F06D1FB6816
:102080009B68002B02D1FB7E042B03D0022387F830
:102090002330CDE1BB68002B05D07B68002B02D03C
:1020A0007B88002B03D1012387F82330C0E1FB6834
:1020B00093F85D30DBB2042B03D0FB68052283F874
:1020C0005D20FB6800221A66FB687A681A64FB6868
:1020D0007A88A3F84620FB687A88A3F84420FB6836
:1020E000BA689A63FB687A88DA87FB687A889A8785
:1020F000FB680022DA64FB6800221A65FB68DB6873
:10210000B3F5E06F02D83B8A012B08D9FB681B6846
:102110005A68FB681B6822F480525A6007E0FB682B
:102120001B685A68FB681B6842F480525A60FB685F
:102130001B681B6803F04003402B07D0FB681B683B
:102140001A68FB681B6842F040021A60FB68DB6893
:10215000B3F5E06F7CD9FB685B68002B02D07B8A0B
:10216000012B69D1FB689B6B1A88FB681B68DA60DE
:10217000FB689B6B9A1CFB689A63FB68DB8F9BB2C6
:10218000013B9AB2FB68DA8756E0FB681B689B68E4
:1021900003F00203022B1BD1FB68DB8F9BB2002BE9
:1021A00016D07B6A012B13D1FB689B6B1A88FB68E6
:1021B0001B68DA60FB689B6B9A1CFB689A63FB6880
:1021C000DB8F9BB2013B9AB2FB68DA8700237B620C
:1021D000FB681B689B6803F00103012B1CD1FB68A3
:1021E000B3F846309BB2002B16D0FB681B68DA6848
:1021F000FB681B6C92B21A80FB681B6C9A1CFB6814
:102200001A64FB68B3F846309BB2013B9AB2FB6894
:10221000A3F8462001237B62FEF70EFA0246FB6913
:10222000D31A3A6B9A4207D83B6BB3F1FF3F03D006
:10223000032387F82330FBE0FB68DB8F9BB2002B86
:10224000A3D1FB68B3F846309BB2002B9DD1DFE0F1
:10225000FB685B68002B03D07B8A012B40F0CB80AE
:10226000FB68DB8F9BB2012B12D9FB689B6B1A8832
:10227000FB681B68DA60FB689B6B9A1CFB689A63BF
:10228000FB68DB8F9BB2023B9AB2FB68DA87B2E055
:10229000FB689A6BFB681B680C3312781A70FB683A
:1022A0009B6B5A1CFB689A63FB68DB8F9BB2013BFC
:1022B0009AB2FB68DA879EE0FB681B689B6803F0B4
:1022C0000203022B34D1FB68DB8F9BB2002B2FD093
:1022D0007B6A012B2CD1FB68DB8F9BB2012B12D9BF
:1022E000FB689B6B1A88FB681B68DA60FB689B6B5A
:1022F0009A1CFB689A63FB68DB8F9BB2023B9AB225
:10230000FB68DA8712E0FB689A6BFB681B680C338A
:1023100012781A70FB689B6B5A1CFB689A63FB6807
:10232000DB8F9BB2013B9AB2FB68DA8700237B62AA
:10233000FB681B689B6803F00103012B48D1FB6815
:10234000B3F846309BB2002B42D0FB68B3F846305E
:102350009BB2012B23D9FB681B68DA68FB681B6CF6
:1023600092B21A80FB681B6C9A1CFB681A64FB68AB
:10237000B3F846309BB2023B9AB2FB68A3F8462002
:10238000FB68B3F846309BB2012B1FD8FB681B6873
:102390005A68FB681B6842F480525A6016E0FB687A
:1023A0001B6803F10C02FB681B6C1278D2B21A7026
:1023B000FB681B6C5A1CFB681A64FB68B3F8463058
:1023C0009BB2013B9AB2FB68A3F8462001237B62D3
:1023D000FEF732F90246FB69D31A3A6B9A4203D8E8
:1023E0003B6BB3F1FF3F02D13B6B002B03D10323C7
:1023F00087F823301CE0FB68DB8F9BB2002B7FF457
:102400005BAFFB68B3F846309BB2002B7FF454AF50
:10241000FA69396BF86800F033F90346002B06D0EF
:10242000012387F82330FB6820221A6600E000BFF2
:10243000FB68012283F85D20FB68002283F85C20A2
:1024400097F8233018462837BD4680BD80B588B040
:1024500000AFF860B9603B601346FB71FEF7ECF823
:102460000246BB6A9B1A3A681344FB61FEF7E4F824
:10247000B861394B1B685B011B0DFA6902FB03F362
:102480007B6154E03B68B3F1FF3F50D0FEF7D4F8D6
:102490000246BB69D31AFA699A4202D9FB69002B3A
:1024A0003DD1FB681B685A68FB681B6822F0E0029C
:1024B0005A60FB685B68B3F5827F11D1FB689B684B
:1024C000B3F5004F04D0FB689B68B3F5806F07D16C
:1024D000FB681B681A68FB681B6822F040021A60E0
:1024E000FB689B6AB3F5005F0FD1FB681B681A6835
:1024F000FB681B6822F400521A60FB681B681A68AC
:10250000FB681B6842F400521A60FB68012283F8E2
:102510005D20FB68002283F85C20032317E07B69C1
:10252000002B01D10023FB617B69013B7B61FB68D0
:102530001B689A68BB681340BA689A420CBF0123B3
:102540000023DBB21A46FB799A429BD1002318463E
:102550002037BD4680BD00BF0800002080B588B090
:1025600000AFF860B9607A603B60FEF765F802463C
:10257000BB6A9B1A3A681344FB61FEF75DF8B861C9
:102580003E4B1A6813469B001344DA00D31A1B0D06
:10259000FA6902FB03F33B6162E0BB68B3F5C06F0D
:1025A00009D17B68002B06D1FB681B680C331B78B4
:1025B000DBB27B617B693B68B3F1FF3F50D0FEF734
:1025C0003BF80246BB69D31AFA699A4202D9FB6901
:1025D000002B3DD1FB681B685A68FB681B6822F022
:1025E000E0025A60FB685B68B3F5827F11D1FB683B
:1025F0009B68B3F5004F04D0FB689B68B3F5806F10
:1026000007D1FB681B681A68FB681B6822F0400250
:102610001A60FB689B6AB3F5005F0FD1FB681B680B
:102620001A68FB681B6822F400521A60FB681B687A
:102630001A68FB681B6842F400521A60FB680122AA
:1026400083F85D20FB68002283F85C20032310E000
:102650003B69002B01D10023FB613B69013B3B61DE
:10266000FB681B689A68BB6813407A689A4294D1E9
:10267000002318462037BD4680BD00BF080000205B
:1026800080B586B002AFF860B9607A607B6800936D
:10269000BB6800224FF4C051F868FFF75FFF0346A4
:1026A000002B07D0FB681B6E43F02002FB681A6604
:1026B000032327E07B680093BB6800228021F86831
:1026C000FFF7C4FE0346002B07D0FB681B6E43F0E8
:1026D0002002FB681A66032314E07B680093BB6842
:1026E00000224FF4C061F868FFF738FF0346002B63
:1026F00007D0FB681B6E43F02002FB681A660323B9
:1027000000E0002318461037BD4680BD80B582B07A
:1027100000AF78607B68002B01D1012340E07B682B
:102720009B6F002B06D17B68002283F874207868A9
:1027300000F02CFF7B6824229A677B681B681A686C
:102740007B681B6822F001021A60786800F0C0F80C
:102750000346012B01D1012322E07B685B6A002B39
:1027600002D0786800F0E8FA7B681B685A687B68DA
:102770001B6822F490425A607B681B689A687B68E9
:102780001B6822F02A029A607B681B681A687B68C3
:102790001B6842F001021A60786800F06FFB034684
:1027A00018460837BD4680BD80B58AB002AFF860D4
:1027B000B9603B601346FB80FB689B6F202B40F0A9
:1027C0008280BB68002B02D0FB88002B01D1012343
:1027D0007AE0FB6893F87430012B01D1022373E097
:1027E000FB68012283F87420FB680022C3F8802074
:1027F000FB6821229A67FDF71FFF7861FB68FA8862
:10280000A3F85020FB68FA88A3F85220FB689B6865
:10281000B3F5805F08D1FB681B69002B04D100234E
:10282000FB61BB68BB6103E0BB68FB610023BB616C
:10283000FB68002283F874202DE03B6800937B69DD
:1028400000228021F86800F062FB0346002B01D0D3
:10285000032339E0FB69002B0BD1BB691A88FB68A5
:102860001B68C2F3080292B21A85BB690233BB61CE
:1028700008E0FB691A78FB681B6892B21A85FB694D
:102880000133FB61FB68B3F852309BB2013B9AB253
:10289000FB68A3F85220FB68B3F852309BB2002BC0
:1028A000CBD13B6800937B6900224021F86800F09F
:1028B0002EFB0346002B01D0032305E0FB682022FA
:1028C0009A67002300E0022318462037BD4680BDEA
:1028D000B0B588B000AF78600023BB767B689A689B
:1028E0007B681B691A437B685B691A437B68DB69F9
:1028F0001343FB617B681B681A68AA4B13407A6814
:102900001268F9690B4313607B681B685B6823F4EA
:1029100040517B68DA687B681B680A435A607B68B1
:102920009B69FB617B681B689F4A934204D07B686C
:102930001B6AFA691343FB617B681B689B6823F47D
:1029400030617B681B68FA690A439A607B681B6880
:10295000964A934221D1964BD3F8883003F0030373
:10296000032B17D801A252F823F000BF7D290008DD
:1029700089290008832900088F2900080123FB7694
:1029800096E00223FB7693E00423FB7690E0082395
:10299000FB768DE01023FB768AE07B681B68854A16
:1029A000934232D1824BD3F8883003F00C030C2BC6
:1029B00028D801A252F823F0ED290008052A0008C2
:1029C000052A0008052A0008F9290008052A000838
:1029D000052A0008052A0008F3290008052A00082E
:1029E000052A0008052A0008FF2900080023FB76B5
:1029F0005EE00223FB765BE00423FB7658E00823CD
:102A0000FB7655E01023FB7652E07B681B686A4A30
:102A1000934220D1664BD3F8883003F03003302B3B
:102A200013D0302B14D8202B09D0202B10D8002BFA
:102A300002D0102B06D00BE00023FB7638E00223F7
:102A4000FB7635E00423FB7632E00823FB762FE0AB
:102A50001023FB762CE07B681B68534A934225D1F8
:102A6000534BD3F8883003F44063B3F5406F17D06D
:102A7000B3F5406F17D8B3F5006F0BD0B3F5006F07
:102A800011D8002B03D0B3F5806F06D00BE00023E4
:102A9000FB760DE00223FB760AE00423FB7607E0D9
:102AA0000823FB7604E01023FB7601E01023FB767D
:102AB0007B681B683C4A934240F08280FB7E082B77
:102AC00023D801A252F823F0ED2A00080B2B0008AE
:102AD000F52A00080B2B0008FB2A00080B2B000826
:102AE0000B2B00080B2B0008032B0008FEF762FEDF
:102AF00078610FE0314B7B610CE0FEF7C3FD78613C
:102B000008E04FF400437B6104E000237B61012374
:102B1000BB7600BF7B69002B00F000817B685A68A0
:102B200013465B0013447A699A4205D37B685B685D
:102B30001B037A699A4202D90123BB76EEE07B69D6
:102B400018464FF000014FF000024FF000030B0257
:102B500043EA1063020279684968490808464FF061
:102B60000001141843EB01057B685B681A464FF0BF
:102B7000000320462946FDF77BFB02460B46134621
:102B80003B613B69B3F5407F08D33B69B3F5801FD8
:102B900004D27B681B683A69DA60BFE00123BB7628
:102BA000BCE000BFF369FFEF008000400038014047
:102BB0000010024000440040004800400024F4009F
:102BC0007B68DB69B3F5004F5CD1FB7E082B28D80E
:102BD00001A252F823F000BFFD2B0008052C0008CD
:102BE0000D2C0008232C0008132C0008232C0008AF
:102BF000232C0008232C00081B2C0008FEF7DAFD0C
:102C0000786113E0FEF7ECFD78610FE0494B7B61E2
:102C10000CE0FEF737FD786108E04FF400437B617C
:102C200004E000237B610123BB7600BF7B69002B9E
:102C300074D07B695A007B685B685B081A447B68C8
:102C40005B68B2FBF3F39BB23B613B690F2B16D978
:102C50003B69B3F5803F12D23B699BB223F00F036F
:102C6000FB813B695B089BB203F007039AB2FB89C7
:102C70001343FB817B681B68FA89DA604EE001230D
:102C8000BB764BE0FB7E082B27D801A252F823F03D
:102C9000B52C0008BD2C0008C52C0008DB2C000852
:102CA000CB2C0008DB2C0008DB2C0008DB2C0008F8
:102CB000D32C0008FEF77EFD786113E0FEF790FD4F
:102CC00078610FE01B4B7B610CE0FEF7DBFC786169
:102CD00008E04FF400437B6104E000237B610123A3
:102CE000BB7600BF7B69002B18D07B685B685A08F5
:102CF0007B691A447B685B68B2FBF3F39BB23B6170
:102D00003B690F2B08D93B69B3F5803F04D27B6840
:102D10001B683A69DA6001E00123BB767B68002218
:102D20005A667B6800229A66BB7E18462037BD46ED
:102D3000B0BD00BF0024F40080B483B000AF786061
:102D40007B685B6A03F00103002B0AD07B681B6879
:102D50005B6823F400317B689A6A7B681B680A43CE
:102D60005A607B685B6A03F00203002B0AD07B6821
:102D70001B685B6823F480317B68DA6A7B681B68B8
:102D80000A435A607B685B6A03F00403002B0AD095
:102D90007B681B685B6823F480217B681A6B7B6807
:102DA0001B680A435A607B685B6A03F00803002BC8
:102DB0000AD07B681B685B6823F400417B685A6B10
:102DC0007B681B680A435A607B685B6A03F01003E8
:102DD000002B0AD07B681B689B6823F480517B68BA
:102DE0009A6B7B681B680A439A607B685B6A03F096
:102DF0002003002B0AD07B681B689B6823F40051DA
:102E00007B68DA6B7B681B680A439A607B685B6A45
:102E100003F04003002B1AD07B681B685B6823F427
:102E200080117B681A6C7B681B680A435A607B6858
:102E30001B6CB3F5801F0AD17B681B685B6823F4A9
:102E4000C0017B685A6C7B681B680A435A607B68C8
:102E50005B6A03F08003002B0AD07B681B685B6809
:102E600023F400217B689A6C7B681B680A435A60D4
:102E700000BF0C37BD465DF8047B704780B586B057
:102E800002AF78607B680022C3F88020FDF7D4FB96
:102E9000F8607B681B681B6803F00803082B0ED1E1
:102EA0006FF07E430093FB6800224FF400117868B6
:102EB00000F02DF80346002B01D0032323E07B68AC
:102EC0001B681B6803F00403042B0ED16FF07E43D4
:102ED0000093FB6800224FF48001786800F017F837
:102EE0000346002B01D003230DE07B6820229A6764
:102EF0007B682022DA677B6800221A667B680022E2
:102F000083F87420002318461037BD4680BD80B575
:102F100084B000AFF860B9603B601346FB715EE0BF
:102F2000BB69B3F1FF3F5AD0FDF786FB02463B6811
:102F3000D31ABA699A4202D3BB69002B1BD1FB6832
:102F40001B681A68FB681B6822F4D0721A60FB6861
:102F50001B689A68FB681B6822F001029A60FB6894
:102F600020229A67FB682022DA67FB68002283F838
:102F70007420032343E0FB681B681B6803F0040311
:102F8000002B2CD0FB681B68DB6903F40063B3F5EE
:102F9000006F24D1FB681B684FF400621A62FB6863
:102FA0001B681A68FB681B6822F4D0721A60FB6801
:102FB0001B689A68FB681B6822F001029A60FB6834
:102FC00020229A67FB682022DA67FB682022C3F878
:102FD0008020FB68002283F8742003230FE0FB6845
:102FE0001B68DA69BB681340BA689A420CBF0123B8
:102FF0000023DBB21A46FB799A4291D0002318468F
:103000001037BD4680BD000080B58AB000AF07F123
:10301000140300221A605A609A60DA601A61354B14
:10302000DB6C344A43F00403D364324BDB6C03F0B3
:1030300004033B613B692F4BDB6C2E4A43F080035A
:10304000D3642C4BDB6C03F08003FB60FB68294BE3
:10305000DB6C284A43F00103D364264BDB6C03F09E
:103060000103BB60BB68234BDB6C224A43F00203C5
:10307000D364204BDB6C03F002037B607B6800228F
:103080004FF403511C48FDF77FFD002203214FF050
:103090009040FDF779FD4FF403537B610123BB6141
:1030A0000023FB6100233B6207F114031946124819
:1030B000FDF7D8FB03237B610123BB610023FB6188
:1030C00000233B6207F1140319464FF09040FDF7CF
:1030D000C9FB4FF480537B610023BB610023FB617C
:1030E00007F1140319460548FDF7BCFB00BF28375C
:1030F000BD4680BD001002400008004800040048A2
:1031000080B500AFFDF730FA00F01CF8FFF77CFF48
:1031100000F08CF800F00AFA012202214FF09040F2
:10312000FDF732FD4FF47A70FDF792FA01224FF469
:1031300000510348FDF728FD00F09AFAF6E700BFBA
:103140000008004880B5AEB000AF07F17403442218
:103150000021184604F0C6FB07F1600300221A6044
:103160005A609A60DA601A613B1D5C2200211846A1
:1031700004F0B8FB09237B674FF48033BB6701235E
:10318000C7F888300223C7F89C300323C7F8A03063
:103190000123C7F8A4301423C7F8A8300723C7F8C1
:1031A000AC300223C7F8B0300223C7F8B43007F1BF
:1031B00074031846FDF764FD0346002B01D000F0B0
:1031C0002FF80F233B6603237B660023BB66002397
:1031D000FB6600233B6707F1600304211846FEF7F6
:1031E0006FF90346002B01D000F01AF801237B6031
:1031F00000237B623B1D1846FEF768FB0346002B4D
:1032000001D000F00DF84FF40070FDF7E3FC034629
:10321000002B01D000F004F800BFB837BD4680BDD8
:1032200080B400AF72B600BFFEE7000080B500AF0B
:103230001B4B1C4A1A601A4B4FF482725A60184B8F
:1032400000229A60164B4FF4E062DA60144B0022C1
:103250001A61134B00225A61114B4FF400729A61AC
:103260000F4B0022DA610E4B00221A620C4B002237
:103270005A620B4B00229A62094B0722DA62084B12
:1032800000221A63064B08225A630548FEF728FEFF
:103290000346002B01D0FFF7C3FF00BF80BD00BF76
:1032A000700200200038004080B58AB000AF78601E
:1032B00007F1140300221A605A609A60DA601A61FA
:1032C0007B681B68174A934228D1174B9B6D164A9F
:1032D00043F480439365144B9B6D03F480433B613F
:1032E0003B69114BDB6C104A43F00203D3640E4B75
:1032F000DB6C03F00203FB60FB684FF460437B610F
:103300000223BB610023FB6103233B6205237B6235
:1033100007F1140319460548FDF7A4FA00BF283742
:10332000BD4680BD00380040001002400004004847
:1033300080B483B000AF0F4B1B6E0E4A43F0010305
:1033400013660C4B1B6E03F001037B607B68094B1B
:103350009B6D084A43F080539365064B9B6D03F0C9
:1033600080533B603B6800BF0C37BD465DF8047B73
:10337000704700BF0010024080B400AFFEE780B489
:1033800000AFFEE780B400AFFEE780B400AFFEE719
:1033900080B400AFFEE780B400AF00BFBD465DF86B
:1033A000047B704780B400AF00BFBD465DF8047B6E
:1033B000704780B400AF00BFBD465DF8047B704726
:1033C00080B500AFFDF724F900BF80BD80B586B0A1
:1033D00000AFF860B9607A6000237B610AE0AFF368
:1033E00000800146BB685A1CBA60CAB21A707B6979
:1033F00001337B617A697B689A42F0DB7B6818460F
:103400001837BD4680BD000080B584B000AF78603D
:10341000114B1B68002B02D10F4B104A1A600E4B48
:103420001B68FB600C4B1A687B6813446A46934226
:1034300007D904F0F5F903460C221A604FF0FF3368
:1034400006E0054B1A687B681344034A1360FB6867
:1034500018461037BD4680BDC4010020A0030020DF
:1034600080B483B000AF78604FF0FF3318460C375C
:10347000BD465DF8047B704780B483B000AF7860D0
:1034800039603B684FF400525A60002318460C37ED
:10349000BD465DF8047B704780B483B000AF7860B0
:1034A000012318460C37BD465DF8047B704780B495
:1034B00085B000AFF860B9607A6000231846143711
:1034C000BD465DF8047B704780B400AF154BD3F860
:1034D0008830144A43F47003C2F88830124B1B68DA
:1034E000114A43F0010313600F4B00229A600E4B08
:1034F0001B680D4A23F0A85323F4102313600A4BD2
:103500004FF48052DA60084B1B68074A23F480238B
:103510001360054B00229A6100BFBD465DF8047B35
:10352000704700BF00ED00E00010024080B500AF22
:10353000144B154A1A60134B4FF4E1325A60114B89
:1035400000229A600F4B0022DA600E4B00221A61B3
:103550000C4B0C225A610B4B00229A61094B002242
:10356000DA61084B00221A62064B00225A620548B3
:10357000FFF7CCF80346002B01D0FFF751FE00BF48
:1035800080BD00BFD40200200038014080B58AB061
:1035900000AF786007F1140300221A605A609A6045
:1035A000DA601A617B681B68184A934229D1184B6C
:1035B0001B6E174A43F480431366154B1B6E03F4CE
:1035C00080433B613B69124BDB6C114A43F00103C2
:1035D000D3640F4BDB6C03F00103FB60FB684FF41B
:1035E000C0637B610223BB610023FB6103233B6259
:1035F00007237B6207F1140319464FF09040FDF753
:1036000031F900BF2837BD4680BD00BF00380140FA
:103610000010024080B582B000AF7860391D4FF0D5
:10362000FF3301220348FFF7BFF87B6818460837CD
:10363000BD4680BDD402002080B586B000AFF860E2
:10364000B9607A6000237B6109E0BB685A1CBA60EC
:103650001B781846FFF7DEFF7B6901337B617A69CF
:103660007B689A42F1DB7B6818461837BD4680BDFF
:1036700080B5AEB000AF01F03FFD034619464348A8
:1036800004F0E2F914237B8100F0D6F9C7F8B0000A
:10369000D7F8B00000F004FA034683F00103DBB270
:1036A000002B01D000236CE000F07AFB03467B6026
:1036B0007B680121184600F08BFB7B6807F10A024A
:1036C00007F10C01184600F08BFB034687F8B73072
:1036D00097F8B730002B49D0012387F8B630002384
:1036E000A7F8B4302EE0B7F8B430DB0007F1B80229
:1036F000134413F8A83C87F8AF30B7F8B430DB00B8
:1037000007F1B802134453F8AC1C97F8AF30002B04
:1037100001D01F4B00E01F4B1A461F4804F094F9DC
:1037200097F8AF30002B05D097F8B630002B01D0BA
:10373000012300E0002387F8B630B7F8B430013336
:10374000A7F8B4307B89B7F8B4209A42CBD397F866
:10375000B630002B03D0114804F0FCF909E0104802
:1037600004F0F8F9002387F8B73002E00D4804F0C0
:10377000F1F93B1D184600F021FB00F0CBF997F85A
:10378000B7301846B837BD4680BD00BF2C8C000846
:103790004C8C0008548C00085C8C0008748C000869
:1037A000948C0008BC8C000880B400AF72B600BFD7
:1037B00000BFBD465DF8047B704780B400AF62B6C1
:1037C00000BFBFF36F8F00BF00BFBD465DF8047B35
:1037D0007047000080B586B002AFF860B9607A60CB
:1037E000002240210A48FDF7CFF97B689BB241F2E5
:1037F00088320092BA68B9680648FEF714FC0122C4
:1038000040210348FDF7C0F900BF1037BD4680BD19
:10381000000800487002002080B582B000AF7860D8
:103820000520FCF715FF012280210748FDF7ACF9C0
:103830000520FCF70DFF012240210348FDF7A4F904
:1038400000BF0837BD4680BD0008004880B582B083
:1038500000AF7860002240210548FDF795F900226D
:1038600080210348FDF790F900BF0837BD4680BDB1
:103870000008004880B584B000AF78603960FCF77C
:10388000DBFEF8600CE0FFF78FFF4FF48051144827
:10389000FDF762F90346012B00D030BFFFF78DFF23
:1038A0004FF480510E48FDF757F90346012B07D01E
:1038B000FCF7C2FE0246FB68D31A3A689A42E2D885
:1038C0004FF480510648FDF747F90346012B0CBF22
:1038D00001230023DBB218461037BD4680BD00BF70
:1038E0000004004880B400AF044B07EE903AB0EEFD
:1038F000670ABD465DF8047B704700BF001BB74BED
:1039000080B500AFFCF798FE0346184680BD000066
:103910000CB480B5B4B004AF03463960FB7107F155
:10392000CC03BB6007F10C00BB68D7F8C820962118
:1039300004F054F9C7F8BC00D7F8BC30952B0BDD68
:103940002E2387F89E302E2387F89F302E2387F86A
:10395000A030002387F8A130FFF7D2FFC7F8B800E6
:10396000D7F8B830C7F8B430D7F8B4302C4AA2FB37
:1039700003235B0DC7F8B030D7F8B430294AA2FB57
:1039800003239A0B284BA3FB021359090B461B0177
:103990005B1A9B00D31AC7F8AC30D7F8B430234A6F
:1039A000A2FB03239A09204BA3FB021359090B46E0
:1039B0001B015B1A9B00D31AC7F8A830D7F8B430A4
:1039C0001A4AA2FB031292094FF47A7101FB02F228
:1039D0009B1AC7F8A430FB79042B03D8FB79144A4F
:1039E000D35C00E03F2387F8A33097F8A33007F1BA
:1039F0000C0203923A6802920193D7F8A430009324
:103A0000D7F8A830D7F8AC20D7F8B010094804F0A0
:103A10001BF800BFC037BD46BDE8804002B070470C
:103A2000B17C219573B2E74589888888D34D6210AF
:103A3000048D0008E08C000880B400AF024B1846EB
:103A4000BD465DF8047B7047C8A30008DFF834D09A
:103A5000FFF73AFD002103E00B4B5B584350043164
:103A60000A480B4B42189A42F6D30A4A02E0002356
:103A700042F8043B084B9A42F9D303F0D7FEFFF714
:103A80003FFBFEE700000120D4CC0008000000202E
:103A9000A8010020A8010020A0030020FEE70000EC
:103AA00010B5164C23780BBBA8B101F00BFA88B106
:103AB00000F0F0F888B100F01DFE70B10123237012
:103AC00001F0E0FA012805D90D4B0E4A5B6B0E4957
:103AD000022098472378184610BD094B0B4A5B6BB0
:103AE0000949002098472378184610BD01F0CAFA0A
:103AF0000128EFD9024B064AE8E700BFC8010020C1
:103B00005803002000A4000820A4000824A40008F2
:103B10003CA4000810B50B4C237803B910BD00F08D
:103B2000F3F800F025FE01F0ADFA012805D9064BA7
:103B3000064A5B6B06490220984701F0FDF9002315
:103B4000237010BDC80100205803002064A40008A1
:103B500020A400082DE9F04170B91C4C1C4A636B8D
:103B60001C4900209847636B1B4A1A49002098475C
:103B700000252846BDE8F081184B02689A420446A9
:103B8000EBD1174B1D78DDB1437A002BF1D143689F
:103B90002A2B15D8134E16F813708FB94FF0010861
:103BA000183006F8138000F0F3FD63682A2B09D85B
:103BB00006EB430284F8098006F813705770D8E7C3
:103BC000024CD0E784F80980D3E700BF58030020F7
:103BD00088A40008E8A40008B4A40008E89EC0ACCB
:103BE000C9010020CC010020014B1870704700BFB4
:103BF000C901002008B538B9064B074A5B6B074975
:103C000000209847002008BD0268054B9A42F3D176
:103C1000012008BD5803002088A40008E8A400087B
:103C2000E89EC0AC2DE9F041154E0546746801F0E0
:103C300029FA032806D9134A6B68576B1249134AAD
:103C40000420B84744B1AC4203D116E09D420DD0E8
:103C50001C46636D002BF9D10A4A6B68546B0A4904
:103C60000B4AA4460020BDE8F04160476B6D6365D8
:103C70002846BDE8F04101F0EDB96B6D7360F7E7E0
:103C80002402002058030020F0A50008CCA500085D
:103C900000A6000810B5054C207800B110BD012326
:103CA00018462370FFF7A0FF207810BD24020020E3
:103CB000114B1B7810B533B1044618B10068FFF7FB
:103CC00099FF60B910BD01F0DDF90028FAD00B4B67
:103CD0000B4A5B6B0B490120BDE810401847206878
:103CE000FFF738FF2068C3680BB198472068FFF7DB
:103CF00099FF0023236010BD2402002058030020F8
:103D000044A50008F0A5000838B50E4C2378C3B1CF
:103D100063687BB1251D2846FFF7CAFF6368002B47
:103D2000F9D101F0AFF928B1074B084A5B6B08499C
:103D300001209847002318462370BDE83840FFF75C
:103D400053BF38BD240200205803002080A500087E
:103D5000F0A50008064B5B6813B906E05B6D23B164
:103D60005A689042FAD1012070471846704700BF48
:103D70002402002008B10120704710B5044601F06C
:103D800081F930B1034B044A5B6B04490120984729
:103D9000204610BD5803002060A6000888A6000831
:103DA00008B5054A2F230C21012001F035F908B18F
:103DB0000123036008BD00BF48A6000838B110B554
:103DC0000446006801F046F90023236010BD7047E7
:103DD00038B50D460446FFF7CDFF00B1256038BD6C
:103DE0002DE9F041C4B00E4617460546FFF7C2FF65
:103DF00010B305F10408434605F10A01002413F845
:103E0000012B0AB90134A4B28B42F8D164B901F094
:103E100039F988B1254B264A5B6B26490120984722
:103E2000204644B0BDE8F0812846FFF7A3FF00B16B
:103E30002868FFF78FFF18B1002044B0BDE8F0817B
:103E400001467022684603F04DFD68461A4900F0AD
:103E5000F7FF2846FFF78EFF28BB0146684600F0B3
:103E6000D7FF684600F0DCFF3B88142B88BF142383
:103E70001CAC88BF3B804146684622463B4600F06A
:103E800093FC3D88002DD8D00422002354F8331031
:103E900046F83310A15CB154013399B28D4202F15E
:103EA0000802F3D8C9E72968D8E700BF5803002003
:103EB00034A6000888A60008CD42000801207047FB
:103EC0000120704743693BB110B50446184601F024
:103ED000C1F80023636110BD704700BFF0B5044610
:103EE000007B87B018B9A073012007B0F0BD0E4663
:103EF000276901F02FF801AD3946284685ED000A03
:103F000001F0DAFF10B9A07307B0F0BD798823681B
:103F10000193BB880291F9882A463D890393049155
:103F20006369ADF81450D6E9000101F0E9F8DAE769
:103F30002DE9F04F01238FB003738946054684684D
:103F4000876901F02FF803AE00238046DFF894E282
:103F500005A9324618469C46002C54D0205C01F836
:103F6000010B042B02F801CB48D10197B8F1000FE7
:103F700002D101238DF818302B7B002B51D1002367
:103F80009849DFF874B2DDF804E09A461FFA83FC22
:103F90000CB1E25CDAB9032B00F00A81002217466B
:103FA00067454FF0010035D0042A2ED1EA6901920D
:103FB0001288BEF1000F07D00EEBC20C5BF8237025
:103FC0004EF832708CF804000198013202800133FF
:103FD000042BDBD16B7B2B731CB12279002A40F0C0
:103FE0008E8049462846FFF779FF8246002836D161
:103FF0007D4B7E4A5B6B7E4998472CE013F80E00A0
:104000000133002CAAD12046A9E7575C674502F18D
:104010000102C9D1B75C002FC6D085F80DA00020E1
:10402000C2E72B68079300F095FF05AF4FF0000C37
:10403000334607AAD9E9000109978DED080A8DF8E2
:1040400028C001F083FA8246002898D1664B694A5D
:104050005B6B6749984750460FB0BDE8F08F6B7BAC
:10406000AE6904222A71002B00F0B380AA7B002ADB
:1040700000F0AF80D5E90432588899881F89B3F8D9
:1040800006C0ADF820002B681068ADF822100121A1
:10409000ADF82670ADF828002973ADF824C0079359
:1040A0001379ADF82A300027D9E9000105AB07AA3A
:1040B000ADF82C70CDE90C7702F0FEFB82460028AB
:1040C00069D005AB0DF11A0113F8012B002A18BFB6
:1040D0004FF0000A9942F7D16B7BE9690A8856B123
:1040E00095F804C0444806EBC20750F82C0046F887
:1040F000320087F804A001320A802B7324B194F8AF
:1041000005A0BAF1000FA6D1AA7B002A55D005223E
:104110002A71AE69002B48D0AB7B002B45D0D5E986
:104120000432D9889888ADF8201059881B89ADF8D9
:1041300022001068ADF82410ADF8263001212B685C
:10414000ADF82800297307931279ADF82A2005AB42
:10415000D9E90001002407AA0B9401F08DF98246E9
:10416000C8B19DF81430002B38D19DF81530B3FA42
:1041700083F35B09E9690A8846B12D791E4C06EB89
:10418000C20054F8254046F83240037101320A80DB
:104190004FF0010A5FE72979134A174B546B53F824
:1041A0002130164A1249A04755E700232B73E1E757
:1041B000B8F1000F3FF40EAFF0E649462846FFF78E
:1041C0008DFE824660B9084B0D4A5B6B08499847E3
:1041D00041E74FF0000A85F80CA07EE72346C9E7C7
:1041E0006B7B94E798A6000858030020D0A700082E
:1041F000B8A700089CA7000820A80008ECA70008A2
:10420000FCA7000870B5406990B0006808900024D1
:1042100001200A9105AD0E9201A90DF102020B9445
:10422000ADF8024009948DF82D00CDE90C510F92A4
:1042300073B11D461B88112B1FD81F4B1F4A5B6B88
:104240001F492046984726462C80304610B070BD46
:1042500041F2084421464FF488731A4A049400F04E
:10426000DBFE039008BB144B174A5B6B144900201C
:1042700098470026304610B070BD41F208442146F0
:104280004FF488730F4A049400F0C6FE0390002890
:10429000E9D003A908A8FFF74BFE0F9B1B882B80D2
:1042A0000646039800F0D6FECFE703A908A8FFF75B
:1042B0003FFE0646F5E700BF5803002044A700086C
:1042C000B8A7000860A7000880A7000870B575238C
:1042D00005460E46084A0421012000F09DFE0446D2
:1042E000686140B1304600F08BFD044A044B206009
:1042F000C5E90623012070BD60A700089CA6000840
:10430000054200082DE9F04F87B016460090039152
:104310001F469DF8404000F023FE0022ADF8142017
:104320000492002F43D0944214BF4FF4E0414FF465
:10433000004140080BB2A0F1030B02920193039CD1
:104340002AE0019B00981FFA85F843EA060105F16F
:10435000030A08F1FF32029BA38052BA4FEA4A09CE
:1043600049BA628021804A46214600F029FE204653
:10437000514600F0A5FEA9F106090498BDF81420E5
:104380002060A2804C4446442068A28804907F1B91
:10439000B6B2ADF814200AD0BB455D4628BF3D46F5
:1043A000BB45CED200E0013DEB07FCD4C9E7039842
:1043B000063007B0BDE8F08F2DE9F04F85B0984684
:1043C00002908A461646DDE90E7900F0C9FD8008A4
:1043D000431E019367B30AF102030393019BBB429F
:1043E00028BF3B461C461946404600F073FE4FEA84
:1043F000840B46F4804149BA5D465A46AAF800103B
:1044000003984146023503F045FA26442A465146B0
:104410000298D84400F0D4FDB6B2B9F1000F05D02F
:10442000D9E9002315440133C9E900533F1BD5D115
:1044300005B0BDE8F08F00BF2DE9F04F85B098467C
:10444000019089461646DDE90E7B00F089FD800863
:10445000831E0393002F3CD0BB4228BF3B46B3F5DD
:10446000006F1C4638D809F10603029307E0039B4E
:10447000BB4228BF3B46B3F5006F1C462CD86200F8
:10448000D51C46F41041013A52BA49BA6D00A9F858
:104490000220A9F800102A46494601984FEA840AEA
:1044A00000F08EFD02995246404603F0F3F9214692
:1044B000404600F00FFEBBF1000F05D0DBE9001213
:1044C0000D440132CBE9005226443F1BB6B2D04422
:1044D000CDD105B0BDE8F08F4E21014800F062FC5F
:1044E00038A8000810B541F4A04182B04BBA14BA04
:1044F00069460622ADF80030CDF8024000F060FDBC
:1045000002B010BD38B510601C461960154600F0A9
:1045100027FD2168884202D200F022FD01462B6867
:10452000023921F0030102332B60216038BD00BF46
:104530002DE9F0419C1C07460D46164600F010FD83
:10454000A04207D2094B0A4A5B6B0A490020BDE82A
:10455000F041184745F4A0456DBA358022463146F2
:104560003846BDE8F04100F02BBD00BF58030020E5
:1045700050A8000870A800080331B0EB410F2CBF11
:1045800001200020704700BF10B582B000240094C5
:10459000FFF7B8FE02B010BDF0B44D1E03462E4624
:1045A0000024104F00E00446A7FB0302D20802EBF0
:1045B0008200A3EB400303F1300093B206F8010F31
:1045C000601C002BEFD10B5464080144013315F833
:1045D000012F11F8016D2E70A3420A70F6D9F0BCBC
:1045E000704700BFCDCCCCCC013829289CBF014BF3
:1045F000195470472C0200200138292800D970472F
:104600002DE9F84F314B1B5C002B40D015468846F6
:10461000B0222F49602000F0D9FC0646B8B3002D27
:1046200043D00027DFF8B0B0DFF8B0A03C4608E088
:104630005F2F28D9B9F10F0F04F1010411D0A54261
:1046400027D914F00F09F3D15F2FF3D8F11938F8F7
:104650001400FFF7A1FFB9F10F0F074404F10104A3
:10466000EDD100F00FFD012824D9DBF83470194991
:10467000334652460220B847A54216D914F00F0916
:104680004FF00007E2D02C22F2550137DCE7BDE8FD
:10469000F88F57B100F0F6FC012806D90E4B0F4AEF
:1046A0005C6B0C4933460220A0473046BDE8F84F0A
:1046B00000F0D0BCA542F8D914F00F094FF0000764
:1046C000C4D02C2232700127C0E700BF2C0200208A
:1046D00094A8000880A80008580300207CA80008BF
:1046E000013829289ABF024B185C0020704700BF90
:1046F0002C0200202DE9F041194E347814B12046E7
:10470000BDE8F08100F020FC00EBC000C0004FF4D9
:10471000A9721449144F00F059FC38600028EED0FB
:104720002546DFF8488010E03B6803EBC2031846DB
:104730004422002103F0D6F8013480F8415080F87B
:10474000405080F84250C0F8448000F0FDFBA04289
:1047500004EBC402E8D8012434702046BDE8F0819F
:1047600056020020B0A8000858020020000080FF78
:1047700010B5054C237803B910BD044B186800F040
:1047800069FC0023237010BD56020020580200204F
:10479000C37803B9704710B50446806900F0ECFB9C
:1047A0000023E37010BD00BF2DE9F0418EB0064636
:1047B0000F4690460021342201A81D4603F092F8CE
:1047C0000023314601A81A4600F04CFA30B90446DD
:1047D00005B1288020460EB0BDE8F081304600F0DB
:1047E0000FFB064600F0C2FB2B464246394601A8A5
:1047F00000F0D0FA0446304600F0BEFB01A800F0FD
:10480000C1FA20460EB0BDE8F08100BF70B584B09B
:104810000C460546114620461A4604AC089BFFF795
:1048200071FE002324F8023D284622462A2102F088
:104830005BFBBDF80E305B0619D422461121002423
:104840002846ADF80E4002F04FFBBDF80E3013F4D1
:1048500080661AD01A4B1B4A5E6B1B492B462046BA
:10486000B047284602F086FB204604B070BD00F039
:1048700009FC30B1124B154A5E6B13492B460120DF
:10488000B047284602F076FBD7E701242146802373
:1048900002222846009402F039FB80231A460721A1
:1048A0002846009602F032FB22460521284602F0F7
:1048B0001DFB284603227A2102F018FB2046D4E78C
:1048C0005803002084AA000874AA000848AA000817
:1048D000F0B583B002AA002422F8024D0F46112140
:1048E000064602F001FBBDF8060010F480650CD00E
:1048F000134B144A5D6B144933462046A847304693
:1049000002F038FB204603B0F0BDB7F5806F09D345
:104910000B4B0E4A5C6B0C4928463B46A047284689
:1049200003B0F0BD2A461021304602F0DFFA3046CF
:1049300047F48062102102F0D9FA0120E3E700BFBA
:1049400058030020B4AA000874AA0008E4AA0008CA
:1049500030B583B002AA002322F8023D112105469A
:1049600002F0C2FABDF8060010F480640BD1094BC6
:10497000094A5B6B094920469847284602F0FAFA33
:10498000204603B030BD28460122742102F0AEFA61
:104990000120F6E75803002020AB000874AA0008A5
:1049A00000B583B002AA002322F8023D112102F0D3
:1049B0009BFABDF80600C0F3802003B05DF804FB4D
:1049C00070B582B002AA002322F8023D38210546C4
:1049D00002F08AFABDF8064064B9084B084A5E6BDB
:1049E00008492B462046B047284602F0C3FA204625
:1049F00002B070BD012002B070BD00BF580300209E
:104A00007CA9000874AA000870B50C4684B041B9AE
:104A10002A4B2B4A5B6B2B4920469847204604B013
:104A200070BD0DF10E022821054602F05DFABDF8B9
:104A30000E206280D3B223700B2B2BD8DFE803F05B
:104A40002208060606060606060606060120E6E712
:104A5000120A102A28D801201B4990400140D2B2E6
:104A600011B3013A1549D3B2202B4E6B22D9174B03
:104A7000174A14490020B047284602F07BFA00206C
:104A800004B070BD0D4B134A5C6B0E492B460020E1
:104A9000A047F1E7094A0095566B0A490E4A0020E3
:104AA000B04700232370E7E7044A43F40453566BEE
:104AB00063802023094A52F82330D9E758030020A5
:104AC000C0A9000874AA000816000100B0A90008D7
:104AD000F8A90008D4A9000818AA0008C8A8000866
:104AE0002DE9F04F87B0DFF8B0B00292DFF8BCA03C
:104AF000DFF8AC90039304460F4602F1010800254D
:104B000014E022F8023D204602F0EEF9BDF816301E
:104B10005B0630D400F0B6FA23465246494618B137
:104B2000DBF834600120B047A84517D0394620464D
:104B300000F040FA0135064606AA00232A21002883
:104B4000DFD1154B154A5D6B15492346A847204612
:104B500002F010FA304607B0BDE8F08F0E4A00941C
:104B6000546B029B0F4A0E490020A0470026304696
:104B700007B0BDE8F08F03992046FFF745FF0646D2
:104B80000028E7D1044B084A5D6B05492346A84736
:104B9000304607B0BDE8F08F5803002054AB000842
:104BA00074AA0008A0AB0008DCAB00087CAB0008CE
:104BB00070B584B014461D46642203AB0646FFF769
:104BC0008FFF68B19DF80C30A3420BD0CDE90034C3
:104BD000074A084B546B0849084A0020A0470020A8
:104BE00004B070BD002DFBD03046FFF7E9FEF7E7BB
:104BF000580300204CA9000874AA000804AC00085F
:104C000030B583B00D460446FFF7A2FE10B9002070
:104C100003B030BD2046FFF7D3FE0028F7D0294669
:104C200001AB64222046FFF75BFF0028EFD020464F
:104C3000FFF7C6FE0028EAD09DF80430022BE7D02B
:104C4000054ABDF80630556B0449054A0020A847BF
:104C5000204602F08FF9DAE75803002074AA000812
:104C600000AB00082DE9F043074693B008460C4618
:104C70009146984600F0C4F80546204600F012F927
:104C8000ADF80400204600F005F9ADF80600204616
:104C900000F010F9ADF80800204600F0C9F8042330
:104CA0000DEB03022946ADF80A0007F114051220A6
:104CB00000F0EEF920220021284602F013FE2846DB
:104CC0002368214698470646C8B1202200210AA839
:104CD00002F008FEF96A00230E680993CDE9033358
:104CE000CDE90533CDE907330AAA03AB21462846AF
:104CF000B047064638B9FB6A28465B6B9847304692
:104D000013B0BDE8F083B9F1000F07D00AAD0FCDA5
:104D1000A9E80F0095E80F0089E80F00B8F1000F2F
:104D200010D003AD0FCDC8F80000C8F80410C8F8C3
:104D3000082007CDC8F80C30C8F81000C8F81410C7
:104D4000C8F81820204600F083F8012814D0204627
:104D500000F086F8DFED0A7A87EE800A30EE270A47
:104D6000FCEEC07A17EE903A002230463B60BA6003
:104D7000FA8013B0BDE8F0834FF4FA63F4E700BFA4
:104D80000000FA4420B1C36A13B15B6B14301847BA
:104D9000704700BF10B404461430246BA4465DF87D
:104DA000044B604700B583B0064A00910346546B3C
:104DB0000549064A0020A047054B1B6803B19847E8
:104DC000FEE700BF58030020F4AC0008DCAC00088C
:104DD0005C02002008B10120704710B5044600F0C5
:104DE00051F930B1034B044A5B6B044901209847E9
:104DF000204610BD5803002000AD00081CAD00087F
:104E000010B50446FFF7E6FF00B1E06810BD00BF33
:104E100038B50D460446FFF7DDFF00B1E56038BD4B
:104E200010B50446FFF7D6FF08B10123237110BD6A
:104E300010B50446FFF7CEFF08B194F8480010BD46
:104E400038B50D460446FFF7C5FF00B1256038BDF3
:104E500010B50446FFF7BEFF00B1207910BD00BFBA
:104E600010B50446FFF7B6FF48B12379032B06D8E7
:104E7000DFE803F00808020294ED020A10BD9FED7E
:104E8000030A10BD9FED020A10BD00BF0000C07FE5
:104E90000000807F10B50446FFF79CFF08B1B4F80E
:104EA000400010BD10B50446FFF794FF08B1B4F8F8
:104EB000420010BD10B50446FFF78CFF08B1B4F8EE
:104EC000440010BD426938B5436B3AB382692AB3D6
:104ED000826A1AB3426A0AB3C26AFAB18268EAB154
:104EE000C268DAB10269CAB1F3B102682A2A16D8D7
:104EF00042680F2A13D9C2690AB1026A7AB104461C
:104F00000FCC0A4D0FC50FCC0FC50FCC0FC594E8C1
:104F10000300012385E80300184638BD23B1044A85
:104F20000449002098470023184638BD5803002044
:104F300058AD00086CAD000838220021014802F08D
:104F4000D1BC00BF58030020014B1868704700BF58
:104F500058030020014BDB6A184700BF58030020AC
:104F6000014B5868704700BF58030020014B5B6934
:104F7000184700BF58030020014B9B69184700BF2A
:104F800058030020024BDB6903B11847704700BF8C
:104F900058030020024B1B6A03B11847704700BF3B
:104FA00058030020024BD869003018BF0120704719
:104FB00058030020014B5B6A184700BF58030020CC
:104FC000014B9B6A184700BF580300202DE9F041B0
:104FD0000D4CA3680F46904606469847054630B9E3
:104FE000636B0A4A0A4998472846BDE8F081094B95
:104FF0001B68002BF8D01C683A4643463146A04750
:105000002846BDE8F08100BF5803002030AD0008FD
:105010006CAD000860020020F8B590B10C46A4FB0E
:10502000006711461A4677B904FB00F52846FFF7DA
:10503000CDFF044618B12A46394602F053FC2046FB
:10504000F8BD0446FBE7D0210148FFF7ABFE00BFE7
:1050500040AD0008064B1B6810B504460BB15B68F9
:105060009847044B2046DB68BDE81040184700BF56
:105070006002002058030020014B1B69184700BF45
:1050800058030020014B93F830007047580300206C
:1050900030B585B0094C8DF8040000EB400004EBFE
:1050A00080000125446802910395114603FA05F238
:1050B00014B1836801A8A04705B030BD0C000020E2
:1050C0004A1E31B10388013A5BBA20F8023B531CF7
:1050D000F8D170474A1E31B10368013A1BBA40F853
:1050E000043B531CF8D17047006800BA704700BFFA
:1050F00000BA0860704700BF004870470C8D000878
:105100002DE9F04F8BB00446CDE9063109AB91464D
:1051100005900025106800930A4608AB2146CDE9AA
:105120000855FFF773FB002865D0099BDFF8F4A250
:105130001C46C5F52E6304339C4228BF1C46089EBE
:10514000B04B22465819314602F064FB1FFA84F82E
:10515000AFB2D9F8043001931B2200923046424688
:105160003946534602F068FAD9F8083001931923FA
:105170004246394630460093534602F05DFAD9F86C
:105180000C3001931A234246394630460093534669
:1051900002F052FAB9F8103001931723424639460B
:1051A00030460093534602F047FA4FF0000B1023AD
:1051B000424639463046CDE900B3534602F03CFA48
:1051C0002346C5F38F01059AD9F80000FFF7B0F91F
:1051D000099C40F6E32325449D42AAD91821D9F819
:1051E0000000FFF775FB064678B9874B874A5B6B73
:1051F0008749984705E0844B864A5B6B844906469D
:10520000984730460BB0BDE8F08FD9F800405B46B8
:10521000204603224FF4FA61FFF7CAFC38B97A4BF3
:105220007D4A5B6B7A49002098470026E9E709AA86
:105230009D21204601F058FEBDF824500620012390
:1052400005F0070509AA2146ADF82450FFF720FF15
:105250002046FFF7B5FB0028E1D0D9F80050069BA7
:10526000BDF824601E6028464FF44073ADF824302A
:10527000FFF796FB044668B1634C684A666B644965
:105280002B465846B047636B654A614900209847F2
:105290000026B6E7DFF8A4A15A4901961123024679
:1052A000009328465F4BCDF808A002F043FA012393
:1052B0000093CDE9014A5B4B5249534F22462846A1
:1052C00002F038FAA34609AB4E4913F80B90CDF81B
:1052D00008A01F23CDE900392846524B002202F0D6
:1052E00029FA4FF4E8712846FFF7F2FA78B1002363
:1052F00009224FF4FA612846FFF75AFC70B9424C74
:10530000656B494A42494B460020A847BBE73E4CE3
:10531000464A656B3E494B46A847B4E710210798BB
:10532000FFF72AF928B9384C414A636B3849984746
:10533000E6E71023002205992846FFF725F91023F8
:105340000246064629460020FFF7A2FE2846FFF740
:1053500037FB0028D3D00024A046314606F11E00BA
:105360004B8831F8022B9342984434BFD31A9B1ACE
:105370009C4238BF1C468842F2D12846FFF7B0F95C
:1053800000BB102228463146FFF736F9338898448F
:105390004FEA1818A8F5F243183B40F6B83293428A
:1053A000284659D8B4F5487F8CBF00260126FFF760
:1053B00097F9002844D18EB9BBF1000F0CD14FF002
:1053C000010B80E7FFF75EFE0128DAD97B6B194AF3
:1053D0000F4902209847D4E70B4C54E7069B83F80B
:1053E0000490FFF74FFE01287FF60BAF0699064A9F
:1053F0000B79546B00930B680F4A05490220A047B4
:10540000FFE600BF588D000858030020DCAD0008FF
:10541000BCAD000878AD000810AE000828AE00084A
:1054200010AF00086CC20008E4AE00085CAE0008D3
:105430009CAE0008B4AE000828AF0008E5440008A0
:10544000FFF720FE0128B6D9009443467C6B084A3A
:1054500008490220A047AEE7FFF742F90028ABD089
:10546000FFF710FE012888BF0026EDD8A4E700BF93
:10547000CCAE0008BCAD00082DE9F0411E46156910
:10548000022384B0144607468846337073700DB10A
:105490002B7863B9A389023B042B3CD9254B264AC0
:1054A0005B6B264900209847032333700DB16B785E
:1054B00003BBA2892368ADF80C20A2880093ADF845
:1054C0000620E3882289ADF804306589E389ADF8C8
:1054D0000820414638466A46ADF80A50ADF80E300D
:1054E00000F06CFD50B9134B154A5B6B134998479C
:1054F00003237370012004B0BDE8F081FFF7C2FD03
:10550000012805D90B4B0F4A5B6B0C4902209847C9
:1055100000237370EEE7FFF7B5FD012805D9054BB1
:10552000094A5B6B05490220984700233370002D20
:10553000BDD1BEE7580300203CAF000854AF0008BF
:1055400090AF00087CAF000864AF00082DE9F04F71
:105550002DED028B15469BB000240B9210911A463C
:10556000A968089307910223137053709370D37046
:105570001371079B06940A90DFF874A30E94A1465A
:105580000994CDE9124411943BB3DDE906239B5CF9
:10559000D3B9069B0B9A013BD2F800B0032B00F263
:1055A0001881DFE813F0D5004A003000BC01FFF796
:1055B00069FD012805D9DAF83430C34AC34902200D
:1055C0009847089A00231370069B042B0DD0069B66
:1055D00001330693079B002BD7D1BD4B069AD35CB2
:1055E000002BD6D0069B042BF1D1089B5B7823B906
:1055F000089B9B78002B00F0068101201BB0BDECBE
:10560000028BBDE8F08F0B9B109958681C7B17909C
:1056100014AB16AA0A98CDF858B08DF8604000F087
:10562000B5FA002840F0DB81DAF83430A94AA749FE
:105630009847089A0323D370C9E7A74B0FCB1AAC3E
:1056400004E90F00F722A5494FF40060FFF7BEFC04
:105650000C90002800F0BF8100230C9ACDE9143390
:10566000111F0E9103F003021AA800EB820201330E
:1056700052F8102C41F8042FB3F5007FF2D1FFF758
:10568000FBFC0023099314AB0D900F930F9D0A9E12
:105690000C9FDFF86C92DFF834824FF40074CDE990
:1056A000004531463B4600225846FEF785FECDE9CF
:1056B000004531463B4600225846FEF7BDFE002617
:1056C0000E9D059634461AAA04F0030302EB8303E9
:1056D00055F8042F53F8107C27F07F47974211D0DC
:1056E000FFF7D0FC032823464A4641464FF004000A
:1056F00005D92E68CDE90076DAF83470B847059BF5
:10570000013305930134B4F5007FDCD1099B059E7C
:1057100003F500730993FFF7AFFC002E40F02881DA
:105720000D9BA0EB0309B9F1130FAFD9149B09939B
:10573000159B0E93FFF7A6FC012805D9DAF8343043
:10574000674A624902209847089A0023937023E130
:10575000644B654F00214FF6FF72CDE91623ADF87B
:105760005010FFF789FC082414ABCDF83090059059
:10577000A1469846002635464FF6FF742246212161
:10578000584601F0B3FB42462121584601F0ACFBDC
:10579000BDF85030A34205F1010513D0FFF772FCAC
:1057A0004FF0040C03282B463A464849604608D976
:1057B000BDF850E0CDF808E0CDE900C4DAF8344097
:1057C000A0470136042D00F09D8016AB33F815403C
:1057D000D4E71AAA002422F8104D5846214601F0B9
:1057E00083FBBDF8582041F212139A423FF4DFAE1A
:1057F000009220463D4ADAF834403449A047089ADE
:1058000003231370E0E6DDED116ADDED137AB8EEE7
:10581000666ADDED0E6AF8EE665A06EE909AB8EE0C
:10582000677AF8EE664ADDED097ADDED126AF8EE88
:10583000677AB8EE665A26EE254A67EE276A26EEA4
:10584000246A27EE247A65EE855A67EE857A76EE2D
:10585000C46A37EE657A77EEC67AC7EE268A87EE97
:10586000A68AFFF70FFC012811D9214B214A5C6B56
:1058700016490220B2EE007AC7EE287AB6EE007A18
:1058800077EE877AFCEEE77A17EE903AA047FFF7BB
:10589000F9FB01287FF6B1AEDFED177A144B174AFA
:1058A0005C6B0A4968EE277AB6EE007A77EE877A63
:1058B0000220FCEEE77A17EE903AA04701201BB0D9
:1058C000BDEC028BBDE8F08FA4AF0008C0AF0008AC
:1058D00078B2000840B100083C8D0008ACB0000868
:1058E0001CB100085555AAAA18B00008D8AF000886
:1058F00058030020C0B1000800007A44E0B100085D
:10590000CCB00008FFF7B8FB09EB8902C6B9059BCC
:10591000C01A132809F1080342D899462AE7109AB9
:105920000A99584600F0A4F8002840F08180474BBF
:10593000474A5B6B47499847089A0323137154E61B
:10594000DDF814801192CDF84C90DDF83090FFF71F
:1059500093FBA0EB080312933F4A00953346DAF815
:1059600034403C490020A047089A032353702EE698
:1059700081461498099B099015980093374A0E9018
:105980003346DAF8344033490D9D0020A047089A89
:105990000323A9EB050993700C98FFF75BFB16E650
:1059A0001192CDF84C90DDF81480DDF83090FFF7BF
:1059B00063FB0446FFF766FB012805D9DAF83430AB
:1059C000274A244902209847A4EB08021292089A19
:1059D00000235370FBE5089A03239370F7E5FFF764
:1059E00051FB012805D9DAF834301E4A1949022042
:1059F0009847089B0024DC70FFF744FB012808D976
:105A0000149B0093184A134923460220DAF83440C5
:105A1000A047FFF737FB01287FF6D9AD159B009310
:105A2000DAF83440104A0B4901230220A047CEE5A2
:105A3000FFF728FB012805D9044B0C4A5B6B05498D
:105A400002209847089A00231371CEE558030020DE
:105A500090B10008C0AF0008FCB100083CB20008DB
:105A600084B0000858B1000870B10008A8B100085F
:105A70002DE9F04184B003AB0093002402ABCDE9E3
:105A8000024406460F46FEF7C1FE28B3039BDFF82B
:105A9000A0800299C4F554759D4228BF1D4608EBAD
:105AA00004002A4601F0B6FE2B46C4F38F013A46A5
:105AB0003046FEF73DFD039B1C44B4F5547FE8D30C
:105AC00044213046FEF704FF054678B9144B154AC9
:105AD0005B6B1549984705E0114B144A5B6B124903
