:020000040800F2
:10000000C80B0020310200080B0E0008890A000806
:10001000090E0008CD050008611600080000000068
:10002000000000000000000000000000C1100008F7
:100030003B060008000000000D0E0008BD1400087B
:100040004B0200084B0200084B0200084B0200085C
:100050004B0200084B0200084B0200084B0200084C
:100060004B0200084B0200084B0200084B0200083C
:100070004B0200084B0200084B0200084B0200082C
:100080004B0200084B0200084B0200084B0200081C
:100090004B0200084B0200084B0200084B0200080C
:1000A0004B0200084B0200084B0200084B020008FC
:1000B0004B0200084B0200084B0200084B020008EC
:1000C0004B0200084B0200084B0200084B020008DC
:1000D0004B0200084B0200084B0200084B020008CC
:1000E0004B0200084B0200084B0200084B020008BC
:1000F0004B0200084B0200084B0200084B020008AC
:100100004B0200084B0200084B0200084B0200089B
:100110004B0200084B0200084B0200084B0200088B
:100120004B0200084B0200084B0200084B0200087B
:100130004B0200084B0200084B0200084B0200086B
:100140004B0200084B0200084B0200084B0200085B
:100150004B0200084B0200084B0200084B0200084B
:100160004B0200084B0200084B0200084B0200083B
:100170004B0200084B0200084B0200084B0200082B
:100180004B0200084B02000800F002F800F041F8B2
:100190000AA090E8000C82448344AAF10107DA45E2
:1001A00001D100F036F8AFF2090EBAE80F0013F0F3
:1001B000010F18BFFB1A43F0010318475C1C000035
:1001C0007C1C0000103A24BF78C878C1FAD85207C6
:1001D00024BF30C830C144BF04680C6070470000C1
:1001E0000023002400250026103A28BF78C1FBD840
:1001F000520728BF30C148BF0B607047642900F028
:100200007980002070471FB501F0F4FC1FBD10B5C8
:1002100010BD00F0A9F91146FFF7F5FF01F05EFCF3
:1002200000F0C7F903B4FFF7F2FF03BC01F040FC94
:100230000948804709480047FEE7FEE7FEE7FEE77A
:10024000FEE7FEE7FEE7FEE7FEE7FEE704480549B6
:10025000054A064B70470000F914000889010008A0
:10026000C8050020C80B0020C8070020C8070020D0
:10027000704700000FB4044910B503AA029800F0BB
:1002800017F910BC5DF814FB3C0000202DE9F0418B
:100290000E460446002020622046E168884730B3BD
:1002A000252805D0D4E901219047206A401CF2E7B7
:1002B000E168204600278847050018D0A5F14100D5
:1002C000192802D820354FF40067324629462046C7
:1002D0002760FFF793FF40B1012804D0F61D26F0F8
:1002E00007060836D8E7361DD6E72846DAE7206A3B
:1002F000BDE8F0812DE9F04106460024106875291B
:10030000314616A510D0AFF30080002802DA404233
:1003100013A507E031688A0701D512A502E0490755
:1003200004D511A5012401E0AFF3008000210A22C9
:1003300006F1240709E0B0FBF2FCB0FBF2F302FB8C
:100340001C00303078541846491C0028F3D123464D
:100350002A463046BDE8F04100F050B800000000E9
:100360002D0000002B00000020000000032A40F2B6
:10037000308010F0030C00F0158011F8013BBCF147
:10038000020F624498BF11F801CB00F8013B38BF5F
:1003900011F8013BA2F1040298BF00F801CB38BF6D
:1003A00000F8013B11F0030300F09480083AC0F01C
:1003B000088051F8043B083A51F804CBA0E8081033
:1003C000F5E7121D5CBF51F8043B40F8043BAFF366
:1003D0000080D20724BF11F8013B11F801CB48BFC0
:1003E00011F8012B24BF00F8013B00F801CB48BFF6
:1003F00000F8012B70477047704770472DE9F047B0
:100400000D4699469246044600F124080168880684
:1004100004D5E06921F01001216000E00120A8422C
:1004200001DD471B00E00027A1697A1902EB0900F2
:10043000081AA0612078C00602D42046AFF30080DD
:10044000002608E0D4E901211AF806009047206A46
:10045000401C761C20624E45F4DB2078C0060AD58D
:100460002046AFF3008006E0D4E901213020904718
:10047000206A401C2062381EA7F10107F4DC07E067
:10048000D4E9012118F805009047206A401C206239
:10049000281EA5F10105F3DC2046AFF3008020788B
:1004A000000602D50220BDE8F0870120FBE700002E
:1004B000074B70B50D467B4400F043F804462846D0
:1004C00001F0F7FA10B14FF0FF3070BD204670BD5B
:1004D000FF15000010B5203AC0F00B80B1E81850AD
:1004E000203AA0E81850B1E81850A0E81850BFF41E
:1004F000F5AF5FEA027C24BFB1E81850A0E81850BD
:1005000044BF18C918C0BDE810405FEA827C24BF10
:1005100051F8043B40F8043B08BF7047D20728BF9E
:1005200031F8023B48BF11F8012B28BF20F8023BED
:1005300048BF00F8012B704701694A1C0261087826
:10054000704700B58FB0CDE9013100210591054913
:100550007944CDE9031011466846FFF797FE0FB0C6
:1005600000BD0000E5FFFFFF754600F02BF8AE462A
:1005700005006946534620F00700854618B020B5AF
:10058000FFF764FEBDE820404FF000064FF0000783
:100590004FF000084FF0000B21F00701AC46ACE82B
:1005A000C009ACE8C009ACE8C009ACE8C0098D4698
:1005B000704710B50446AFF300802046BDE81040F8
:1005C000FFF730BE0048704764050020FEE70000DA
:1005D0000022014403E000BF10F8013B1A448842A6
:1005E000FAD3D0B27047000030B504460020651839
:1005F00004E000BF14F8011B01F022F8AC42F9D36B
:10060000002101F01DF8BDE83040002101F018B8CC
:100610001FB54FF4E13000900020ADF80400ADF8B4
:100620000600ADF80800ADF80C000C20ADF80A008B
:100630006946002000F0DAFC1FBD704701B506488E
:10064000009901604FF0E0210A6942F001020A615D
:1006500001680029FCD108BD0000002001490860A4
:10066000704700000C3C024070B50646002529B1D9
:10067000012927D0022928D04FF4407500F022F933
:1006800008281ED1124C206820F440702060206899
:1006900028432060206820F0F8002060206846F0A1
:1006A000020108432060206840F48030206000F0A0
:1006B00009F9216821F002012160216821F0F80187
:1006C000216070BD4FF48075D8E74FF40075D5E711
:1006D000103C02400B4908200A68D20301D50120D2
:1006E00070470A68D20601D5052070470A6812F0E3
:1006F000EF0F01D00620704709688907FBD5072056
:10070000704700000C3C024008B508200220009011
:100710000B4800F05BF9C10801208840C0F580500B
:10072000009000F07BF80021009800F089F800F0BC
:100730006BF8082801D0022008BD012008BD000088
:100740000040000810B5094800F040F9044608E0F0
:1007500002212046FFF788FF082801D0012010BDA4
:100760000834582CF4D9002010BD000000400008C7
:1007700010B5094800F02AF9044600F03FF8014698
:10078000E008C14040F6FF72C240914201D1012011
:1007900010BD002010BD00000040000810B500F0A2
:1007A0007FF8BDE81040F320FFF758BF2DE9F04176
:1007B00016468846054600240F4F15E058F82410C9
:1007C000286800F04FF8082802D00120BDE8F08129
:1007D0002868016858F82400814201D00220F5E71A
:1007E0002868001D2860641CB44202D22868B84200
:1007F000E4D90020EAE70000FBFF0F080148008869
:1008000070470000163C02400348017841F00201A5
:10081000017000F057B80000143C02400548006821
:10082000C00705D0034804490C3801600349016042
:1008300070470000143C02403B2A19087F6E5D4C53
:1008400030B50D46044600F03DF8082806D10448AE
:1008500001880DB1A14300E02143018030BD0000BB
:10086000163C024070B50D46064600F02BF80828ED
:1008700013D10A4C206820F440702060206840F4B6
:1008800000702060206840F001002060356000F0BA
:1008900019F8216821F00101216070BD103C02406F
:1008A00005480068002805DA034804490C3801604F
:1008B0000349016070470000103C02402301674576
:1008C000AB89EFCD08B508208DF80000FFF702FFD7
:1008D0008DF800009DF800000128F7D09DF8000079
:1008E00008BDF0B50023012403270D6804FA03F2C4
:1008F0001540954242D1D0F800C05E0007FA06F5D7
:100900002CEA050CC0F800C091F804C0D0F800E053
:100910000CFA06FC4CEA0E0CC0F800C091F804C0BA
:10092000BCF1010F02D0BCF1020F1FD1D0F808C0FA
:100930002CEA050CC0F808C091F805C0D0F808E012
:100940000CFA06FC4CEA0E0CC0F808C0D0F804C043
:100950002CEA020CC0F804C0426891F806C00CFAF8
:1009600003FC1FFA8CFC42EA0C024260C268AA43F4
:10097000C260CA79C568B2402A43C2605B1C102BB2
:10098000B3D3F0BD4B07DB0E9A40C90810B500EB9E
:100990008100016A0F249C40A1430162016A114356
:1009A000016210BD0246002012690A4200D00120F7
:1009B000704708B500208DF80000684600F040FC44
:1009C0000028FAD09DF8000008BD00000021A0F129
:1009D00000634FF4804293423FD321490144914246
:1009E00001D2082139E01F490144914201D210216E
:1009F00033E01D490144914201D218212DE01B49E9
:100A00000144B1F5803F01D2202126E01849421867
:100A10004FF400318A4201D228211EE0154A0244D7
:100A20008A4201D2302118E0134A02448A4201D29C
:100A3000382112E0114A02448A4201D240210CE0DE
:100A40000F4A02448A4201D2482106E00D4A10446E
:100A5000884201D2502100E058210846704700002A
:100A600000C0FFF70080FFF70040FFF70000FFF72E
:100A70000000FEF70000FCF70000FAF70000F8F7AE
:100A80000000F6F70000F4F7FEE70000F0B50022E2
:100A90000D4B154614460A27B1FBF3F63036865443
:100AA000B1FBF3F603FB1611B3FBF7F3521C8618E8
:100AB00016F8016C302E00D125B16D1C641C0A2C77
:100AC000EAD3F0BD0022F9E700CA9A3B334800F0B0
:100AD00031FC334800F02EFC324800F02BFC324849
:100AE00000F028FC2F4800F025FC304800F022FCE4
:100AF0002A4800F01FFC2EA000F01CFCFFF738FE77
:100B00002D4C002510B90120206000E025602BA0AD
:100B100000F010FC39A000F00DFC48A000F00AFC29
:100B200056A000F007FC206810B164A000F002FCA1
:100B300072A000F0FFFBFFF73CFF312806D03228FF
:100B400007D0332808D034280FD011E000F0BAFACB
:100B5000DDE700F095FBDAE778494868A06060605F
:100B6000096881F308888047D1E72068012806D00A
:100B7000206800280FD072A000F0DCFBC7E7FFF769
:100B8000C3FD012803D00228C1D17DA0F4E787A0CE
:100B900000F0D0FBBAE78DA0EEE70000CC1D000806
:100BA000E81C00089C1C0008801D0008341D00087B
:100BB0000D0A0D0A00000000040000200D0A3D3D52
:100BC0003D3D3D3D3D3D3D3D3D3D3D3D3D3D3D3D55
:100BD000204D61696E204D656E75203D3D3D3D3D6A
:100BE0003D3D3D3D3D3D3D3D3D3D3D3D3D3D3D3D35
:100BF0003D3D3D3D3D3D3D0D0A0A00002020446F36
:100C0000776E6C6F616420496D61676520546F2059
:100C10007468652053544D33324634787820496ED9
:100C20007465726E616C20466C617368202D2D2D89
:100C30002D2D2D2D20310D0A0A0000002020557089
:100C40006C6F616420496D6167652046726F6D202D
:100C50007468652053544D33324634787820496E99
:100C60007465726E616C20466C617368202D2D2D49
:100C70002D2D2D2D20320D0A0A0000002020457850
:100C8000656375746520546865204E6577205072E1
:100C90006F6772616D202D2D2D2D2D2D2D2D2D2D5C
:100CA0002D2D2D2D2D2D2D2D2D2D2D2D2D2D2D2D74
:100CB0002D2D2D2D20330D0A0A000000202044691F
:100CC0007361626C65207468652077726974652051
:100CD00070726F74656374696F6E202D2D2D2D2DCC
:100CE0002D2D2D2D2D2D2D2D2D2D2D2D2D2D2D2D34
:100CF0002D2D2D2D20340D0A0A0000003D3D3D3DD7
:100D00003D3D3D3D3D3D3D3D3D3D3D3D3D3D3D3D13
:100D10003D3D3D3D3D3D3D3D3D3D3D3D3D3D3D3D03
:100D20003D3D3D3D3D3D3D3D3D3D3D3D3D3D3D3DF3
:100D30003D3D3D3D3D3D0D0A0A00000000400008DC
:100D4000496E76616C6964204E756D626572202112
:100D5000203D3D3E20546865206E756D62657220B1
:100D600073686F756C64206265206569746865726C
:100D700020312C20322C2033206F7220340D0000C3
:100D80004572726F723A20466C617368207772699F
:100D9000746520756E70726F74656374696F6E2010
:100DA0006661696C65642E2E2E0D0A005772697497
:100DB000652050726F74656374696F6E2064697327
:100DC00061626C65642E2E2E0D0A0000496E7661FC
:100DD0006C6964204E756D6265722021203D3D3E38
:100DE00020546865206E756D6265722073686F753A
:100DF0006C642062652065697468657220312C20FE
:100E000032206F7220330D00FEE7704770470000FC
:100E1000044A0029116801D0014300E081431160B8
:100E20007047000030380240044A0029116801D0A0
:100E3000014300E0814311607047000040380240E8
:100E4000044A0029116801D0014300E08143116088
:100E5000704700004438024070B5204A1168204CA9
:100E600011F00C0104D01F4E042903D0082903D02F
:100E700004601BE0066019E01849091F0B68C3F302
:100E800080550B6803F03F0315B1B6FBF3F301E0A7
:100E9000B4FBF3F30C680968C4F388146343C1F32B
:100EA0000141491C4900B3FBF1F1016011680F23B6
:100EB00003EA11110C4B5C5C0168E140416014686D
:100EC000072505EA94241C5D21FA04F48460126865
:100ED00005EA52329A5CD140C16070BD08380240C8
:100EE0000024F40040787D014000002070B50C46DD
:100EF000054604E0284600F0A3F9012804D0641E4A
:100F0000F8D24FF0FF3070BD002070BD2DE9F84FD2
:100F1000884600210646C8F80010924611466846E9
:100F2000FFF7E4FF4FF0FF39B0BB9DF80000182831
:100F300014D006DC012809D0022809D004282BD1BE
:100F40002EE0412816D0612826D113E0802401E04C
:100F50004FF4806401253070671D15E051466846E6
:100F6000FFF7C4FFC0B99DF80000182814D1C8F8D5
:100F7000009015E00120BDE8F88F70195146FFF789
:100F8000B5FF48B96D1CADB2BD42F6D3B1787078EB
:100F900081F0FF01884201D04846ECE7C8F80040E4
:100FA0000020E8E71CB501211020FFF731FF0820E1
:100FB000009000208DF804008DF807006946024873
:100FC000FFF78FFC1CBD00000010024070B50C46FE
:100FD0000546FFF7E7FC08B1012070BD2146284611
:100FE000FFF7E0FC0028F9D0002070BD2DE9FC419E
:100FF0008846044630493048083150F8240051F8FA
:10100000241008430121FFF703FF2B48083814B1CF
:10101000012C05D008E000680121FFF711FF03E073
:1010200040680121FFF700FF2348244E183810F8CC
:101030001420083830F8141056F82400FFF7A2FCEA
:101040001D4806F10807143810F81420083830F845
:10105000141057F82400FFF795FC00208DF80600C7
:1010600001208DF807001448022528388DF8045017
:1010700030F8140000908DF8055056F824006946A9
:10108000FFF72FFC0C488DF804502438694630F8DF
:101090001400009057F82400FFF723FCA6F1080580
:1010A000414655F8240000F071FA55F8240001215A
:1010B00000F05AFABDE8FC81281C00081C00002042
:1010C000704700003EB518A207CA8DE8070019A0B6
:1010D00000F030F9264800F01BFB041E14DD254803
:1010E00000F028F9244800F025F921466846FFF76A
:1010F000CDFC22A000F01EF9684600F01BF922A0EA
:1011000000F018F923A008E0601C05D0A01C07D04F
:10111000E41C07D025A000E02CA000F00BF93EBD98
:101120003AA0FAE740A0F8E7202020202020202045
:101130002020000057616974696E6720666F722015
:101140007468652066696C6520746F206265207321
:10115000656E74202E2E2E202870726573732027E2
:10116000612720746F2061626F7274290A0D00007C
:1011700064000020481C0008640400200A0D20536D
:10118000697A653A200000002042797465730D0A7F
:10119000000000002D2D2D2D2D2D2D2D2D2D2D2D33
:1011A0002D2D2D2D2D2D2D0A000000000A0D46613C
:1011B000696C656420746F2072656365697665206B
:1011C0007468652066696C65210A0D000A0A0D5471
:1011D000686520696D6167652073697A6520697348
:1011E00020686967686572207468616E207468653C
:1011F00020616C6C6F776564207370616365206D2E
:10120000656D6F7279210A0D000000000A0A0D5603
:101210006572696669636174696F6E206661696C85
:101220006564210A0D0000000D0A0A41626F7274A4
:10123000656420627920757365722E0A0D000000C6
:1012400010B504462021054800F098F9002804D084
:101250000248001D00882070012010BD0048004099
:1012600010B5064C0146204600F0E6F980212046E4
:1012700000F084F90028F9D010BD000000480040BB
:1012800010B50BA000F056F8FFF793FB43280DD1E3
:101290004FF47C220DA1134800F006FB08B112A008
:1012A00000E01CA0BDE8104000F044B810BD0000F4
:1012B0000A0A0D53656C656374205265636569762F
:1012C000652046696C650A0D0000000055706C6F62
:1012D00061646564466C617368496D6167652E621F
:1012E000696E0000004000080A0D4572726F72209E
:1012F0004F63637572726564207768696C6520540A
:1013000072616E736D697474696E672046696C658D
:101310000A0D00000A0D46696C652075706C6F61DE
:10132000646564207375636365737366756C6C794B
:10133000200A0D0010B5044603E000BFFFF790FF40
:10134000641C20780028F9D110BD00000CB50020E5
:101350002749019000900A6842F480320A604FF4F5
:10136000A0630A6802F400320092019A521C0192B2
:10137000009A12B9019A9A42F3D10A68920334D5BD
:10138000012000901A484030026842F0805202600A
:101390001848026842F4804202601548083002682A
:1013A0000260026842F400420260026842F4A05205
:1013B0000260031F104A1A600A6842F080720A60D5
:1013C0000A689201FCD50D4A40F20561116001687E
:1013D00021F003010160016841F002010160016830
:1013E000C1F381010229FAD10CBD00900CBD0000AF
:1013F000003802400070004019544007003C024091
:1014000070B5002204781346302C04D14478782C2F
:101410000AD0582C08D06FF02F05845C74B36B2C65
:101420002ED04B2C2CD030E082780AB30224025DFF
:101430005AB1A2F14105052D0AD9A2F16106052E86
:1014400006D91135092D07D913E001200B6011E0F1
:10145000A2F13006092E01D8303A04E0052D01D85A
:10146000373A00E0573A641C02EB03130B2CDED32F
:1014700002E000200B2C00D3002070BD0B6002E0C6
:101480001AB1980207E0012015E06D2C01D04D2C17
:1014900003D112B118050860F5E7A4F13006092E52
:1014A00008D803EB830305EB4303521C23440B2AA8
:1014B000B3D3E1E700200B2ADED270BD00F04AB8BA
:1014C0000A480B490068B0FBF1F0401EB0F1807F84
:1014D0000BD24FF0E0214861064AF02082F8140D4B
:1014E00000208861072008617047FEE75000002057
:1014F000A08601000FE000E0124810B5016841F439
:10150000700101601048016841F0010101600E4A5C
:1015100000210832116002680C4B1A400260031D62
:101520000B4A1A60026822F48022026006480C30DE
:101530000160FFF70BFF03494FF00060803908603E
:1015400010BD000088ED00E000380240FFFFF6FE0D
:101550001030002403480168002902D00168491EA8
:1015600001607047000000200029818902D041F409
:10157000005101E021F400518181704702460020B2
:1015800012880A4200D00120704700007FB504464F
:10159000008A0D4620F44051E88808432082A08943
:1015A00041F20C618843A9882A8911436A89024360
:1015B0001143A181A08A20F44071A8890843A08228
:1015C0006846FFF749FC1A48844202D01948844211
:1015D00001D1039800E00298A189090400EBC00141
:1015E00001EB0010296801D5490000E08900B0FB3B
:1015F000F1F26420B2FBF0F109010B096FF018055C
:101600006B4302EB8302A3891D044FF0320306D51E
:1016100003EBC202B2FBF0F000F0070005E003EBC1
:101620000212B2FBF0F000F00F00084320817FBDF2
:101630000010014000140140C1F30801818070478F
:1016400041F4807141F2210240004900CB0500D5F0
:10165000401CC30300D55040CB03F5D580B2704782
:10166000FEE7FEB505460120002628706E70FF20BB
:10167000A870344603E02B19641CD870A4B2085D2E
:1016800008B1FF2CF7D92819C67068461168FFF712
:10169000FDF90020241DA1B26B4604E0401C6A54F1
:1016A000491C80B289B21A5C002AF7D102E06E545C
:1016B000491C89B28329FAD3FEBD70B54FF4806608
:1016C000B34201D3344600E08024A34200D3234632
:1016D0009DB2B44201D1022300E001230B704A7095
:1016E000D2438A700322EB1C04E010F8016B8E5485
:1016F000521C92B29A42F8D3A54208D81A2298B244
:10170000E41C02E00A54401C80B2A042FAD370BD2F
:101710002DE9F04FADF22C4D4FF0000ADFF864B127
:101720000446CDF808A45546D0464FF480174FF034
:10173000FF39CDF810B4CDF814A400263A460DF2C6
:101740000C416846FFF7E2FB98B1012875D0B8F16B
:10175000000F00DD6D1C052D71DD1820FFF780FDE9
:101760005FF01800FFF77CFD00200DF22C4DBDE866
:10177000F08FDDF80C2400254A4507D042B19DF8D2
:101780000100F1B288420BD0152078E00620E9E78D
:101790000620FFF765FDDDF814040028CDD05AE0DF
:1017A000BEB120460DF10301FEF7E0FDDDF80C04AB
:1017B0002146C0F38D020DF58260FEF7F7FFD8B326
:1017C0001820FFF74DFD1820FFF74AFD6FF00100CC
:1017D000CBE79DF8030088B300212B4A0DF10300ED
:1017E00002E05354401C491C03780BB1FF29F8DD7B
:1017F00002F801A000210DF58362401C02E0535461
:10180000401C491C0378202B01D01029F7DB02F87B
:1018100001A00DF581611046FFF7F2FDDDF8080427
:101820006FF47C21C8420BD91820FFF719FD18204E
:10183000FFF716FD484698E710E016E008E01DE0C7
:101840005846FEF77FFF0620FFF70AFD432006E01B
:101850000620FFF705FDDDF8080486E70620FFF700
:10186000FFFC4FF00108761C68E71820FFF7F8FC32
:101870001820FFF7F5FC6FF0020076E74320FFF732
:10188000EFFC5BE7004000086404002070B50D46E3
:101890000646002404E0305DFFF7E2FC641CA4B2BD
:1018A000AC42F8D370BD00002DE9F74FADF5A26D45
:1018B0008146002420460DF581620B5C1354401CC8
:1018C000C0B2FF28F9D301270DF5A3620DF58161A0
:1018D0006846FFF7C6FE83216846FFF7D7FF6D46CF
:1018E00042F2107A04E083216846FFF7CFFF67B128
:1018F0008021E81CFEF778FE0646000AFFF7B0FCE0
:10190000F0B2FFF7ADFCA84606E0802108F1030025
:10191000FEF75EFEFFF7A4FC51460DF5A160FFF750
:10192000E5FA18B1641C0A2CDDD3B7E09DF8080570
:101930000628F8D10A2C6BD2CDF80C954FF0010B8C
:10194000DDF818554EE000BF0BF0FF022B4669464C
:10195000DDF80C05FFF7B1FE00208DF808050646FE
:101960004FF48064A54200D28024E11C6846FFF752
:101970008DFF214608F1030047B1FEF735FE814691
:10198000000AFFF76DFC09F0FF0001E0FEF720FE02
:10199000FFF766FC45490DF5A160FFF7A7FA18B9F6
:1019A0009DF80805062803D0761C0A2ED8D317E028
:1019B000DDF80C05A5422044CDF80C050DD92D1BF2
:1019C000BBF57C7F04D00BF101001FFA80FB05E022
:1019D000FF200DF21C5DBDE8F08F00250A2E01D31B
:1019E000F0B2F6E7002DAFD18DF808552C465746DA
:1019F0000420FFF735FC39460DF5A160FFF776FAB4
:101A000018B99DF80805062803D0641C0A2CEFD3EA
:101A100044E00A2C42D201208DF800008DF80150DC
:101A2000FF2000248DF802008DF80855032046465B
:101A30003554401CC0B28328FAD383216846FFF78F
:101A400025FF8021F01CFEF7CFFD0546000AFFF7B9
:101A500007FCE8B2FFF704FC39460DF5A160FFF77B
:101A600045FA18B1641C0A2CE7D317E09DF8080565
:101A70000628F8D101250A2C10D20420FFF7F0FB2C
:101A800039460DF5A160FFF731FA18B99DF8080540
:101A9000062801D0641C1DB10A2C04D3E0B298E7DB
:101AA0000A2CEAD3FAE7002093E70000A0860100A1
:101AB00070474FF0FF30704770B5074D0446C1B214
:101AC0002846FFF7B9FD80212846FFF757FD00287B
:101AD000F9D0204670BD0000001001401FB5FFF78F
:101AE000EFFCFEF75BFEFEF793FDFFF75BFA23A02A
:101AF000FEF7C0FB4FF47A70FEF7A0FD254C0821DD
:101B00002046FEF74FFF014623A0FEF7B3FB082156
:101B10002046FFF75BFA50B124A0FEF7ABFB284844
:101B20000168284A1140B1F1005F19D021E026A0D8
:101B3000FEF7A0FB4FF4E13000900020ADF8040068
:101B4000ADF80600ADF80800ADF80C000C20ADF8BB
:101B50000A0069460120FFF749FAFEF7B7FF08E0DF
:101B600041681F4A11601F4A1160006880F30888AD
:101B700088471DA0FEF77EFBFBE7000064656275E9
:101B80006720696E69742073756365737320212003
:101B90000A200000001002406B65795F76616C7569
:101BA00065203D202564200A000000006E6F206B38
:101BB00065792070726573732021200A200000006F
:101BC000004000080000FE2F656E746572204941D8
:101BD000502070726F636573732021200A2000000B
:101BE0000C000020080000206572726F7220212016
:101BF0000A2000004FF04070E1EE100A704700002C
:101C0000000200040004000809000A000A000B009A
:101C100007000700070007004000000100028000E5
:101C2000100000000000040001000000020000009D
:101C30000100000002000000400000004000000021
:101C400000010000040000000A0A0D2050726F67B6
:101C500072616D6D696E6720436F6D706C65746540
:101C600064205375636365737366756C6C79210AC0
:101C70000D2D2D2D2D2D2D2D2D2D2D2D2D2D2D2DB4
:101C80002D2D2D2D2D2D2D2D2D2D2D2D2D2D2D2D84
:101C90002D0D0A204E616D653A2000000D0A3D2091
:101CA0002020202020202020202020202020202034
:101CB0002020202020202020202020202020202024
:101CC0002020202020202020202020202020202014
:101CD0002020202020202020202020202020202004
:101CE0002020203D000000000D0A3D202020202063
:101CF00020202020202020202028432920434F502E
:101D000059524947485420323031312053544D699B
:101D100063726F656C656374726F6E6963732020A4
:101D20002020202020202020202020202020203D96
:101D3000000000000D0A3D2020202020202020202F
:101D40002020202020202020202020202020202093
:101D5000202020202020202020204279204D434494
:101D6000204170706C69636174696F6E20546561A5
:101D70006D202020202020202020203D0000000079
:101D80000D0A3D202053544D333246347878204993
:101D90006E2D4170706C69636174696F6E20507252
:101DA0006F6772616D6D696E67204170706C6963F9
:101DB0006174696F6E20202856657273696F6E209A
:101DC000312E302E3029203D000000000D0A3D3D0F
:101DD0003D3D3D3D3D3D3D3D3D3D3D3D3D3D3D3D33
:101DE0003D3D3D3D3D3D3D3D3D3D3D3D3D3D3D3D23
:101DF0003D3D3D3D3D3D3D3D3D3D3D3D3D3D3D3D13
:101E00003D3D3D3D3D3D3D3D3D3D3D3D3D3D3D3D02
:101E10003D3D3D3D00000000381E00080000002050
:101E200064000000C40100089C1E0008640000203B
:101E3000640B0000E001000800000000000000004A
:101E40000000000000000000000000000010014041
:101E50000048004000000240000402400000024030
:101E60000004024000180240001802400020024016
:101E7000000802400000000000000000010203040E
:101E80000102030406070809007A030A00000000A3
:0C1E90000000000001020304060708091E
:040000050800018965
:00000001FF
