:020000040800F2
:100000004812002045010008D3220008A72100085B
:10001000D122000853070008A94100080000000091
:10002000000000000000000000000000D7250008CC
:100030009D08000800000000D5250008D92500080B
:100040005F0100085F0100085F0100085F01000810
:100050005F0100085F0100085F0100085F01000800
:100060005F0100085F0100085F0100085F010008F0
:100070005F0100085F0100085F0100085F010008E0
:100080005F0100085F0100085F0100085F010008D0
:10009000414000085F0100085F0100085F0100089F
:1000A0005F0100085F0100085F0100085F010008B0
:1000B0005F0100085F0100085F0100085F010008A0
:1000C0005F0100085F0100085F0100085F01000890
:1000D0005F010008CD2800085F0100085F010008EB
:1000E0005F0100085F0100085F0100085F01000870
:1000F0005F0100085F0100085F0100085F01000860
:100100005F0100085F0100085F0100085F0100084F
:10011000592600085F0100085F0100085F01000820
:100120005F0100085F0100085F0100085F0100082F
:10013000DFF80CD000F052FA00480047054B0008E9
:10014000481200200648804706480047FEE7FEE7C1
:10015000FEE7FEE7FEE7FEE7FEE7FEE7FEE7FEE777
:100160005526000831010008202A04DB203A21FA34
:1001700002F00021704721FA02F3D040C2F12002C0
:10018000914008431946704740EA01039B0703D09A
:1001900009E008C9121F08C0042AFAD203E011F8C6
:1001A000013B00F8013B521EF9D27047D2B201E088
:1001B00000F8012B491EFBD270470022F6E710B56C
:1001C00013460A4604461946FFF7F0FF204610BDC5
:1001D000421C10F8011B0029FBD1801A704730B572
:1001E0000B46014600202022012409E021FA02F5F5
:1001F0009D4205D303FA02F5491B04FA02F528448F
:10020000151EA2F10102F1DC30BD2DE9F05F0546BB
:10021000002092469B4688460646814640241BE0C5
:100220002846414647462246FFF79EFF53465A4618
:10023000C01A914110D311461846224600F0E0F949
:100240002D1A67EB01084F4622460120002100F0DD
:10025000D7F917EB00094E41201EA4F10104DFDCA1
:10026000484631462A464346BDE8F09F2DE9FE4FF9
:10027000804681EA0300C00F0C46009021F0004147
:1002800023F00045B8EB0200A94105D240462146C3
:1002900090461C460B46024623F00040104347D0D0
:1002A000270DC7F30A00C3F30A510290401A0190C8
:1002B00040286BDAC3F3130040F4801B0098924689
:1002C00020B10023D2EB030A63EB0B0B01985946D4
:1002D000C0F14002504600F093F906460D465046E4
:1002E0005946019A00F09BF910EB08006141002487
:1002F00087EA115284EAE7731A4340D0009A62B346
:10030000019A012A4FEA075215DC001B61EB02013A
:100310004FF0004202EA0752CDE90042001C41F5CD
:10032000801132462B4600F09BF903B0BDE8F08FF8
:1003300040462146F9E7001B61EB0201001C41F534
:10034000801300185B412018A2F5001747EB03014A
:1003500040EAD570B6196D4111E06D084FEA3606D6
:1003600045EAC0754FEA0752001B61EB0201001C11
:1003700041F5801149084FEA3000001951413246D9
:100380002B4603B0BDE8F04F00F05BB900980122A6
:1003900040000023D0EB020263EBE073009821469B
:1003A0004FEAE074B8EB000061EB0401E9E783F089
:1003B00000435BE781F0004158E72DE9FE4F81EAF9
:1003C000030404F0004421F0004100944FF0000BBE
:1003D00023F0004350EA01045ED052EA03045BD0EC
:1003E000C3F30A54C1F30A552C44A4F2F334019424
:1003F000A0FB0254C1F3130141F48011C3F31303B2
:1004000043F4801301FB024400FB034E840A970A65
:1004100044EA815447EA8357A4FB076802958D0A92
:1004200005FB07854FEA932C04FB0C542705029D1E
:100430004FEA065847EA1637B5EB08056EEB070C8E
:10044000870E920E47EA811742EA8312A7FB020148
:10045000B6EB0B0164EB00042B0D43EA0C335E1882
:1004600044EB1C50DA465146E7FB0201C5F3130486
:100470004FEA0B3343EA14534FEA0432019C43EA38
:100480000603A4F10C040294009CCDE900B400F032
:10049000E7F803B0BDE8F08F00200146F9E72DE949
:1004A000F04D81EA030404F0004B21F000451446AE
:1004B0004FF0000A23F0004150EA050220D054EA30
:1004C00001021DD0C5F30A570246C5F31303C1F359
:1004D0001300C1F30A5640F4801543F48013A7EBD0
:1004E0000608101BD64608F2FD3873EB050002D350
:1004F00008F1010801E092185B41B8F1000F03DA3E
:1005000000200146BDE8F08D00204FF48011064622
:1005100084460EE0171B73EB050705D3121B63EB34
:10052000050306434CEA010C49084FEA30009218D3
:100530005B4150EA0107EDD152EA030012D082EA92
:10054000040083EA0501084305D0101BAB4106D225
:100550000122002306E000224FF0004302E06FF08A
:10056000010253101AEB06004CEB085110EB0A0085
:1005700041EB0B01BDE8F04D00F063B8C1F30A5246
:10058000C1F3130140F2FF3341F480119A4202DAC1
:1005900000200146704740F233439A42A2F23342B0
:1005A00002DC5242FFF7E0BD00F02AB830B5041E6D
:1005B00071F1000404DB4FF00044404264EB0101A0
:1005C000141E73F1000405DB1C464FF00043524239
:1005D00063EB0403994208BF904230BD064C074DBF
:1005E00006E0E06840F0010394E807009847103403
:1005F000AC42F6D3FFF7A0FDCC4B0008EC4B000853
:10060000202A04DB203A00FA02F1002070479140D2
:10061000C2F1200320FA03F3194390407047202AC7
:1006200006DBCB17203A41FA02F043EAE07306E01A
:1006300041FA02F3D040C2F120029140084319462A
:10064000704710B5141E73F1000408DA401C41F124
:10065000000192185B411A4301D120F0010010BD46
:100660002DE9F04D92469B4611B1B1FA81F202E0BC
:10067000B0FA80F220329046FFF7C2FF04460F46E0
:1006800040EA0A0041EA0B0153465A46084313D098
:10069000114653EA010019D0C8F140025046FFF755
:1006A00063FD05460E46504659464246FFF7A8FFF1
:1006B000084305D0012004E020463946BDE8F08D0E
:1006C0000020054346EAE0762C4337430A98630549
:1006D000E40AA0EB08000022FD0A44EA47540A306D
:1006E00002D500200146E9E7010510196941DDE95D
:1006F000084500196941BDE8F04DA2E770B58C18B6
:1007000010F8015B15F0070301D110F8013B2A1125
:1007100006D110F8012B03E010F8016B01F8016B12
:100720005B1EF9D12B0705D40023521E0DD401F80E
:10073000013BFAE710F8013BCB1A921C03E013F8D7
:10074000015B01F8015B521EF9D5A142D8D300200C
:1007500070BDFEE710B5042832DD1A4C202802D007
:1007600021282DD11BE0CA78086862F31F60206041
:10077000087920714A7962718979A171014612A0C4
:1007800003F014FD617916A003F010FDA1791BA000
:1007900003F00CFD20A0216803F008FD10E0207894
:1007A00008702088000A48702068000C8870206853
:1007B000000EC8702079087160794871A07988713D
:1007C000002010BD680000206C696E65636F64696D
:1007D0006E672E666F726D61743A25640D0A0000B3
:1007E0006C696E65636F64696E672E70617269749F
:1007F00079747970653A25640D0A00006C696E653C
:10080000636F64696E672E64617461747970653AB0
:1008100025640D0A000000006C696E65636F6469F1
:100820006E672E626974726174653A25640D0A0000
:100830000020704710B50349034802F039F9002041
:1008400010BD000074080020E802002070B50C46BE
:1008500005460146054802F02BF9044802F00CF960
:100860002846216803F058FC002070BDE8020020F3
:100870000A46094910B5D1F8B812D1F8141209B1D5
:10088000012010BD0146044802F018F9BDE81040EF
:10089000014802F071B90000E8020020704772B60A
:1008A000FEE710B590F821100022022905D004219E
:1008B000816380F82020012010BD01680B6823F0BF
:1008C0000E030B6001680B6823F001030B6090F8C6
:1008D0004030012404FA03F1C36B596080F82140D1
:1008E00080F82020104610BD2DE9F05F90F821100F
:1008F0000024022903D004218163012485E00168DA
:100900000A6822F00E020A6001680A6822F00102F9
:100910000A603F4E3E4FB215DFF8F4C0DFF8F090AA
:10092000DFF8ECA0DFF8E8B0DFF8E4E00168783F3A
:1009300013011502ACF1640CA9F15009AAF13C0AAB
:10094000ABF1280BAEF1140E4FF48018B14227D949
:10095000B9420ED0614512D049451DD0514518D03D
:10096000594518D0714501D1424615E0294EB14292
:1009700001D1012210E0274E1436B14201D11022DC
:100980000AE0244E2836B14206D0224A3C32914237
:1009900001D11A4600E02A461E49091F0A602BE0D1
:1009A000B94213D0614517D0494522D051451DD0D9
:1009B00059451DD0714501D142461AE0B14202D1DC
:1009C0004FF0807215E0134EB14201D1012210E0C8
:1009D000104E1436B14201D110220AE00D4E2836D5
:1009E000B14206D00B4A3C32914201D11A4600E096
:1009F0002A46074980394A60012180F821100021E8
:100A000080F82010416B01B188472046BDE8F09F77
:100A1000800002400804024070B5044600F00CF962
:100A20000546601C02D004480078044400F004F934
:100A3000401BA042FAD370BD740000202DE9F84F8E
:100A4000DFF8C091002409F1040A0AF1040B2346DF
:100A50004FF00F080BF1040ECCE00127A7403A40FD
:100A6000BA4272D1DFF8A0C14D68A5EB0C0665450E
:100A70002BD00DDC032D34D005DC35B3012D19D07E
:100A8000022D2FD11BE0112D16D0122D2AD119E0E5
:100A9000B6F5881F19D006DCB6F5803F15D0B6F53F
:100AA000801F1FD111E0B6F5001F0ED0B6F5041F50
:100AB00018D10AE0CB6815E0CB681B1D12E0CB68AB
:100AC00008330FE0CB680C330CE08B682BB1012BA3
:100AD0004FF0080303D0476104E0042302E00761FC
:100AE00000E00023FF2A01D8064601E000F10406D9
:100AF0004FEA840501D9A5F12005376808FA05FCFD
:100B000027EA0C0703FA05F547EA050737604D6841
:100B1000ED006ED53D4DAE6946F00106AE61AD69A2
:100B200024F0030605F001050095394D7719BE68DC
:100B3000A5072D0F08FA05FC26EA0C06DFF8D4C03D
:100B4000604503D14FF0000C25E052E0DFF8C8C04B
:100B5000604502D14FF0010C1DE0DFF8C0C06045D8
:100B600002D14FF0020C16E0DFF8B4C0604502D1AC
:100B70004FF0030C0FE0DFF8ACC0604502D14FF03E
:100B8000040C08E0DFF8A0C0604502D14FF0050C6E
:100B900001E04FF0060C0CFA05FC4CEA060CC7F815
:100BA00008C04D68D9F80060ED034D4601D51643E5
:100BB00000E096432E604D68DAF80060AD035546BC
:100BC00001D5164300E096432E604D68DBF80060C7
:100BD000ED025D4601D5164300E096432E604D6858
:100BE000DEF80060AD02754601D5164300E096437D
:100BF0002E60641C0A6832FA04F57FF42EAFBDE85B
:100C0000F88F0000000401400000111000100240A5
:100C10000000014000080140000C014000100140AC
:100C20000014014000180140001C01400AB101619C
:100C300070470904FBE70000014880687047000026
:100C40007400002002488168027811448160704776
:100C500074000020074810B5016841F010010160E0
:100C6000032000F075F8002000F006F800F024F8EA
:100C7000002010BD0020024070B50D4D04464FF419
:100C80007A712878B1FBF0F00A490968B1FBF0F0FD
:100C900001F02CF848B9102C07D200222146501E32
:100CA00000F036F800206C6070BD012070BD0000BF
:100CB00074000020800000200C4808B5816941F0D4
:100CC00001018161816901F001010091C16941F077
:100CD0008051C161C069064900F0805000904868A9
:100CE00020F0E06040F00070486008BD0010024055
:100CF00000000140002809DB00F01F0201219140A3
:100D00004009800000F1E020C0F8001170470000A9
:100D1000F0B40E4B1B68C3F30223C3F10704042C89
:100D200000D904241D1D072D01D2002300E0DB1E85
:100D3000012606FA04F56D1E0D409D409E40761E6C
:100D4000164045EA0601F0BC03F052BA0CED00E093
:100D5000064A00F0070110684FF6FF03184040EA0A
:100D60000120034908431060704700000CED00E0CB
:100D70000000FA0510B50C0607D501F0070101EBDC
:100D8000810100EBC100283005E001EB810100EB9F
:100D9000C10000F5B47099B232B101220273018131
:100DA000190C4181002010BD00220273C180F9E7B7
:100DB000704701EB810200EBC202D0F8E802D26B6F
:100DC00002F089B801EB810200EBC202D0F8E80220
:100DD000D2F87C2102F0E2B870B504460B0601F0AF
:100DE000070000EB800104EBC1014FF001024FF05E
:100DF000000503D581F82920283103E081F86951E5
:100E000001F5B471087094F8A802012808D084F89C
:100E1000A822206802F00FFD84F8A852002070BDBF
:100E2000022070BD70B5044601F00F006268904268
:100E300001D9012070BD0B0601F0070000EB800115
:100E400004EBC1014FF001024FF0000503D581F81A
:100E50002920283103E081F8695101F5B4718D70C2
:100E6000087094F8A802012808D084F8A822206805
:100E700002F07FFD84F8A852002070BD022070BDF2
:100E80002DE9F05F046857040B788D69B4F8507051
:100E90004FF000064BF68F7948F2800A48F68F7BB8
:100EA00048F2C00E4FF480682AD54FF0020C0CEBCC
:100EB000C30C674408EB4707E45BC4F30904A5428D
:100EC00003D32D1B8D6101D00BE08E61056835F8D1
:100ED000236006EA090686F4005646EA0A0625F863
:100EE0002360520609D50A78036833F8225005EAD0
:100EF0000B0545EA0E0523F8225084B30A8929E040
:100F00004FF0060C0CEBC30C674408EB4707E45B9F
:100F1000C4F30904A54203D32D1B8D6101D00BE05E
:100F20008E61056835F8236006EA090686F40056E6
:100F300046EA0A0625F82360520609D40B780268AF
:100F400032F8235005EA0B0545EA0E0522F8235036
:100F50002CB14A8949690068234603F094F8204679
:100F6000BDE8F09F2DE9F05F054600680C465FEA9A
:100F7000426C8B6916460978B0F850C048F68F77F6
:100F80004CF280094FF6FF7B4FF4004E4FF4806A1D
:100F90004FF0000275D54FF0020808EBC108E0449D
:100FA0000AEB480C30F80C00C0F30900834211D959
:100FB0001B1AA3610FD0730407D52B6833F8216087
:100FC0003E4046EA090623F8216094F824100129DE
:100FD00049D04CE1A261607810B1012813D01AE029
:100FE0002868B0F85030184400EB0110B0F8041431
:100FF00021F4F841A0F80414B0F8041441F40041BD
:10100000A0F8041407E02868B0F85030184400EB4A
:101010000110A0F804246178286811B1012913D0C7
:101020001AE0B0F850100844217800EB0110B0F835
:101030000C1421F4F841A0F80C14B0F80C1441F48D
:101040000041A0F80C1407E0B0F8501008442178D3
:1010500000EB0110A0F80C2421782846FFF7A9FE28
:1010600070047CD403E1616901446161E169014478
:10107000E1612369216A994204D31846091A216261
:1010800005E038E084F8242009B10846226261783E
:1010900011B1012923D02BE02968B1F85020114467
:1010A000227801EB021101F2044148B13E280FD829
:1010B0004208C30700D0521C0BEA82220A8017E0C4
:1010C0000A8822F4F8420A800A8842F40042F5E7CE
:1010D0004209C30600D1521E4EEA8222EEE7296879
:1010E000B1F850201144227801EB0211A1F8040458
:1010F00083B22289B7E04FF0060808EBC108E0444C
:101100000AEB480C30F80C00C0F30900834211D3FD
:101110001B1AA3610FD0730407D42B6833F8216026
:101120003E4046EA090623F8216094F8241001297C
:1011300054D09CE0A261607810B1012815D01CE069
:101140002868B0F85030184400EB0110B0F80414CF
:1011500021F4F841A0F80414B0F8041400E033E0DE
:1011600041F40041A0F8041407E02868B0F85030BA
:10117000184400EB0110A0F804246178286811B12C
:10118000012913D01AE0B0F850100844217800EB80
:101190000110B0F80C1421F4F841A0F80C14B0F8C8
:1011A0000C1441F40041A0F80C1407E0B0F8501002
:1011B0000844217800EB0110A0F80C24217828467F
:1011C000FFF7F7FD700452D42178286830F8212009
:1011D0003A4042EA090220F8212048E061690144CE
:1011E0006161E1690144E1612369216A994203D3A4
:1011F0001846091A216204E009B10846226284F8FF
:1012000024206278296812B1012A22D029E0B1F89D
:1012100050201144227801EB021101F20C4148B137
:101220003E280FD84208C30700D0521C0BEA822286
:101230000A8016E00A8822F4F8420A800A8842F4FA
:101240000042F5E74209C30600D1521E4EEA82224F
:10125000EEE7B1F850201144227801EB0211A1F819
:101260000C04628983B26169286802F08AFF2178E0
:10127000286830F8212048F6BF731A4082F0300207
:1012800048F280031A4320F821200020BDE8F09F97
:1012900001F0070101EB810100EBC100D0F88401EE
:1012A00070472DE9F04104460F0601F0070000EBFE
:1012B000800104EBC1014FF001064FF0000503D59A
:1012C00081F82960283103E081F8695101F5B47192
:1012D00008700A61CB704A7802B1C881022B00D134
:1012E0000D7194F8A802012809D084F8A86220683A
:1012F00002F066F9284684F8A852BDE8F081022081
:10130000FBE770B50D4601F0070404EB840100EB28
:10131000C101C1E95F230022C1F8842181F869215C
:1013200081F8684101F5B4716A07006802F074FB46
:10133000002070BD70B504460D4601F007006168DD
:10134000884201D9012070BD29064FF000064FF0F8
:10135000010207D500EB800104EBC10181F82920CF
:10136000283107E005EB850104EBC10181F86961D3
:1013700001F5B4718A70087094F8A802012807D0AA
:1013800084F8A822206802F02EFB680702D006E04D
:10139000022070BD04F52C71206802F0E8FA84F890
:1013A000A862002070BD70B50D4601F0070404EB83
:1013B000840100EBC101C1E90F23012281F84C2017
:1013C0008B6400234B6481F8292001F8284F6A07B9
:1013D000006802F021FB002070BD1FB504460068C4
:1013E00002F04EFE000402D5204600F073FF206894
:1013F00002F046FE40050CD5206830F8441F21F469
:1014000080610180204600F01DF90021204600F097
:1014100034F9206802F034FE400405D5206830F825
:10142000441F21F480410180206802F029FE8004DD
:1014300005D5206830F8441F21F400510180206850
:1014400002F01EFEC00414D5206830F8401F21F0C1
:1014500004010180206830F8401F21F0080101805C
:10146000204600F002F9206830F8441F21F4805132
:101470000180206802F004FE00053ED521680020AE
:101480006A4631F8203022F81030401CC0B20828DB
:10149000F7D331F8400F40F001000880206830F8A1
:1014A000401F21F0010101802068B0F84410490577
:1014B000FBD530F8441F21F48061018000202368AF
:1014C00032F8101023F82010401CC0B20828F6D3C0
:1014D000206830F8401F41F008010180206830F892
:1014E000441F21F400610180206830F8401F41F062
:1014F00004010180204600F0F5F8206802F0C0FDEC
:10150000800508D5206830F8441F21F4007101805F
:10151000204600F0AEF8206802F0B2FDC00505D507
:10152000206830F8441F21F4807101801FBD2DE92F
:10153000F04186B0040004D094F8A902002520B13F
:1015400008E0012006B0BDE8F08184F8A8522046EA
:1015500000F05AF8032084F8A902206802F000FA8B
:1015600004F11001142288466846FEF70DFE94E847
:101570000F0002F05EF90227C8BB0021206802F0CC
:10158000C3FD002101260EE001EB810004EBC00049
:1015900080F8296000F8281FC181C5700561456188
:1015A000491CC9B2856160688842EDD8002111E00C
:1015B00001EB810004EBC00080F8695180F86811EC
:1015C00080F86B51C0F87851C0F87C51491CC9B201
:1015D000C0F8805160688842EAD8142241466846C3
:1015E000FEF7D2FD94E80F0002F0B1F910B184F8D3
:1015F000A972A6E784F8245084F8A962206802F052
:10160000A4F900209EE7000008B500680B49884255
:1016100012D10B48C16941F40001C161C0690022C7
:1016200000F40000009011461420FFF771FBBDE8A4
:1016300008401420FFF75EBB08BD0000005C0040BE
:101640000010024070B5044680680125022801D0D0
:10165000FFF725F92946D4F8E80201F088FDD4F80F
:10166000E802BDE8704001F044BDD0F8E80201F0A6
:1016700068BDD0F8E80201F06EBD10B5044690F8E0
:10168000A80201280BD0012084F8A80284F82410B5
:10169000206802F03BFD002084F8A80210BD022063
:1016A00010BDD0F8E82200F52C71104601F06BBD9A
:1016B00010B5044690F8A802012810D0012084F843
:1016C000A802206802F0ACFC01212046FFF770FB65
:1016D000206802F038F9002084F8A80210BD02202A
:1016E00010BD000010B50446D0F8E80201F08AFDF4
:1016F000A069002804D00348016841F00601016098
:1017000010BD000010ED00E02DE9F843044600781C
:10171000344FC00752D0F8690025C00008D4F869DA
:1017200040F08050F861F869012500F08050009089
:101730002D480168C90511D40168804641F48071C3
:101740000160FFF779FA064604E0FFF775FA801B9F
:10175000642822D8D8F80000C005F6D5386A10F4FD
:10176000407020D0A18801F4407181421BD0386ABA
:101770001E49012220F440700A6000220A6038628B
:10178000C00710D0FFF758FA064641F2883807E044
:10179000FFF752FA811B414502D90320BDE8F883C7
:1017A000386A8007F4D5386A616820F440700843CD
:1017B00038621DB1F86920F08050F8612078800708
:1017C00005D57868A16820F4404008437860207807
:1017D000C00605D57868616920F480000843786008
:1017E0000020DBE70010024000700040400442424D
:1017F0002DE9F0470D46040067D0DFF81881D8F8CE
:10180000000000F00700A8420CD2D8F8001021F028
:1018100007012943C8F80010D8F8000000F00700BD
:10182000A84252D120683C4E810712D5400703D50B
:10183000706840F4E06070602078000703D570683D
:1018400040F4605070607068A16820F0F0000843B8
:1018500070602078C00727D06068012810D03168F8
:10186000022810D0890700292FDA716821F00301BE
:1018700001437160FFF7E0F9074641F288390CE057
:1018800031688903EFE78901EDE7FFF7D5F9C11B5F
:10189000494502D90320BDE8F0877068616800F00F
:1018A0000C00B0EB810FF0D1D8F80010404601F0E9
:1018B0000701A9420BD9016821F007012943016002
:1018C000006800F00700A84201D00120E3E720787B
:1018D000400705D57068E16820F4E0600843706057
:1018E0002078000706D57068216920F4605040EA2E
:1018F000C100706000F038F87168084AC1F3031144
:10190000515CC8400649086006480068FFF7B4F912
:101910000020C0E70020024000100240B44B000845
:1019200080000020780000200448054900684968CC
:10193000044AC1F30221515CC84070478000002076
:1019400000100240C44B000804480549006849687B
:10195000044AC1F3C221515CC84070478000002096
:1019600000100240C44B000812A085B00FC88DE8DB
:101970000F0014A0144B006804905968134801F03C
:101980000C02042A10D0082A0ED1C1F38342C903E5
:101990001DF802000AD5596804AAC1F34041515C00
:1019A0000A4A5043B0FBF1F005B07047084948437C
:1019B000FAE7000002030405060708090A0B0C0DEC
:1019C0000E0F1010010200000010024000127A00F9
:1019D00000093D002DE9F84F04006FD02078BE4D7E
:1019E000C00747D06868C0F38100012807D0686845
:1019F000C0F38100022809D16868C00306D52868B1
:101A0000800337D560680028E7D033E06068B0F520
:101A1000803F0BD010B1B0F5A02F11D0286820F472
:101A200080302860286820F4802002E0286840F494
:101A300080302860606888B1FFF7FEF8064609E04C
:101A4000286840F480202860F0E7FFF7F5F8801B55
:101A5000642873D828688003F7D50BE0FFF7ECF80B
:101A6000064604E0FFF7E8F8801B6428F1D82868F0
:101A70008003F7D42078DFF8648280074FF0010AF2
:101A80004FF0000939D5686810F00C0F07D068686E
:101A9000C0F38100022809D16868C00306D4286811
:101AA000800714D52069012808D110E02069B0B161
:101AB000C8F800A0FFF7C0F8064605E007E1FFF709
:101AC000BBF8801B0228C4D828688007F7D528688F
:101AD000616920F0F80040EAC10028600DE0C8F814
:101AE0000090FFF7A9F8064604E0FFF7A5F8801B71
:101AF000022823D828688007F7D4207800072CD53F
:101B00007748A169D9B1C0F800A0FFF795F806465B
:101B100004E0FFF791F8801B02280FD8686A80075D
:101B2000F7D570484FF4FA510068B0FBF1F000901F
:101B300000BF0098411E0091FAD20EE07CE0C0F890
:101B40000090FFF779F8064604E0FFF775F8801B70
:101B5000022871D8686A8007F7D4207840075BD5DF
:101B6000E8690027C00008D4E86940F08050E861C7
:101B7000E869012700F0805000905B480168C905C2
:101B800011D40168834641F480710160FFF754F875
:101B9000064604E0FFF750F8801B64284CD8DBF8B9
:101BA0000000C005F6D5E06801280AD008B1052874
:101BB00013D0286A20F001002862286A20F004006F
:101BC00002E0286A40F001002862E06841F2883BA8
:101BD00088B1FFF731F8064609E0286A40F00400B2
:101BE0002862EEE7FFF728F8811B59455BD8286A81
:101BF0008007F7D50BE0FFF71FF8064604E0FFF774
:101C00001BF8811B59454ED8286A8007F7D41FB1AD
:101C1000E86920F08050E861E069A8B36968C1F321
:101C20008101022946D00228484606D0C8F8600043
:101C3000FFF702F8044639E035E04746C8F860008F
:101C4000FEF7FAFF064604E0FEF7F6FF801B0228C7
:101C500029D828688001F7D4206AB0F5803F05D1E3
:101C60006868A16820F4003008436860D4E908017E
:101C70000843696821F4741108436860C7F860A0DC
:101C8000FEF7DAFF044605E023E0FEF7D5FF001B70
:101C9000022808D828688001F7D51AE0FEF7CCFFA3
:101CA000001B022802D90320BDE8F88F28688001B4
:101CB000F4D40EE00128F7D06868226A00F480317D
:101CC000914204D1616A00F47010884201D0012071
:101CD000EAE70020E8E7000000100240000042426E
:101CE00080044242800000200070004010B5401E79
:101CF000B0F1807F01D3012010BD4FF0E02460617E
:101D00000F21601702F074FA0020A0610720206103
:101D1000002010BD7047704710F83D1F4078084301
:101D200070470000F8B5026804461068D16853692E
:101D300010F00F0F4FF0000553D003F0010601F42F
:101D4000907737435FD0C20705D0CA0503D5226C10
:101D500042F001022264420705D5DA0703D0226C63
:101D600042F002022264820705D5DA0703D0226C12
:101D700042F004022264020707D501F02002324338
:101D800003D0226C42F008022264226C002A34D074
:101D9000800604D5880602D5204600F093FC206812
:101DA0004069216CC0F38010090700D430B320468D
:101DB00000F070FC2068416949061BD5416921F09B
:101DC00040014161A06BA8B158494163A06BFEF787
:101DD0008BFD002811D0A06B416B01B0BDE8F04035
:101DE000084783060FD58B060DD52046BDE8F84081
:101DF00000F068BC2046FFF78EFFF8BD2046FFF7D5
:101E00008AFF2564F8BD266B2023012E52D1C60619
:101E100050D5CE064ED510685068009050694006E7
:101E20002AD5A16B086840680004000CEAD0A68D92
:101E30008642E7D9E0858869202818D0D06820F448
:101E40008070D0602068416921F001014161206803
:101E5000416921F04001416184F83E3025632068EA
:101E6000C16821F01001C160A06BFEF71AFDA08DC2
:101E7000E18D401A81B219E0A08DE18D401A81B246
:101E8000E08D0028BED00029BCD0D06820F490702E
:101E9000D0602068426922F00102426184F83E303D
:101EA00025632068C26822F01002C2602046FFF756
:101EB00031FFF8BD05062BD50D0629D594F83D0058
:101EC0002128F6D1A068B0F5805F01D12069B0B1BA
:101ED000206A411C2162216800784860E08C401E25
:101EE0000004000CE084E4D12068C16821F0800186
:101EF000C1602068C16841F04001C160F8BD206A3E
:101F00000088C0F308005060206A801C2062E5E76A
:101F10004006F3D54806F1D5D168204621F04001AE
:101F2000D16084F83D3000F03DF9F8BD8526000809
:101F300070B5040004D094F83D00002510B106E00F
:101F4000012070BD84F83C50204600F023F8242086
:101F500084F83D002068C16821F40051C16020462A
:101F600000F00CFC2068016921F4904101612068B7
:101F7000416921F02A0141612068C16841F40051A2
:101F8000C1602564202084F83D0084F83E000020D4
:101F900070BD000070B586B00024009401940294D6
:101FA000039401682E482D4E051502220323B142E9
:101FB00026D1C16941F40021C161C16901F4002148
:101FC0000491816941F0100181618069CDE900527D
:101FD00000F01000CDE90330224D69462846FEF797
:101FE0002DFDE814CDE90004694628460294FEF769
:101FF00025FD002211463420FEF78AFE342028E019
:10200000194EB14227D1816941F4804181618169D2
:1020100001F480410491816941F00401816180698A
:10202000694600F0040004907015CDE900020F4EDF
:1020300003933046FEF702FDCDE900546946304671
:102040000294FEF7FBFC002211462520FEF760FEFD
:102050002520FEF74FFE06B070BD0000004C00408A
:10206000001002400010014000380140000801400B
:1020700090F83E30202B0ED159B152B190F83C303F
:10208000012B08D0012380F83C300023036300F0CB
:10209000D1BB0120704702207047000030B50068B6
:1020A000114988420CD1114A5088010408D41146C4
:1020B000440409784FF0000306D50A2901D0538063
:1020C00030BD40F400400DE00D2909D0C0F30D04EF
:1020D000074D401C80B229555080C728EFD830BD2D
:1020E00040F48040508030BD004C00400000002093
:1020F000980100202DE9F843044690F83D001F4662
:1021000015460E4620284BD1C6B1BDB194F83C000F
:10211000012845D0012084F83C004FF00008C4F8A5
:102120004080212084F83D00FEF786FDA58481468D
:10213000E584A068B0F5805F03D004E00120BDE82D
:10214000F883206920B13546002684F83C800EE0F3
:102150000025FAE78021204600F087FBA0B9ADB149
:1021600015F8010B21684860E08C401EE084E08C8B
:102170004B464FF0000200970028EBD14FF0400192
:10218000204600F072FB30B10320D8E736F8020B8E
:10219000C0F30800E6E7202084F83D000020CEE7E9
:1021A0000220CCE77047FEE7F0B500230A24302573
:1021B00037261F4610E0B4EB107F02D905EB107CE8
:1021C00001E006EB107C01F813C001EB430C0001A9
:1021D0005B1C8CF80170DBB29342ECD3F0BD0000C5
:1021E000094808B5816941F004018161816901F004
:1021F00004010091816941F010018161806900F062
:102200001000009008BD0000001002400C4810B5FE
:102210000A4901604FF4E1314160002181600C22E4
:10222000C160C0E904128161C161FFF781FE00282D
:1022300003D0BDE81040FEF732BB10BD004C00409B
:10224000600200200C4810B50A4901604FF4E131EA
:102250004160002181600C22C160C0E904128161EB
:10226000C161FFF765FE002803D0BDE81040FEF70E
:1022700016BB10BD00380140A402002010B500229A
:102280000F49104800F000FE08B1FEF708FB0E49A8
:102290000C4800F0DDFF08B1FEF701FB0B490948CF
:1022A00000F0FEFB08B1FEF7FAFA064801F026F846
:1022B000002803D0BDE81040FEF7F1BA10BD0000C1
:1022C00008000020E80200206001002058000020E3
:1022D000FEE7FEE72DE9F05F04464FF0060A4FF0F7
:1022E000020B4FF480696CE1B0F8441011F00F0656
:1022F00039D030F826805FEA08417DD530F82610C5
:1023000040F68F72114041F0800120F8261006EB54
:10231000860004EBC00595F8740105F5B475002836
:102320006BD0E878022869D02978206830F821201D
:1023300048F68F731A4048F2C0031A4320F8212050
:102340002978206830F82120B0F8503052047DD52B
:102350000BEBC1015A1809EB4201415A8F05BF0D21
:1023600075D02A89D2E0C9062ED4018848F60F72AA
:10237000114041F400410180206804F12805B0F8C3
:1023800050202B780BEBC3010A4409EB4201405A61
:10239000C0F309006064E16B0844E063002120465B
:1023A000FEF707FD94F8240000289CD0A8690028B7
:1023B00099D194F82400216840F08000A1F84C00E5
:1023C000002084F82400FCE0018804F5B4750A05B7
:1023D00021D5B0F850202B780AEBC3010A4409EB51
:1023E0004201405A04F52C71C0F30903EB61EA88FD
:1023F000206801F048FE02E0A0E067E075E0206898
:10240000018840F68F72114041F080010180204622
:10241000FFF747F9D5E00904D5D5018840F68F725A
:10242000114041F0800101802068B0F850202B78E5
:102430000AEBC3010A4409EB4201405A83059B0D94
:10244000EB6110D0696971B1EA8801E054E052E0B3
:10245000206801F018FEE969686908446861002194
:102460002046FEF7AFFC2068018809052DD4B0F89E
:1024700050100844296900F20C4051B13E2910D88F
:102480004A08C90700D0521C4FF6FF7101EA8221A9
:102490000FE0018821F4F8410180018841F40041F6
:1024A00007E04A09C90600D1521E4FF4004141EA33
:1024B00082210180206801884BF68F72114081F4DF
:1024C000405148F28002114301807AE02068B0F860
:1024D00050202B780AEBC3010A4409EB4201415A10
:1024E0008F05BF0D16D0EA8810E0424629462046E7
:1024F000FEF7C6FC07460DE00AEBC1015A1809EBCE
:102500004201415A8F05BF0D04D06A893B46696973
:1025100001F0B9FDE8693844E861686938446861E8
:10252000A86910B12869B84204D929782046FEF775
:1025300049FC03E02946206801F06EFA5FEA086072
:102540003FD506EB860004EBC001206830F826205A
:1025500048F60F731A4042F4004220F8262091F802
:102560002B002831032805D020B1022825D15FEAAD
:10257000C85022D42068B0F850300D780BEBC5025B
:10258000134409EB4302805A8A69C0F3090082426E
:102590000CD9121A8A610BD04A6902444A61CA698D
:1025A0001044C861206801F037FA0AE00020886111
:1025B000E9B22046FEF7FDFB03E042462046FEF767
:1025C000D1FC2068B0F8441009043FF58DAE00201E
:1025D000BDE8F09F70477047FEF734BB30B595B04B
:1025E00028216846FDF7E9FD14210AA8FDF7E5FD5D
:1025F00018210FA8FDF7E1FD01210804CDE9001025
:102600000024029402250491CDE907504FF4E01014
:1026100009906846FFF7DEF908B172B6FEE70F20B1
:10262000CDE90A054FF48060CDE90C4002210AA8EB
:102630000E94FFF7DDF808B172B6FEE7102014948F
:102640000F900FA8FFF760F8002801D072B6FEE7E0
:1026500015B030BD7047000010B50848FFF762FBA9
:102660000648FFF759FB2028FAD101220449034804
:10267000FFF7FEFC0028F8D110BD0000600200202A
:102680000000002010B5406A0021C185C184FFF719
:1026900042FB10BD0168CA6822F49072CA600168EA
:1026A0004A6922F001024A61016B012904D10168E3
:1026B000CA6822F01002CA60202180F83E10002172
:1026C0000163704708B590F83E10222901D002201E
:1026D00008BD81684FF48053994201D1026922B14B
:1026E000826A99421BD049B10AE00268816A526845
:1026F000C2F308020A80816A891C08E0016971B18D
:102700000168496801F07F011170816A491C81628A
:10271000C18D491E0904090CC18503D019E0016867
:102720004968F1E70168CA6822F02002CA600168BE
:10273000CA6822F48072CA6001684A6922F0010204
:102740004A61202180F83E10016B012903D0FFF778
:10275000A5FC002008BD002101630168CA6822F0C1
:102760001002CA6001680A68D20602D50A68496880
:102770000091818DFFF7CEFAEBE7000070B50446BB
:1027800000680169E26821F4405111430161A168C8
:1027900020690143606901432068C26841F20C630B
:1027A0009A430A43C26020684169A26921F44071DA
:1027B000114341611E492068884202D1FFF7C4F8E5
:1027C00001E0FFF7B1F800EBC00101EB0011606818
:1027D00064228000B1FBF0F3B3FBF2F36FF0180654
:1027E0007343B1FBF0F5B1FBF0F605EB8305322343
:1027F00003EB0515B5FBF2F5B6FBF2F605F0F005B7
:1028000005EB0615B1FBF0F6B1FBF0F0B0FBF2F012
:102810006FF01801484306EB800003EB0010B0FB9B
:10282000F2F0216800F00F002844886070BD0000BD
:102830000038014081628285C28500210164222224
:1028400080F83E2080F83C100168CA6842F480722B
:10285000CA6001684A6942F001024A610068C168C1
:1028600041F02001C160002070472DE9F0411E4673
:10287000174688460446069D1CE0681C1AD025B100
:10288000FEF7DAF9801BA84214D92068C16821F448
:10289000D071C1602068416921F0010141612020AF
:1028A00084F83D0084F83E00002084F83C000320BA
:1028B000BDE8F0812068016838EA010004D00020FA
:1028C000B842DAD00020F3E70120F9E70148FFF72A
:1028D00029BA0000A40200202DE9F041D0F8C0621E
:1028E000D0F8B822CAB101EB810300EB83040027C2
:1028F000E5693DB106EBC3039B6BB5FBF3F603FB48
:10290000165323B1C2F814720020BDE8F0810023F1
:102910001A46E76100F07FFCF6E70220F5E770B5A4
:102920000546D0F8B84200F07AFBC4F80C02D5F89E
:10293000B80248B1D5F8BC12D4F80402CA6804F54C
:1029400003719047002070BD022070BD70B5044631
:102950000026812100F0B6FA002501212046E5621B
:1029600000F0B0FA82212046C4F86C5100F0AAFAB7
:102970002564D4F8B80248B1D4F8BC0204F52E742A
:1029800040688047206800F016FE2560304670BD24
:1029900010B5D0E9AE4159B194F80002FF2807D034
:1029A0008B6894F8012221469847FF2084F80002A2
:1029B000002010BD0A2101800048704788000020D7
:1029C0004321018000487047D80000204321018046
:1029D0000048704794000020432101800048704760
:1029E0001C0100202DE9F04104460026007C4FF434
:1029F0000077012590B3402302228121204600F078
:102A000063FB4023E56202220121204600F05CFBCB
:102A10000823032282212046C4F86C5100F054FBA5
:102A20004FF40770256400F0C7FDC4F8B802F8B190
:102A30000546D4F8BC02006880470021C5F814128E
:102A4000C5F81812207CD5F8042298B14023012142
:102A5000204600F045FB3046BDE8F081FFE73B46ED
:102A600002228121204600F02FFB3B46E562CAE7A7
:102A70000126F0E73B46EAE710B5D0F8B81269B195
:102A8000027C002AD1F8042205D04023012100F065
:102A900027FB002010BD4FF40073F7E7022010BDA4
:102AA00002460220002902D00020C2F8BC12704762
:102AB000D0F8B802C0F8041200207047D0F8B8026D
:102AC000C0F81022C0F80812002070472DE9FC4120
:102AD0000546D0F8B87200208DF80000ADF804006B
:102AE000064608780C4610F0600121D020293BD121
:102AF000E288AAB10006607807D5D5F8BC128B68C9
:102B000039469847E288394626E087F80002A079DE
:102B100087F80102E2883946284600F06AF828E082
:102B2000D5F8BC12607800228B682146984720E0D7
:102B3000607820B10A2809D00B2815D110E095F84B
:102B40009C02032810D1022201A905E095F89C02FD
:102B5000032809D101226946284600F064F808E0FC
:102B600095F89C02032804D02146284600F036F848
:102B700002263046BDE8FC8110B5D0F8B812A1B1EC
:102B8000D1F814220AB1012010BD0122C1F814228B
:102B9000D1F810220263B1F8102293B2D1F80822C2
:102BA000812100F038FB002010BD022010BD10B5BF
:102BB000D0F8B42252689047002010BD134610B5DB
:102BC0000A46002100F08CFA002010BD134610B513
:102BD0000A46002100F01FFB002010BD10B504467E
:102BE000802100F0FDFA2046BDE81040002100F0F1
:102BF000F7BA10B50323C0F85C21C0F89432C0F8CE
:102C0000602113460A46002100F06AFA002010BD38
:102C100010B505210023C0F894121A46194600F099
:102C20005FFA002010BD10B50223C261C0F89432D3
:102C3000026213460A46002100F0EDFA002010BDA2
:102C400010B504210023C0F894121A46194600F06A
:102C5000E2FA002010BD000010B50A46024903A0A8
:102C600000F0E2F8004810BDAC05002043444320CA
:102C7000436F6E6669670000122008800048704745
:102C80002800002010B50A46024903A000F0CCF845
:102C9000004810BDAC05002043444320496E7465D4
:102CA0007266616365000000042008800048704778
:102CB0002400002010B50A46024903A000F0B4F831
:102CC000004810BDAC05002053544D6963726F6518
:102CD0006C656374726F6E696373000010B50A46A9
:102CE000024903A000F0A0F8004810BDAC05002088
:102CF00053544D3332205669727475616C20436FA2
:102D00006D506F727400000010B51A2008800A48D8
:102D10000168001D0468001D0068081809D0082219
:102D20000649FFF741FA0549042210312046FFF712
:102D30003BFA0248801E10BDE8F7FF1F3E0000204E
:102D4000F8B504460020ADF8000048880D46010A99
:102D5000082948D2DFE801F04704091747473D45F5
:102D6000D4F8B012207C0A6819E0207C02260028E2
:102D7000D4F8B40205D0C16A684688470146467057
:102D80003EE0816AF8E7C0B206282CD2DFE800F006
:102D9000030B1115191DD4F8B002426806E069460C
:102DA000904701462CE0D4F8B0028268DAB1207C6A
:102DB000F5E7D4F8B002C268F8E7D4F8B0020269C7
:102DC000F4E7D4F8B0024269F0E7D4F8B0028269BF
:102DD000ECE7207C38B9D4F8B402416B68468847E8
:102DE000DFE7207C20B129462046FFF7F7FEF8BD3B
:102DF000D4F8B402016B6846884701460720487042
:102E0000BDF8000048B1EA8852B1824200D90246BA
:102E1000ADF800202046FFF706FFE8880028E6D13D
:102E20002046FFF70DFFF8BD70B5002300281ED027
:102E30000446002502E06D1CEDB2641C2678002ECD
:102E4000F9D1022404EB450414801278CA545B1CA7
:102E50000322CA5400245B1C06E0CA545B1CDAB28D
:102E60008C54521CD3B2401C0278002AF5D170BD9C
:102E700001004FF0000004D0012901D0022901D047
:102E8000022070470120704710B580B1D0F8B432ED
:102E900013B10023C0F8B43209B1C0F8B012012157
:102EA00080F89C12027000F0BFF8002010BD0220D4
:102EB00010BD10B5D0F8C002FDF7B4FFBDE810405A
:102EC000FFF7D6BF10B5D0F8C002FDF785FFBDE80B
:102ED0001040FFF7CDBF2DE9F0411746044651B130
:102EE000D4F8B40242691AB194F89C02032851D074
:102EF0000220BDE8F081D4F89432002504F11400DA
:102F0000022B03D0042B3AD0C3B33CE0D0E90363D7
:102F10009E4207D9F11AC1608AB239462046FFF7AE
:102F200055FE12E08068B0FBF3F103FB110199B983
:102F3000984211D3D4F8981288420DD2002211463B
:102F40002046FFF743FEC4F8985200231A4619465C
:102F5000204600F0C5F816E0D4F8B402C16829B1E3
:102F600094F89C02032801D12046884780212046FE
:102F700000F036F92046FFF74BFE04E0FFE7802122
:102F8000204600F02DF994F8A002012804D184F81D
:102F9000A05201E0204690470020AAE770B51546F0
:102FA000044649B1D4F8B40282691AB194F89C027B
:102FB000032830D0022070BDD4F8941204F5AA7012
:102FC000032902D005291ED027E0D0E903318B4226
:102FD0000BD95B1AC3600846834200D303469AB2FA
:102FE00029462046FFF7EAFD17E0D4F8B40201694C
:102FF00029B194F89C02032801D120468847204635
:10300000FFF71EFE09E000200146C4F894022046A6
:1030100000F0E6F801E020469047002070BDD0F8AF
:10302000C002FEF735B9000010B504461C481D4922
:10303000C0F8E842C4F8C0020160082141600221E2
:10304000816000218161C1610162FEF770FA08B1FF
:10305000FDF725FC0022D4F8C0021823114604F520
:103060003074FDF787FE5823002280212068FDF789
:1030700081FEC023002281212068FDF77BFE4FF4F2
:103080008873002201212068FDF774FE4FF48073DD
:10309000002282212068FDF76DFE002010BD000097
:1030A0005C0B0020005C00400A0601F07F01D0F8B4
:1030B000C00201EB810100EBC10002D590F82A00AB
:1030C000704790F86A01704710B51C461346D0F857
:1030D000C0022246FEF7E5F8BDE81040FFF7C8BE83
:1030E00010B5D0F8C002FEF70CF9BDE81040FFF7AC
:1030F000BFBE70B50022044640231146FFF7E4FF2F
:1031000040260125C4F86461334600228021204610
:10311000C4F85851FFF7D8FF6662A56184F89C5245
:103120000020C4F894026060C4F8A402D4F8B80285
:1031300028B1D4F8B402002142682046904700200C
:1031400070BD90F89C12042903D190F89D1280F86C
:103150009C120020704710B590F89C12032904D1EE
:10316000D0F8B412C96901B18847002010BD0174BC
:103170000020704710B5D0F8C002FEF77EFABDE817
:103180001040FFF775BE70B5044600F52A7005467D
:1031900000F04AF80120C4F89402B4F8AE02C4F872
:1031A000980294F8A82212F01F000AD001280DD02E
:1031B000022810D002F08001204600F011F8002013
:1031C00070BD2946204600F09EF8F8E729462046C3
:1031D00000F0CAF9F3E72946204600F01DF9EEE7B2
:1031E00010B5D0F8C002FEF7A5F8BDE81040FFF713
:1031F0003FBE10B5D0F8C002FEF75AFABDE8104045
:10320000FFF736BE90F89C1280F89D12042180F8DA
:103210009C120020704710B5D0F8C002FEF7C3F82A
:10322000BDE81040FFF724BE0A7802704A78427069
:103230008A78CB7802EB032242800A794B7902EB41
:10324000032282808A79C97902EB0121C18070470B
:103250000246002011B1C2F8B41270470220704734
:1032600010B5D0F8B42202241AB11268904700B900
:103270000024204610BD000070B50E461E4D897812
:1032800004462970012931D894F89C0202280BD0F9
:1032900003280FD031462046FFF7A0FC29782046AE
:1032A000BDE87040FFF783BCD9B10320616084F8AA
:1032B0009C0209E071B16068884212D0C1B2204618
:1032C000FFF775FC297861602046FFF7C9FF0228E7
:1032D0000CD006E0022084F89C0220466160FFF7D3
:1032E00066FC2046BDE87040FFF7AABC3146204688
:1032F000BDE87040FFF772BC8400002010B5FFF7F6
:1033000078FF002010BD2DE9F0410A78002712F067
:10331000600208D0202A01D0402A70D1D0F8B4220F
:10332000926890476DE04A78002301260A2A66D207
:10333000DFE802F0405D6557650805652C29FFF759
:10334000FFFC5EE004468888D8B9C888C8B94888B8
:10335000802816D200F07F0594F89C02032810D034
:1033600084F89E5229462046FFF704FF2046FFF7C7
:1033700067FC1DB1022084F89C0242E084F89C6244
:103380003FE020463BE0FFF777FF3AE0CA88012A9A
:1033900035D190F89C22012A04D0022A02D0032AB7
:1033A0002DD104E0012200F10801836016E0012222
:1033B000011D13E090F89C22012A03D0022A01D0BB
:1033C000032A1CD1CA88022A19D1C660D0F8A412D7
:1033D00009B10321C160022200F10C01FFF723FCB7
:1033E0000FE0498801290CD1C0F8A46211E090F8DF
:1033F0009C22012A08D0022A06D0032A04D0FFF713
:10340000EDFB3846BDE8F08149880129F9D1C0F8C3
:10341000A432FFF715FCF4E72DE9F0410A46044613
:1034200013780027097913F060000AD0202801D012
:10343000402850D1D4F8B4021146836820469847FA
:103440008FE0C3F34110012806D05078D0B3012893
:103450002AD003283FD107E0D4F8B402114683688C
:103460002046BDE8F041184794F89C02022802D09B
:10347000032872D10AE071B380296ED02046FFF78D
:10348000AFFE80212046FFF7ABFE6AE0508838B9D6
:1034900031B1802904D0D08810B92046FFF7A0FEB2
:1034A0002046FFF7CDFB5CE094F89C020228E2D0B6
:1034B000032852D1508898BB4806F1D02046FFF728
:1034C000F8FCEDE7FFE794F89C020026022803D001
:1034D000032842D112E040E009B180293DD108061D
:1034E00001F07F0000EB800004EB800101D5143176
:1034F00001E001F5AA7102220E602AE0080601F03F
:103500000F0000EB800004EB80000AD5806920B337
:1035100001F07F0000EB800004EB800514350BE028
:103520001FE0D0F85801C0B101F07F0000EB80002F
:1035300004EB800505F5AA7541B1802906D0204627
:10354000FFF7B2FD10B10120286000E02E600222DA
:1035500029462046FFF767FB03E011462046FFF7A8
:103560003DFB3846BDE8F08170B5054608780C464D
:1035700010F0600203D0202A01D0402A16D195F81D
:103580009C22012A03D0022A01D0032A0ED12079DD
:1035900001280BD8D5F8B402826828469047E18804
:1035A000014306D12846FFF74BFB02E02846FFF710
:1035B00015FB002070BD7047004870473C09002093
:1035C0002DE9F0470D78002630F8252048F68F13B6
:1035D0001A40CB78002B79D0012B7DD0022B02D062
:1035E000032B76D0012648F28004224320F82520C0
:1035F0000A7830F8223048F68F773B401343234354
:1036000020F822300B7B48F2C00548F6BF724CF21E
:10361000800C4BF68F79E3B30B789A4630F8238011
:1036200048F2801308EA070848EA030820F82A80CD
:10363000B0F8503091F80080034403EB0813B1F860
:10364000088028F00108A3F80084B0F8503091F801
:103650000080034403EB0813B1F80A8028F0010846
:10366000A3F808844B78002B0B7830F823804FEABE
:1036700048487DD0B8F1000F07DA30F8238008EA17
:10368000070848EA0C0820F823800B7830F823C09C
:1036900000E024E05FEA4C6C07D530F823C00CEA68
:1036A000070C4CEA050C20F823C0CB78012B0B78D3
:1036B00030F8235005EA02057ED085F0200222432F
:1036C00020F82320AAE001E006E002E042F40072C4
:1036D00089E742F4C06286E742F4806283E74B7870
:1036E00063B3B0F8503091F800C0034403EB0C13FF
:1036F000B1F806C02CF0010CA3F800C40B7830F828
:1037000023C05FEA4C6C07D530F823C00CEA070CE5
:103710004CEA050C20F823C0CB78012B06D00978A1
:1037200030F82130134083F020027CE0097830F833
:1037300021301340234320F8213077E0B0F85020A7
:103740000B78024402EB0312CB8823F00103A2F8AA
:103750000834B0F850200B78024402EB03120B69D6
:1037600002F20C4263B13E2B12D85D08DB0700E089
:103770002DE000D06D1C4FF6FF7303EA85230FE0A8
:10378000138823F4F8431380138843F4004307E0BD
:103790005D09DB0600D16D1E4FF4004343EA85232B
:1037A00013800A7830F822305B0408D530F82230D4
:1037B0003B4043EA0C0300E02DE020F8223009787A
:1037C00030F8212002EA090282F440522BE0B8F1DD
:1037D000000F07DA30F8238008EA070848EA0C08E7
:1037E00020F823800B7830F823C05FEA4C6C07D5B3
:1037F00030F823C00CEA070C4CEA050C20F823C073
:103800000B7830F8235005EA090585F44055254327
:1038100020F823508AE7254320F82350097830F810
:10382000212002EA0902224320F821203046BDE887
:10383000F087002070472DE9F04391F80C804C7818
:103840000A7848F6BF774BF68F7948F2800548F240
:10385000C0064CF2800C48F68F73B8F1000F29D0E7
:10386000002C30F822404FEA444448D0002C06DABD
:1038700030F822401C4044EA0C0420F822400A7828
:1038800030F82240640605D530F822401C4034430D
:1038900020F822400A7830F822401C4044EA0C0408
:1038A00020F822400A7830F822303B402B4320F8A1
:1038B000223019E0002C30F822400CD0640605D5E7
:1038C00030F822401C40344320F82240097830F878
:1038D00021203A400DE0640406D530F822401C4017
:1038E00044EA0C0420F82240097830F8212002EA4A
:1038F00009022A4320F821200020BDE8F083002C93
:1039000006DA30F822401C4044EA0C0420F8224039
:103910000A7830F82240640605D530F822401C4071
:10392000344320F822400A7830F822401C403443C7
:1039300020F822400A7830F8223003EA09032B43AA
:1039400020F82230C2E70020704700207047012194
:1039500020F8401F002101808180018208467047C5
:1039600030F8401F21F43F410180002070470020C3
:10397000704730B50A7BA2BB4A7848F68F75002A9B
:103980000A7848F2800430F8223015D05B0607D55B
:1039900030F822302B4048F2C0052B4320F822306B
:1039A000CA78012A1DD0097830F8212048F6BF7363
:1039B0001A4082F0200211E05B0407D530F8223073
:1039C0002B404CF280052B4320F82230097830F848
:1039D00021204BF68F731A4082F44052224320F884
:1039E0002120002030BD10B54A780978002A48F21D
:1039F000800330F8212005D048F6BF74224082F0C1
:103A0000100204E04BF68F74224082F480521A4375
:103A100020F82120002010BD2DE9F0470C464B78FE
:103A2000097B06464FF0000948F68F7248F2800A7B
:103A30004FF6FF774FF40048012B09D000296ED0D4
:103A4000E07802286CD001286BD00120BDE8F08717
:103A5000A5692069854200D90546C9B1E17848F2D7
:103A60008013022923D0207836F820101140194302
:103A700026F82010206A401B2062207836F820109B
:103A8000490661787ED500297DD001297CD03EE1B0
:103A9000ABB2E2883046616900F073FBB6F85000C3
:103AA0002178304400EB0110A0F80454EAE0216AC8
:103AB0008142207869D936F820101140194326F840
:103AC0002010206A401B2062207836F8201049061A
:103AD00061786CD511B1012924D02AE0B6F85010D4
:103AE000314401EB001000F20C404DB13E2D0FD8D7
:103AF0006908EA0700D0491C07EA8121018018E023
:103B0000018821F4F8410180018841F40041F5E782
:103B10006909EA0600D1491E48EA8121EEE79BE1E6
:103B2000BAE124E2B6F85020911901EB0010A0F898
:103B30000C546289ABB23046616900F022FB6069C7
:103B4000284460612169206A884202D9401B2062B2
:103B500002E00546C4F82090607800287CD1B6F8D1
:103B600050002178304400EB011000F204406DB1A8
:103B70003E2D13D86908EA0700D0491C07EA8121C5
:103B8000018012E000E19AE0BAE084E0018821F4CB
:103B9000F8410180018841F40041F1E76909EA0632
:103BA00000D1491E48EA8121EAE7228965E011B186
:103BB000012921D027E0B6F85010314401EB001064
:103BC00000F204404DB13E2D0FD86908EA0700D03D
:103BD000491C07EA8121018015E0018821F4F841A0
:103BE0000180018841F40041F5E76909EA0600D146
:103BF000491E48EA8121EEE7B6F85010314401EB46
:103C00000010A0F804542289ABB23046616900F07C
:103C1000B8FA6069284460612169206A884202D943
:103C2000401B206202E00546C4F82090607800281E
:103C30007DD1B6F850002178304400EB011000F23D
:103C40000C4055B13E2D10D86908EA0700D0491C38
:103C500007EA812101800FE071E0018821F4F84139
:103C60000180018841F40041F4E76909EA0600D1C6
:103C7000491E48EA8121EDE76289ABB230466169AD
:103C800000F07FFA207836F8201048F6BF72114015
:103C900081F03001BEE136F8202048F68F631A40EB
:103CA00042EA0A0226F82020B6F850002278304472
:103CB00000EB02108BB2A0F804342289DEE7B6F8DC
:103CC0005010314401EB001000F20C404DB13E2D7C
:103CD0000FD86908EA0700D0491C07EA8121018052
:103CE00015E0018821F4F8410180018841F4004188
:103CF000F5E76909EA0600D1491E48EA8121EEE7A5
:103D0000B6F85020911901EB0010A0F80C5462890C
:103D1000ABB23046616900F034FA606928446061F2
:103D20002169206A884203D9401B206203E06EE0CB
:103D30000546C4F82090002DA4D0607858B1012821
:103D40007FF41FAFB6F850002178304400EB01102B
:103D5000A0F8045429E7B6F850002178304400EB6D
:103D6000011101F204413E2D06D86808EA0700D08F
:103D7000401C07EA802005E06809EA0600D1401EE1
:103D800048EA8020088010E711B1012921D027E0FE
:103D9000B6F85010314401EB001000F204404DB170
:103DA0003E2D0FD86908EA0700D0491C07EA812197
:103DB000018015E0018821F4F8410180018841F477
:103DC0000041F5E76909EA0600D1491E48EA812168
:103DD000EEE7B6F85010314401EB0010A0F804549F
:103DE0002289ABB23046616900F0CBF960692844A2
:103DF00060612169206A884202D9401B206202E08A
:103E00000546C4F82090002D96D0607858B101285E
:103E10007FF421AFB6F850108819217800EB01101B
:103E2000A0F80C5428E7B6F850002178304400EB95
:103E3000011101F20C413E2D06D86808EA0700D0B6
:103E4000401C07EA802005E06809EA0600D1401E10
:103E500048EA802008800FE7A1692069814202D9E1
:103E6000091AA161B4E00846C4F81890B0E00888C7
:103E700020F4F8400880088840F400400AE03E281A
:103E800074D84208C00700D0521C07EA822001E023
:103E900048EA82200880B5E093B9B6F8500021784E
:103EA000304400EB0110216900F2044069B13E2961
:103EB00013D84B08C90700D05B1C07EA8321018097
:103EC000607888B1012832D03AE0018821F4F841C5
:103ED0000180018841F40041F1E74B09C90600D196
:103EE0005B1E48EA8321EAE7B6F8500021783044A7
:103EF00000EB0110216900F20C4049B13E290FD8B6
:103F00004B08C90700D05B1C07EA8321018017E03A
:103F1000018821F4F8410180018841F40041F5E76E
:103F20004B09C90600D15B1E48EA8321EEE7B6F8CB
:103F300050108819217800EB0110218AA0F80C1488
:103F4000E069A8B3217836F82100430401D543067F
:103F500003D444F24003184254D136F821001040F3
:103F600048F2C002104326F821004BE03CE0A16972
:103F70002069814202D9091AA16102E00846C4F809
:103F800018908BB9B6F850102278314401EB021129
:103F900001F2044168B13E2813D84208C30700D09B
:103FA000521C07EA82220A80617889B1012921D056
:103FB00028E00A8822F4F8420A800A8842F4004283
:103FC000F1E74209C30600D1521E48EA8222EAE71D
:103FD000B6F850102278314401EB021101F20C4185
:103FE00000287FF44CAF42E74209C0067FF450AF8F
:103FF000521E4DE7B6F850209119227801EB0211BC
:10400000A1F80C04207836F820104BF68F7211407E
:1040100081F4405141EA0A0126F82010002015E5FC
:104020000021A0F844104FF43F41A0F840100020B8
:1040300070470000014890F89C027047E802002099
:104040000148FDF7CAB900005C0B00200FB40B4813
:1040500070B505AA049900F0B9F80848FCF7B8F85B
:1040600085B20024054E04E0301900F081F8641C8C
:10407000A4B2AC42F8D370BC5DF814FBAC070020CE
:10408000B0F84400704710B500EB42005C0800F542
:10409000806008D030F8042B01F8012B120A01F8D7
:1040A000012B641EF6D1DA0701D00088087010BD1C
:1040B00030B585B000200090019002900390104828
:1040C000816941F00401816180690E4D00F00400B6
:1040D0004FF4C0540490002221462846FCF7A6FD68
:1040E000012002210094CDE901010391694628468F
:1040F000FCF7A4FC0A20FCF78FFC05B030BD0000E3
:1041000000100240000801400020704711B98021D2
:10411000A0F84C1000207047F0B500231E46124D49
:104120001AE02A88C45C170414D4570404D50A2C56
:104130000FD142F4004214E00D2C10D0C2F30D0751
:10414000DFF828C0521C92B20CF807402A80C72A18
:1041500000D92E805B1CDBB28B42E2D3F0BD42F46F
:1041600080422A80F6E700007000002074080020DA
:1041700010B5044601212046FCF77AFB0128F9D04E
:1041800010BD10B55B1C00EB42005B0800F58060C1
:1041900009D011F8012B11F8014B42EA042220F852
:1041A000042B5B1EF5D110BDFEE700000FB4054BDC
:1041B00010B503A9044A029800F0FCF810BC5DF8A1
:1041C00014FB0000ED4A00080400002037B5144637
:1041D0000846064B6A46214600F0ECF8044669465C
:1041E000002000F07EFC20463EBD0000E34A0008AF
:1041F0000907090E002804DB00F1E02080F8001414
:10420000704700F00F0000F1E02080F8141D7047A7
:1042100002E008C8121F08C1002AFAD1704770478F
:10422000002001E001C1121F002AFBD170470000ED
:104230002DE9FF5F82B00021DDE90430020DDDF8D9
:1042400040B0034318D044F61050A2F2FF3242436C
:104250001514119801281FD0A5EB0B00401C5FEA34
:10426000000A4FF000064E4FDFF83891B046504636
:1042700015D5CAF1000413E0119801244AA30128BE
:1042800001D16FEA0B010298119AC0E90031C0E92F
:10429000024206B0BDE8F09FCBF10000DFE7044624
:1042A0000021404A491842EB0450CDE9001012E0C9
:1042B000E00707D032463B4640464946FCF77DF8CA
:1042C0008046894632463B4610461946FCF775F84B
:1042D00006460F466410002CEAD1DDE90401DDE951
:1042E0000023BAF1000F06DAFCF767F842464B46A6
:1042F000FCF763F805E0FCF7D2F842464B46FCF7C2
:10430000CEF804460E460022284BFCF74FF903D89E
:104310004FF0FF30014607E00022254B2046314692
:10432000FBF7A4FFFCF72AF9102409E0002C0ADBB4
:104330000A220023FBF769FF039B30321A55641EE3
:1043400050EA0102F2D1641C039AC4F1110314442F
:10435000119A012A03D0012208430DD10AE0084333
:1043600004D000204FF0110B119072E7A3EB0B0566
:104370006D1E0DE05B4504DD4FF0000205F1010507
:1043800004E003DA4FF00002A5F10105002AECD0A9
:1043900002981199C0E90231C0E9004579E70000AF
:1043A000000014400000F03F300000000000F04327
:1043B0000000E03F2DE9FF4F95B09B468946064639
:1043C00000250FE2252877D100242746F84A01214D
:1043D000059400E0044316F8013F203B01FA03F086
:1043E0001042F7D130782A2811D06FF02F0330789F
:1043F000A0F13002092A16D8059A44F0020402EB13
:10440000820203EB42021044761C0590EFE759F854
:10441000042B0592002A03DA504244F4005405901C
:1044200044F00204761C30782E2816D116F8010FBD
:1044300044F004042A280DD06FF02F023078A0F148
:104440003003092B09D807EB870302EB4303C71896
:10445000761CF3E759F8047B761C30786C280FD073
:1044600006DC4C2817D068280DD06A2814D104E047
:10447000742810D07A280FD10DE044F400140AE01B
:1044800044F4801401E044F440147278824202D172
:1044900004F58014761C761C307866280BD013DC6B
:1044A000582877D009DC002875D04528F6D0462852
:1044B000F4D047281AD19DE118E0632835D064284C
:1044C00079D0652812D195E1702873D008DC67286F
:1044D000F1D069286FD06E280DD06F2806D1B5E0D5
:1044E00073282CD0752875D0782874D05A4617991F
:1044F00090476D1C75E1C4F30250022809D00328CF
:104500000DD0D9F8001004280DD00D6009F1040970
:1045100067E1D9F80010EA17C1E90052F6E7D9F8C7
:1045200000100D80F2E70D70F0E719F8041B8DF80C
:10453000001000208DF80100EA46012003E059F840
:1045400004AB4FF0FF3061074FF0000102D40DE0E3
:1045500008F101018846B9420FDA8045F8DB1AF804
:1045600008100029F4D108E008F1010188468142D1
:10457000FADB1AF808100029F6D105985B46A0EB83
:10458000080721463846179A00F094FA284400EBB1
:10459000080507E04DE029E10DE01AF8010B5A4645
:1045A00017999047B8F10108F7D25B462146384683
:1045B000179A13E142E00A220092C4F302524FF02C
:1045C000000A022A08D059F804CB032A4FEAEC71FA
:1045D0000AD00DE029E02AE009F1070121F00702E5
:1045E000F2E802C1914609E00FFA8CFC4FEAEC7147
:1045F000042A03D14FFA8CFC4FEAEC71002907DA48
:104600000A460021DCF1000C61EB02012D2202E0E0
:10461000220504D52B228DF80420012203E0E207B5
:1046200001D02022F7E7904659E00A2102E010224B
:104630000DE010214FF0000A00910BE010224FF026
:10464000000A44F004040827009203E008224FF017
:10465000000A0092C4F30252022A05D059F804CB92
:104660000021032A08D009E009F1070121F007021F
:10467000F2E802C1914605E01FFA8CFC042A01D140
:104680000CF0FF0C4FF00008220728D5702806D048
:10469000009B83F0100353EA0A0305D00EE040228A
:1046A0008DF80420012208E05CEA010206D03022E5
:1046B0008DF804208DF8050002229046009B83F0BF
:1046C000080353EA0A030AD15CEA010201D1620736
:1046D00005D530228DF804204FF001087F1E5828A0
:1046E00004D034A003900EA802900DE036A0F9E7A4
:1046F00053466046009AFBF788FD84460398825C27
:104700000298401E029002705CEA0100F0D102980B
:1047100006A9081A00F1200A600702D524F48034A3
:1047200000E00127574502DDA7EB0A0000E000206A
:1047300000EB0A01009005984144401A0590E003FF
:1047400006D45B462146179A059800F0B3F9054454
:10475000002706E001A85A46C05D179990476D1CD6
:104760007F1C4745F6DBE0030CD55B462146179AD4
:10477000059800F09FF9054404E030205A46179947
:1047800090476D1C0099481E00900029F5DC08E058
:10479000029802995A460078491C0291179990474D
:1047A0006D1CBAF10001AAF1010AF1DC65E100001B
:1047B00009280100303132333435363738396162F7
:1047C00063646566000000003031323334353637BB
:1047D00038394142434445460000000000F058F992
:1047E0000544761C307800287FF4ECAD19B02846DB
:1047F000BDE8F08F620700D4062709F1070222F016
:10480000070CFCE80223E14603F000485FEA080CCD
:1048100002D00FF2702C0DE05FEA045C02D50FF2BB
:10482000682C07E05FEAC47C02D00FF2602C01E044
:10483000AFF2700C4FF0FF3823F00043CDF850C0BA
:1048400065280CD006DC452809D046281DD047280D
:104850003DD13DE0662818D067287ED138E00021A0
:10486000112F01DB112000E0781CCDE9000106A921
:104870000EA8FFF7DDFCDDE90F010E9A0391002180
:10488000009207F1010A04914DE04FF000400097BB
:10489000CDE9011006A90EA8FFF7CAFCDDE90F0259
:1048A00003920E9B11990022DDF80CA00093049254
:1048B00011B9791C00EB010AB7EB0A0004D4C0F16E
:1048C000FF3007F1010A0490AAEB0700019044E0D1
:1048D000012F00DA01270021112F01DD112000E056
:1048E0003846CDE9000106A90EA8FFF7A1FCDDE9D5
:1048F0000F010E9A0391002104910092BA462107FC
:104900000CD40399514500DA8A46BAF1010F05DD4E
:10491000009AAAF10101515C302908D0B84202DAAC
:1049200010F1040F06DA0121CDE9011015E0AAF11A
:104930000101E9E7002805DC049901440491AAEB90
:10494000000102E0411C514500DD8A460499401AED
:10495000401C01904FF000400290200704D40198C1
:10496000504501DBCDF8048000208DF84F000298FF
:104970000DF14F07B0F1004F25D02B200E9002987B
:104980004FF0020800280CDA404202902D200E90D1
:1049900007E00A210298FBF722FC3031029007F869
:1049A000011DB8F10001A8F10108F2DC029800280D
:1049B000EFD1791E0E980870307800F0200040F09A
:1049C000450007F8020D12A8C01B00F10708149853
:1049D000007800B1012000EB0A01019801EBE071C1
:1049E00005984144401A401E0590E00306D45B46FA
:1049F0002146179A059800F05DF805441498007850
:104A000018B15A46179990476D1CE00324D55B46B0
:104A10002146179A059800F04DF805441CE00498CB
:104A2000002807DBDDE90301884203DD0098405CD4
:104A3000179901E0179930205A469047049805F1DC
:104A40000105401C04900198401E019004D12E20C5
:104A50005A46179990476D1CBAF10001AAF1010A54
:104A6000DDDC05E017F8010B5A46179990476D1CDD
:104A7000B8F10001A8F10108F4DC5B462146179A61
:104A80000598ABE62D0000002B0000002000000080
:104A90002DE9F041044600251E461746880404D43B
:104AA00005E039462020B0476D1C641EF9D5284624
:104AB000BDE8F0812DE9F041044600251E469046F0
:104AC000C80301D5302700E02027880404D505E07D
:104AD00041463846B0476D1C641EF9D52846BDE8EE
:104AE000F0810A68531C0B601070704713B54FF0CB
:104AF000FF33012269460248FDF7FCFA00981CBD0D
:104B000060020020FCF7A6F8FDF768FDFDF768FBE2
:104B1000FDF77CFBFDF796FB0CA0FFF747FBFFF7CB
:104B2000C7FAFDF7ABFB0EA0FFF740FBFFF782FAD9
:104B300030B1FFF77FFA032806D00DA0FFF736FB50
:104B400010A0FFF783FAFBE715A0F7E755534220C3
:104B5000436F6E6E656374696E672E2E2E0D0A00AC
:104B600055534220696E697465642E2E2E0D0A001D
:104B700055534220646973436F6E6E656374656458
:104B8000200D0A00C7EBCAE4C8EBCAFDBEDD2CD27B
:104B9000D4BBD8B3B5BCFCBDE1CAF80D0A00000017
:104BA00055534220436F6E6E656374656420202008
:104BB000200D0A00000000000000000001020304B4
:104BC000060708090000000001020304EC4B00087E
:104BD0000000002098010000FC060008B44C00080A
:104BE00098010020B0100000204200088113792CA9
:104BF0001B08A9041AB5041ADD0413092D1B085952
:104C0000081A85041704030904120114020202168B
:104C10004083044057260201020301031A1A0313BA
:104C200035081B0831041355071B084D08111AC21B
:104C300031190741290A82105324F4130A0632025B
:104C40002A401C1C09024363111DC03209042D1A9D
:104C5000020B130524161001052401100901042478
:104C60000202052406170107058203081C10090427
:104C700099320A1D07050102432C070581070938EF
:104C8000442A40072A8107112B0907440A3B0444A0
:104C900013E5291B084D044BCD2AFD1A910C13D99D
:104CA000281B081F08C11ACD102AC11C19041AB5E7
:044CB00004000000FC
:0400000508000131BD
:00000001FF
